:020000040800F2
:10000000800A00204D02000811240008092400087D
:100010000D240008E51E00085F36000800000000FF
:10002000000000000000000000000000152700088C
:100030003520000800000000A12400086D280008F9
:1000400067020008670200086702000867020008EC
:100050006702000867020008372000084D200008EA
:1000600063200008792000088F200008670200083C
:1000700067020008670200086702000867020008BC
:1000800067020008670200086702000867020008AC
:10009000670200086702000867020008A520000840
:1000A00067020008192B00086702000867020008B1
:1000B000670200086702000867020008670200087C
:1000C000670200086702000867020008670200086C
:1000D00067020008D133000867020008593400089D
:1000E000670200086702000867020008670200084C
:1000F000670200086702000867020008670200083C
:100100006702000867020008B12C000867020008B7
:10011000670200086702000867020008812D0008D6
:10012000670200086702000867020008670200080B
:1001300067020008670200086702000867020008FB
:1001400067020008670200086702000867020008EB
:1001500067020008670200086702000867020008DB
:1001600067020008670200086702000867020008CB
:1001700067020008670200086702000867020008BB
:10018000670200086702000800F002F800F04FF86C
:100190000AA090E8000C82448344AAF10107DA45E2
:1001A00001D100F044F8AFF2090EBAE80F0013F0E5
:1001B000010F18BFFB1A43F001031847104F00004E
:1001C000304F0000103A24BF78C878C1FAD85207DF
:1001D00024BF30C830C144BF04680C6070470000C1
:1001E0000023002400250026103A28BF78C1FBD840
:1001F000520728BF30C148BF0B607047642900F028
:100200005380002070471FB504F081FE00F06EFBA4
:1002100004000020002104F057FA401C6060002018
:10022000002104F03BFAE0601FBD10B510BD00F0E6
:1002300037FB1146FFF7E7FF03F008FC00F056FE1E
:1002400003B4FFF7F2FF03BC03F048FB0948804703
:1002500009480047FEE7FEE7FEE7FEE7FEE7FEE7A8
:10026000FEE7FEE7FEE7FEE704480549054A064BC0
:1002700070470000712800088901000880040020F0
:10028000800A0020800600208006002070470000C1
:100290000FB4044910B503AA029800F09DF910BCF0
:1002A0005DF814FB1C0000202DE9F04106460024F7
:1002B00010687529314616A510D0AFF300800028CC
:1002C00002DA404213A507E031688A0701D512A57A
:1002D00002E0490704D511A5012401E0AFF3008035
:1002E00000210A2206F1240709E0B0FBF2FCB0FB72
:1002F000F2F302FB1C00303078541846491C0028E9
:10030000F3D123462A463046BDE8F04100F0F3B869
:10031000000000002D0000002B0000002000000065
:100320002DE9F05F894604464FF0000ADFF874B10A
:10033000FB44C0F820A02046E1688847002874D01C
:10034000252806D0D4E901219047206A401C20626C
:10035000F1E700265F462046E168884720280546E9
:1003600007DB312D05D2781910F8200C08B10643AF
:10037000F1E7B00701D526F00406C4F81CA0002759
:10038000C4F818A02A2D09D0284603F0A0FA38B3E3
:1003900004EB8708303DC8F8185019E059F8041BE1
:1003A000204604EB87029161E1688847012F0546EA
:1003B00018D1E069002820DA26F020061DE0D8F8E0
:1003C000180000EB800005EB40003038C8F818003A
:1003D0002046E1688847054603F079FA0028EED107
:1003E000012F0AD02E2D08D12046E16888477F1CB6
:1003F0000546022F46F02006C4DBA069002803DA78
:10040000404246F00106A061F00701D026F0100638
:100410006C2D0BD0682D09D04C2D39D06A2D35D0DC
:10042000742D35D07A2D33D016E038E0E1682F46B0
:1004300020468847B842054609D16C2F26D04FF494
:100440008060E168064320468847054604E06C2F3B
:100450001AD04FF4807006430DB3A5F1410019285E
:1004600002D8203546F400664A46294620462660D2
:100470004E46FFF7C3FE80B101280BD0F61D26F0D3
:10048000070000F1080956E74020E4E78020D8E79C
:100490000020D6E706F104094DE7284652E7206A16
:1004A000BDE8F09FF04C000070B5064600F014F86F
:1004B0000468054630460A22002100F0F1F82C605D
:1004C00070BD0000014A00F023B900003400002094
:1004D00070477047704770470048704720040020FD
:1004E00010B5FFF7F9FF006810BD10B50446FFF71F
:1004F000F3FF046010BD2DE9F0470D469946924682
:10050000044600F124080168880604D5E06921F05A
:100510001001216000E00120A84201DD471B00E03E
:100520000027A1697A1902EB0900081AA061207856
:10053000C00602D42046AFF30080002608E0D4E9CC
:1005400001211AF806009047206A401C761C2062A0
:100550004E45F4DB2078C0060AD52046AFF3008074
:1005600006E0D4E9012130209047206A401C206237
:10057000381EA7F10107F4DC07E0D4E9012118F8DF
:1005800005009047206A401C2062281EA5F1010545
:10059000F3DC2046AFF300802078000602D502206D
:1005A000BDE8F0870120FBE701694A1C0261087879
:1005B000704700B58FB0CDE90131002105910549A3
:1005C0007944CDE9031011466846FFF7A9FE0FB044
:1005D00000BD0000E5FFFFFF074B70B50D467B44F3
:1005E000FFF7E7FF0446284600F038F910B14FF056
:1005F000FF3070BD204670BDBF3300000FB4002334
:1006000000B589B00CA900910B99CB60214B7B44BC
:100610000693214B7B44079304236FF00042CDE9FE
:1006200001321E4A7A446B4608920246002004F0CA
:10063000DBFC09B05DF814FB70B506464FF0FF30E7
:1006400015460C46324686B00091CDE90101694657
:100650000020049004A8FFF7D1FF02460498211857
:1006600025B108B1084600E020462860049800281B
:100670000DD0002A02DD0098884208D03246081BBF
:1006800069460094CDE9010404A8FFF7B7FF06B05E
:1006900070BD00006D0100008501000045010000F3
:1006A0002DE9F04791460F4680460446002614F88F
:1006B000015B2DB100F052F80068405DC007F6D133
:1006C0002B2D02D02D2D18D0641E4A4639462046C7
:1006D00000F075F827B13968A14201D1C7F8008050
:1006E0004FF0020471050BD54042002803DDFFF7EF
:1006F000F3FE0460A007BDE8F08746F48066E4E7F7
:100700000028F8DAFFF7E8FE04606FF00040F2E737
:100710002DE9F04115460E46040002D12C6804B9BB
:100720000BA4204600F0AEF80444207870B12746B0
:100730003146384600F096F80444207810B1002085
:1007400004F8010B38462C60BDE8F0810027F9E77A
:1007500000000000004870472004002010B500F0A1
:10076000C5F8001D10BD00BF613F000010B5044674
:10077000FFF7F4FF0068005D00F0010010BD426863
:1007800042B1016811F8013B23B1521EC0E90012C9
:10079000184670470121C160881E704742685AB1EF
:1007A000C368016843B983688B4205D0491E521C57
:1007B000C0E90012002070474FF0FF3070472DE96C
:1007C000F05F824615468B4600270AF10104B946C0
:1007D0000078302801D09DB113E014F8010B0127F7
:1007E000782803D0582801D045B10AE00DB1102D6A
:1007F00007D1002714F8010B102502E0082500E0BE
:100800000A250026B0460EE005FB080005FB06F1B0
:1008100001271FFA80F801EB1046B6F5803F00D3A0
:10082000B94614F8010B294600F064F80028EBDA09
:10083000BBF1000F05D00FB1641E00E05446CBF8A9
:100840000040B9F1000F06D0FFF746FE022101601B
:10085000C81EBDE8F09F48EA0640FAE7007B00F0BA
:100860008000704730B503461D781DB10A4603E08D
:10087000AC4201D1181A30BD12F8014B002CF7D14F
:100880005B1CF1E730B503461D783DB10A4612F80E
:10089000014B1CB1AC42FAD15B1CF5E7181A30BD14
:1008A0007546FFF757FFAE4605006946534620F0F0
:1008B0000700854618B020B5FFF7D6FCBDE82040FC
:1008C0004FF000064FF000074FF000084FF0000B0C
:1008D00021F00701AC46ACE8C009ACE8C009ACE8BF
:1008E000C009ACE8C0098D46704700000048704759
:1008F000400400203A2800D2303820F02002412A5B
:1009000001D3A2F13700884201D34FF0FF30704786
:100910002DE9FF4F06468BB00878FF2806D0491C0A
:100920002D2805D000244FF0000908E000200CE03D
:100930000124F8E709EB8903491C00EB4309087817
:10094000FF28F7D114B1C9F10000814610780025C5
:100950002C46AA4629462D2801D02B2804D1521C0A
:100960002D2813D0002082468B461078FF280FD008
:100970004FF0000C0A21521CA5FB017804FB0181F9
:1009800005FB0C11C5194BEB0104EEE70120EAE76A
:10099000002108464FF00000BAF1000F02D000EB32
:1009A00080004008C0F38157012F01DD4FF0FF3771
:1009B0000E9955EA040009EB01080BD04FF002092B
:1009C00018F5FA7F16DA4FEACA70002F706008DD5A
:1009D000012007E04FEACA70C6E900B00FB0BDE8D9
:1009E000F08F00203060FFF777FDC0F800901821ED
:1009F000084616E0B8F5FA7F18DD002F02DAF7484E
:100A0000784401E0F6487844D0E90010C6E90010C7
:100A100040EACA707060FFF75FFDC0F800901421D3
:100A200008460FB0BDE8F04F04F07BBA002108463D
:100A30004FF00000B8F10001099002DAC7F100029E
:100A400000E03A4601DAC8F1000106A800F0DCF93E
:100A500006AB93E8070003AB83E8070044F23E00CF
:100A60005BEA04010090584604D144F21E012C4672
:100A70005D460091210C0904014306D1009924042C
:100A800044EA15442D041039009104F07F410143DC
:100A900006D10099240244EA15642D020839009118
:100AA00004F07041014306D10099240144EA157411
:100AB0002D01091F009104F04041014306D1009926
:100AC000A40044EA9574AD00891E009104F0004131
:100AD000084304D100986D196441401E00904FF006
:100AE00001033A466846B8F1000FCDE9014503A974
:100AF00002DD00F00EFF01E000F0E1FEBAF1000FB0
:100B000004460D4601D084F00044002108464FF011
:100B10000000099940F2FF77484010F00C0F07D110
:100B200024F00040284303D0C4F30A50B84212D145
:100B3000FFF7D2FCC0F80090C4F30A50B8420AD1C3
:100B4000A8487844D0E90010C6E9001004F000413C
:100B50000843706042E7C6E900543FE72DE9FF4FC4
:100B60001F464FF0000A4FF0FF38454691B0D7E9D5
:100B70000146CDF83CA0FFF7B9FEC0680168405CB3
:100B80001090B96912986D1C8847396A8146884768
:100B90000028F6D1B9F1FF3F0AD0002E24F4D0642A
:100BA00011DDB9F12B0F08D0B9F12D0F0BD102E0F7
:100BB000404615B013E744F48064B96912986D1C7F
:100BC0008847761E8146600504A901D52D2000E0E6
:100BD0002B20002E01F1010B0DF130088DF81000D3
:100BE0003FDDB9F1690F08D0B9F1490F05D0B9F16E
:100BF0006E0F02D0B9F14E0F1CD13B4601A80095F3
:100C000080E85002DDE912126FF0020004F0F0F902
:100C1000C11CCED10EE0B96912986D1C884781467F
:100C20001398761E44F4007405600F98401C002E43
:100C30000F9016DDB9F1300FEDD0B9F1780F02D079
:100C4000B9F1580F0DD10F9801280AD13B46CDE9D3
:100C50000054DDE91212001F029604F0C7F9C11C0E
:100C6000A7D1109989453ED144F0800406E013993C
:100C7000681CAAF1010A44F400740860B9696D1C8B
:100C80001298761E884730288146F0D02BE01099C4
:100C9000894505D1200603D4761E44F0800418E06F
:100CA000484602F014FE08B3761E0DF123018B4571
:100CB00044F4007408D2A9F130000BF8010B2006AF
:100CC00007D5AAF1010003E0200602D40AF10100D1
:100CD0008246A00502D51399681C0860B96912986C
:100CE0006D1C88478146002ED1DC53E0002E51DD7B
:100CF000B9F1650F02D0B9F1450F4BD1A00549D527
:100D0000B9696D1C1298761E24F440748847002E31
:100D100081460CDD2B2804D0B9F12D0F07D144F406
:100D20008074B96912986D1C8847761E8146E0056B
:100D300001D52D2100E02B2108F8011BCDF8008002
:100D400021E0761E0DF13901884544F400740CD27F
:100D5000A9F1300010F0FF0088F8000002D10099DE
:100D6000884509D908F1010806E0E00501D51E48CB
:100D700001E042F20F708246B96912986D1C8847F3
:100D8000814613980560002E04DD484602F09FFD61
:100D90000028D6D1F96912988847FF2053468BF86E
:100DA000000088F8000000200A900B9004AA0CA90B
:100DB0000AA8FFF7ADFDA00502D46FF00100F8E628
:100DC00014F0240F12D0E0071CD13868DDE90A12B4
:100DD000031D3B600068C0E9001213E0F04600000C
:100DE000E2460000A6450000F1D8FFFF0AA96846C8
:100DF00002F05AFDE00705D13868009A011D3960FC
:100E0000006802602846D4E62DE9F0478146164680
:100E10008AB0354878440DC88DE80D0032487844D2
:100E2000801C03AC0DC884E80D0041F69B300844DB
:100E3000372190FBF1F290FBF1F5A5F1800501FB64
:100E400012041B3C02D56442012000E00020DFF8C0
:100E500098A080460027FA44AAF1BE0A0EE0E007F7
:100E60000AD03246684607EB470101230AEB8101AD
:100E700000F03AFD8DE8070064107F1C002CEED1D5
:100E8000194F7F44AE3F19E0E80715D007EB041077
:100E90000DF1180A90E80E008AE80E00C068F042D2
:100EA00001D1981908903246012306A903A800F041
:100EB0001BFD03AB83E807006D10641C002DE3D11C
:100EC0004FF0010332466946B8F1000F03A802D083
:100ED00000F0E0FC01E000F007FDC9E90001C9F8FD
:100EE00008200AB0BDE8F0879C42000010B5044617
:100EF000AFF300802046BDE81040FFF7A1B9000025
:100F00004FF0013C50F8042B51F8043B9A4221D198
:100F1000A2EB0C03934313EACC1317D150F8042B24
:100F200051F8043B9A4215D1A2EB0C03934313EA08
:100F3000CC130BD150F8042B51F8043B9A4209D141
:100F4000A2EB0C03934313EACC13DBD04FF0000069
:100F5000704700BFD01A01BAB1FA81F101F018014F
:100F600022FA01F0CB40C1F12001DBB2C0B2C01ABD
:100F70002CFA01F3D11A914311EAC311E6D170475B
:100F80002DE9FF4F1F464FF03C0987B04FF000425C
:100F9000DDE9141001F10108DDF858A002EA405023
:100FA0000390002005908346054604460490B969E5
:100FB000461E08988847AAF1010A0290BAF1000F6C
:100FC0003BDD02982E2815D01021FFF793FC002856
:100FD0002EDB4FF0010B0599014317D0B9F1000F3B
:100FE0000BDB4A46C11700F0F5F905430C43A9F1A4
:100FF000040905E0012004900BE008B145F001056B
:1010000001200590049820B9361D02E0049800B133
:10101000361FB969089808F101088847BBF1000F2D
:10102000AAF1010A0290C9D00999C1F80080C5E768
:101030000298702808D0502806D0F9690898884787
:10104000BBF1000F14D04FE0002002900120BBF153
:10105000000F049009D0B969089808F10108884781
:10106000AAF10109B9F1000F07DCF969089888476E
:101070006FF001000BB0BDE8F08F2B2804D02D28B5
:101080000CD14FF0FF300490B969089808F10108BD
:101090008847A9F10109B9F1000FE6DD411CE4D050
:1010A0000A21FFF727FC0028DFDB029908F101087D
:1010B00001EB810100EB41000290B9690898884773
:1010C0000A21FFF717FC099AA9F10109B9F1000FEC
:1010D000C2F8008001DD0028E7DAF969089888473E
:1010E0000499029800FB016655EA040004D004F05C
:1010F0004041090002D006E0039898E0A40044EAC9
:101100009574AD00B61E04F00041080002D16D19BF
:101110006441761E159810F0240F03D04FF00B0990
:101120005C4803E04FF028096FF07D008246564589
:1011300007DAAAEB06018944B9F1410F01DD4FF04E
:10114000410901200021A9F1010200F043F9024602
:1011500028400B462140084301D0012100E0002136
:10116000501E029143F1FF3128402140084301D035
:10117000012000E000200299834651EA0B014FD084
:10118000002108464FF00000039900F4400039B1F7
:1011900000EB80004FF4400100EBD07001EA6000EA
:1011A0008015012802DD4FF0FF3000E013D0401C15
:1011B00036D0029860B3BBF1000F0CD14A46012033
:1011C000002100F007F928402140084301D0012008
:1011D00000E00020E0B101204A46002100F0FAF8CA
:1011E000034640190A4661412D1A8C4111D3B9F1C9
:1011F000400F09DD159810F0240F02D0AAF1340633
:1012000003E0AAF1170600E0761C00254FF0004429
:1012100006E05B1E42F1FF3220EA030521EA0204E8
:10122000CAF10100B04206DA1B4903980843019055
:10123000002000900EE0039AC4F3D321E80A0A4389
:10124000164940EA44500A433146CDE90002684657
:1012500002F033FB159810F0240F0BD01598C0073F
:1012600015D13868DDE90012031D3B600068C0E954
:1012700000120CE002A8694602F016FB1598C007A0
:1012800005D13868029A011D396000680260404645
:10129000F0E6000002FCFFFF0000F07F0000F03FDE
:1012A0002DE9FF4F92461D4685B04FF00041DDE924
:1012B000124BDDE914727F1E01EA4B50414940F0A8
:1012C000FF4940EA0108002122F02000492804914A
:1012D00002D04E2828D04CE03BA0012607C88DE85C
:1012E0000700A9690698641C88477F1E014606D43A
:1012F0001DF8060018B121F0200181420BD0E969E8
:1013000006988847032E34D0082E32D06FF00100A3
:1013100009B0BDE8F08F761C032E01D0082EE0D175
:10132000601CCAF80000DCE7A9690698641C8847BD
:101330007F1E2AD420F02000412826D1A9690698D2
:10134000641C88477F1E20D420F020004E281CD12A
:10135000A9690698641C88477F1E48F4002849F450
:101360008009CAF8004001D4282806D0E969069807
:1013700088475FEACB7012D022E0A9690698641C06
:1013800088477F1E01D4002803DAE9690698884758
:10139000BCE72928F1D1641CCAF80040E9E71BF03A
:1013A000240F07D028680499031D2B600068C0E94A
:1013B000001805E02868021D2A600068C0F8009047
:1013C0002046A5E70000F07F494E46494E49545952
:1013D00000000000B2F120030AD5C2F1200301FA97
:1013E00002F120FA03F300FA02F041EA0301704728
:1013F00000FA03F14FF00000704720F07F4C80EAC4
:10140000030023F07F47ACEB070303F57C5300F0A8
:10141000004003F1FF032DE980494FEA154B09B461
:101420004FEA144325EA0B4E24EA03480FF2042640
:1014300006EB132749083E785FEA320203FB066792
:10144000C7F5000707FB06F64FEA54374FEAD646C2
:1014500006F1020607FB066CCCF1005C4FEA1C4764
:101460002CEA074C07FB06F40CFB06F504EB1546CB
:101470004FEA961634BF00204FF000404FEAD137B4
:1014800006FB07FC4FEA1C4C0CFB0BF7D21B03FBC3
:101490000CF761EB07010CFB0EF7B0EB074072EBAA
:1014A00017420CFB08F734BFA2EB0742B2EB07422E
:1014B00061EB17414FEA0C444FEA910706FB07FC2A
:1014C0004FEA1C4C0CFB0BF7B0EBC74072EB5732EA
:1014D00003FB0CF734BFA2EBC742B2EBC74261EB90
:1014E00057310CFB0EF7B0EBC70072EB57720CFBD9
:1014F00008F734BFA2EBC702B2EBC70261EB57712A
:10150000039F4FEA816141EA921104EBCC044FEA58
:10151000D1374FEA826206FB07FC42EA90124FEA9B
:1015200080604FEA1C4C0CFB0BF7D21B03FB0CF743
:1015300061EB07010CFB0EF7B0EB074072EB1742B3
:101540000CFB08F734BFA2EB0742B2EB074261EB9A
:1015500017414FEA8C554FEA910704EB9C2406FB98
:1015600007FC4FEA1C4C0CFB0BF7B0EBC74072EBCF
:10157000573203FB0CF734BFA2EBC742B2EBC742B2
:1015800061EB57310CFB0EF7B0EBC70072EB5772F3
:101590000CFB08F734BFA2EBC702B2EBC70261EB4A
:1015A000577115EB4C254FEA816141EA92114FEAE0
:1015B00082624FEAD13742EA901206FB07FC44F1FF
:1015C00000044FEA80604FEA1C4C0CFB0BF7D21B67
:1015D00003FB0CF761EB07010CFB0EF7B0EB0740C8
:1015E00072EB17420CFB08F734BFA2EB0742B2EBD9
:1015F000074261EB174115EB1C154FEA813141EAB7
:1016000092414FEA823242EA90424FEA80304FEAFA
:101610000C7644F1000448EA03434EEA0B484FF0CD
:10162000000EB2EB080C71EB030724BF624639468B
:101630004EEB0E0E4FF0000B0018524149414BEBA0
:101640000B0BB2EB080C71EB03077BF1000B24BF13
:10165000624639464EEB0E0E4FF0000B0018524119
:1016600049414BEB0B0BB2EB080C71EB03077BF121
:10167000000B24BF624639464EEB0E0E51EA0207BC
:1016800018BF46F0010616EB0E7655F1000254F134
:10169000000103D5BDE88901BDE80088BDE88901E6
:1016A000BDE80048B619524141EB0101A3F1010325
:1016B000704780807F7E7D7C7B7A797877767675BF
:1016C0007473727171706F6E6E6D6C6C6B6A6A6937
:1016D0006868676666656464636362616160605FD1
:1016E0005F5E5E5D5D5C5C5B5B5A5A59595858574A
:1016F00057565655555554545353525252515150B2
:1017000050504F4F4F4E4E4D4D4D4C4C4C4B4B4B04
:101710004A4A4A494949484848474747474646464A
:101720004545454444444443434343424242424185
:101730004141000046EA0646A3F570534FEA1646BB
:1017400046EA42564FEAD22242EA415210B54FEAE7
:10175000D121A3F1010300F02FF820F0004000F1A7
:10176000020C00F0004701EB00501146BCF5006F81
:1017700040EA070000D210BDBAF1000F0AD01CB534
:1017800003B44FF004004FF004014FF000000FBC11
:10179000BDE810404FF00001BBF1010FB9BF044894
:1017A0004FF0FF310348002140EA070010BD00BFA1
:1017B000FFFFEF7F0000F07F002B9C4630D47700C6
:1017C0002BD01CB54FEA370703B44FF010004FF091
:1017D0001001BAF1000F06D0BCF1000FDCBF40F0E1
:1017E000080040F008014FF000000FBCBDE81040B9
:1017F0000BF1010BBBF1010F08BF5FEA170722BF16
:1018000012F1010211F101014FF0004143F1000317
:1018100000F0004043EA00007047F9D35708D0E7D2
:1018200046EA064613F1400F4FEA16461FDD13F154
:10183000200FDFBF16430A46002120335B42BED093
:10184000C3F1200746EA064602FA07F74FEA1646B2
:1018500046EA0706C3F1200722FA03F201FA07F766
:1018600021FA03F14FF0000342EA0702A7E746EA34
:10187000020646EA06464FEA164646EA0106BCBF9D
:1018800046EA0646360C4FF000034FF000024FF0D8
:10189000000194E72DE9804C9A46934670B491E894
:1018A000380007C831EA400C48BF34EA430C03D57E
:1018B000FFF7A3FDFFF780FFF0BCBDE8008C2DE92A
:1018C000804C9A46934670B491E8380007C831EAD4
:1018D000400C48BF34EA430C03D5FFF78EFDFFF7F9
:1018E00029FFF0BCBDE8008C2DE9804C9A46934658
:1018F00070B491E8380007C810F0804F08BF13F0AB
:10190000804F03D100F01AF8FFF756FFF0BCBDE896
:10191000008C2DE9804C9A46934670B491E83800CB
:1019200007C810F0804F08BF13F0804F03D100F0BC
:1019300005F8FFF7FFFEF0BCBDE8008C20F07F4704
:1019400080EA030023F07F4C07EB0C03A3F57C53E4
:1019500000F00040A3F1FE0392F0000F00F0B3800E
:1019600095F0000F00F077802DE901494FEA114012
:101970004FEA144621EA004800FB06FC24EA064729
:1019800008FB06F607FB08F800FB07F718EB06480C
:101990004CEB164C4FEA124B18EB07484FEA154632
:1019A0004CEB174022EA0B4E0BFB06FC25EA0647E0
:1019B0000EFB06F607FB0EFE0BFB07F71EEB064EB3
:1019C0004CEB164C4FF000061EEB074E4CEB174B42
:1019D00018EB0B0840F1000018EB0E0B58EB000859
:1019E00040F100008F1A4FF000013CBFC943661B55
:1019F00014BFB5EB040C00213CBFC943F61B4FEAF2
:101A000017444EEA8E0E27EA04454FEA1C4704FBB2
:101A100007622CEA074C05FB07F70CFB05F604FBF5
:101A20000CFC16EB074642EB174216EB0C4642EB5A
:101A30001C421BEB060658EB0202414146EA9E0699
:101A400001D5BDE80189B619524141EB0101A3F16D
:101A50000103BDE801894FEA14454FEA114724EA22
:101A6000054621EA074C05FB07F406FB07F70CFBCC
:101A700006F105FB0CFC11EB074144EB17444FEA60
:101A8000124711EB0C4144EB1C4422EA074C05FBC6
:101A900007F206FB07F70CFB06F605FB0CFC16EB42
:101AA000074642EB174216EB0C4642EB1C456A1800
:101AB00054F1000148BF7047B619524141EB010192
:101AC000A3F10103704795F0000F37D04FEA1142A0
:101AD0004FEA144721EA024624EA074C02FB07F1C9
:101AE00006FB07F70CFB06F402FB0CFC14EB0744A7
:101AF00041EB17414FEA154714EB0C4441EB1C41F5
:101B000025EA074C02FB07F506FB07F70CFB06F678
:101B100002FB0CFC16EB074645EB174516EB0C4693
:101B200045EB1C42121951F1000148BF7047B6192C
:101B3000524141EB0101A3F1010370474FEA144503
:101B40004FEA114724EA054621EA074C05FB07F155
:101B500006FB07F70CFB06F24FF0000605FB0CFC3A
:101B600012EB074241EB174112EB0C4251EB1C41C7
:101B700048BF7047921841EB0101A3F10103704780
:101B80001CB50121084600F08DFC0121022000F067
:101B900089FC0121042000F085FC0121082000F0CF
:101BA00081FC0121102000F07DFC0121402000F08B
:101BB00079FC012000908DF8040000208DF80600CB
:101BC00003208DF8050002208DF807006946BF4804
:101BD00000F0A2FB0121BD4800F012FC4FF4807020
:101BE000009001208DF8040000208DF806000320ED
:101BF0008DF8050002208DF807006946B44800F012
:101C00008BFB4FF48071B24800F0FAFB4FF4007088
:101C1000009001208DF8040000208DF806000320BC
:101C20008DF8050002208DF807006946A84800F0ED
:101C300073FB4FF40071A64800F0E2FB8020009097
:101C400001208DF8040000208DF8060003208DF897
:101C5000050002208DF8070069469D4800F05CFBF6
:101C600080219B4800F0CCFB4FF480600090012065
:101C70008DF8040000208DF8060003208DF8050083
:101C800002208DF807006946914800F045FB4FF4AB
:101C900080618F4800F0B4FB4FF400600090012099
:101CA0008DF8040000208DF8060003208DF8050053
:101CB00002208DF807006946854800F02DFB4FF49F
:101CC0000061834800F09CFB4FF4804000900120AD
:101CD0008DF8040000208DF8060003208DF8050023
:101CE00002208DF807006946794800F015FB4FF493
:101CF0008041774800F084FB4FF4005000900120B1
:101D00008DF8040000208DF8060003208DF80500F2
:101D100002208DF8070069466D4800F0FDFA4FF487
:101D200000516B4800F06CFB4FF480500090012094
:101D30008DF8040000208DF8060003208DF80500C2
:101D400002208DF807006946614800F0E5FA4FF47B
:101D500080515F4800F054FB4FF4807000900120E8
:101D60008DF8040000208DF8060003208DF8050092
:101D700002208DF807006946564800F0CDFA4FF46E
:101D80008071544800F03CFB8020009001208DF8C9
:101D9000040000208DF8060003208DF805000220C5
:101DA0008DF8070069464C4800F0B6FA80214A4891
:101DB00000F026FB4020009001208DF80400002058
:101DC0008DF8060003208DF8050002208DF807002D
:101DD0006946424800F0A0FA4021404800F010FB5C
:101DE0004020009001208DF8040000208DF80600AE
:101DF00003208DF8050002208DF807006946384859
:101E000000F08AFA4021364800F0FAFA4FF4804098
:101E1000009001208DF8040000208DF806000320BA
:101E20008DF8050002208DF807006946274800F06C
:101E300073FA4FF48041254800F0E2FA80200090C8
:101E400001208DF8040000208DF8060003208DF895
:101E5000050002208DF807006946204800F05CFA72
:101E600080211E4800F0CCFA4FF4807000900120D1
:101E70008DF8040000208DF8060003208DF8050081
:101E800002208DF807006946144800F045FA4FF427
:101E90008071124800F0B4FA4FF4007000900120F5
:101EA0008DF8040000208DF8060003208DF8050051
:101EB00002208DF807006946084800F02DFA4FF41B
:101EC0000071064800F09CFA1CBD000000040240AE
:101ED00000100240000C02400000024000080240D6
:101EE0000018024000BFFEE739B1084A126801231A
:101EF00083401A43054B1A6006E0044A1268012326
:101F000083409A43014B1A60704700000074004000
:101F100030B5002200230A4C226840F6FE7484404B
:101F2000A243D1E900452C438D682C43CD6844EA97
:101F3000050303FA00F42243014C226030BD000087
:101F40000074004008B500220092054A009200F19A
:101F50000802009B1A440092009A116008BD00001C
:101F60000074004008B500220092054A009200F17A
:101F70001402009B1A440092009A116008BD0000F0
:101F80000074004000B587B00121084600F08AFACD
:101F90000121480700F096FA1020059003208DF8E3
:101FA000180002208DF81B0005A90B4800F0B4F9B9
:101FB00000200190029003900220049001A90020CB
:101FC000FFF7A6FF01210020FFF78EFF0021084642
:101FD000FFF7B8FF07B000BD0000024000B587B0B2
:101FE0000121084600F05EFA0121480700F06AFA74
:101FF0002020059003208DF8180002208DF81B008A
:1020000005A90B4800F088F9002001900290039088
:102010000220049001A91020FFF77AFF012110206F
:10202000FFF762FF00210846FFF79CFF07B000BDE5
:1020300000000240704710B50A2001F06FFC01203B
:1020400000F014F9012000F00BF910BD10B50A20C2
:1020500001F064FC022000F009F9022000F000F910
:1020600010BD10B50A2001F059FC042000F0FEF864
:10207000042000F0F5F810BD10B50A2001F04EFC68
:10208000082000F0F3F8082000F0EAF810BD10B5C1
:102090000A2001F043FC102000F0E8F8102000F0C6
:1020A000DFF810BD10B5202000F0E0F8012805D1C0
:1020B0000A2001F033FC202000F0D2F8402000F08C
:1020C000D5F8012805D10A2001F028FC402000F0B5
:1020D000C7F8802000F0CAF8012805D10A2001F0D5
:1020E0001DFC802000F0BCF810BD000000B585B0DC
:1020F0000121084600F0D6F90121042000F0D2F9B0
:102100004F20039000208DF8100003208DF811005F
:1021100001208DF8130003A94F4800F0FDF80E20B0
:10212000039000208DF8100003208DF8110001208D
:102130008DF8130003A9494800F0EEF80121880347
:1021400000F0D0F90021032000F0E6FA012103207D
:1021500000F0E2FA0221032000F0DEFA0321084633
:1021600000F0DAFA0421032000F0D6FA052103205A
:1021700000F0D2FA0621032000F0CEFA0721032056
:1021800000F0CAFAFF20019000208DF808000C2012
:102190008DF8090001208DF80A0001A800F072F8FE
:1021A00006208DF8000000208DF8010002208DF837
:1021B000020001208DF80300684600F02BF907208B
:1021C0008DF8000001208DF8010002208DF802003A
:1021D00001208DF80300684600F01CF908208DF8F6
:1021E000000002208DF801008DF8020001208DF81A
:1021F0000300684600F00EF909208DF80000032066
:102200008DF8010002208DF8020001208DF80300F6
:10221000684600F0FFF80A208DF8000004208DF8D1
:10222000010002208DF8020001208DF803006846AD
:1022300000F0F0F817208DF8000005208DF801005F
:1022400002208DF8020001208DF80300684600F09E
:10225000E1F805B000BD00000000024000080240A7
:102260000149086070470000143C0140014600200D
:10227000034A12680A400AB1012000E000207047BA
:10228000143C0140002123498279002A3AD00A46B1
:10229000126803689A430B461A600A1D12680368A5
:1022A0009A430B1D1A60027911440A6803681A43A5
:1022B0000A60184A0832126803689A43154B0833BB
:1022C0001A601A1D126803689A43124B0C331A6085
:1022D0004279102A0ED11A1F126803681A430D4B57
:1022E00008331A601A1D126803681A43094B0C332D
:1022F0001A600DE00749427911440A6803681A43DD
:102300000A6005E0027911440A6803689A430A608A
:1023100070470000003C0140F0B50A460021002350
:10232000002400BF3DE0012505FA01F3156805EA28
:1023300003049C4234D105684F000326BE40B543D8
:10234000056015794E00B54006683543056015797E
:10235000012D02D01579022D16D185684F00032674
:10236000BE40B543856055794E00B540866835431B
:102370008560456801268E40B5434560456896797D
:102380008E40B6B235434560C5684F000326BE4057
:10239000B543C560D5794E00B540C6683543C560C4
:1023A000491C1029BFD3F0BDF0B5002300244D0710
:1023B000ED0E02FA05F3CE1000F1200555F8265077
:1023C0004E07F70E0F26BE40B543CF1000F1200692
:1023D00046F82750CE1000F1200555F8265045EA62
:1023E0000304CE1000F1200545F82640F0BD02465A
:1023F000002013690B400BB1012000E00020704762
:10240000418370470183704700BFFEE700BFFEE7CE
:102410007047000070B5002100230F22C4781CB360
:10242000174C246804F4E064C4F5E064C4F30721A5
:10243000C1F10404E3B20A4144789C40E1B28478DB
:10244000144021430C07210E0E4C05786155047889
:1024500004F01F050124AC4005786D11AD0005F1B5
:10246000E025C5F8004109E0047804F01F050124C7
:10247000AC40054D0678761145F8264070BD000049
:102480000CED00E000E400E080E100E002490143DF
:10249000024A1160704700000000FA050CED00E0F0
:1024A0007047000029B1064A12680243044B1A60C3
:1024B00004E0034A12688243014B1A60704700002F
:1024C0003038024029B1064A12680243044B1A60B0
:1024D00004E0034A12688243014B1A60704700000F
:1024E0004038024029B1064A12680243044B1A6080
:1024F00004E0034A12688243014B1A6070470000EF
:1025000044380240F0B500210022002402250026B4
:102510000223324F3F6807F00C0121B1042905D096
:10252000082937D105E02E4F076036E02D4F0760B0
:1025300033E02A4F3F1F3F68C7F38056274F3F1FA6
:102540003F6807F03F036EB1264FB7FBF3F7DFF8A4
:102550008CC0ACF1040CDCF800C0CCF3881C07FB89
:102560000CF40CE01E4FB7FBF3F7DFF870C0ACF1D2
:10257000040CDCF800C0CCF3881C07FB0CF4174FEC
:102580003F1F3F68C7F301477F1C7D00B4FBF5F791
:10259000076002E0124F076000BF00BF0F4F3F68A7
:1025A00007F0F0010909104F7A5C0768D7404760CF
:1025B0000A4F3F6807F4E051890A0B4F7A5C47687D
:1025C000D7408760054F3F6807F46041490B064FCD
:1025D0007A5C4768D740C760F0BD00000838024009
:1025E0000024F40000127A002200002000B589B017
:1025F00001212020FFF756FF01214804FFF772FF59
:102600004020079002208DF8200000208DF8220045
:1026100003208DF8210002208DF8230007A921480E
:10262000FFF77AFE032206211E48FFF7BDFEA72012
:10263000ADF80C000020ADF80E00401E0490002004
:10264000ADF8140003A9184800F080FE0020ADF892
:102650000000ADF802000120ADF804000020ADF844
:1026600006000320ADF8080069460F4800F0A3FCFF
:10267000012203210C4800F0D5FC01210A4800F09A
:102680006BFC19208DF8180001208DF8190003202B
:102690008DF81A0001208DF81B0006A8FFF7BAFE7E
:1026A00009B000BD001402400044014010B50020F4
:1026B000154B1B7803F040032BB3144B1B68190E0A
:1026C000124B1B68C3F30742D343DBB28B420BD1DF
:1026D00051B90E4B1B88C3F307210C4B1A78D34317
:1026E000DBB28B4200D1084620B1074B1B7803F0C8
:1026F000800343B9044B1B7823F04003024C237042
:102700000023034C237010BD0C000020100000209B
:10271000140000207047000030B500228B071C0F0A
:102720000F2303FA04F20B4B8C1053F8243093431D
:10273000084C8D1044F8253023468C1053F8243073
:102740008C07240F00FA04F42343024C8D1044F844
:10275000253030BD083801400CB5002001900090B4
:102760003448006840F480303249086000BF314886
:10277000006800F4003000900198401C019000981F
:1027800018B90198B0F5A04FF1D12A48006800F4BB
:10279000003010B10120009001E00020009000986E
:1027A000012846D123484030006840F0805021493C
:1027B000403108602048006840F440401E490860ED
:1027C0001C48083000681B4908310860084600684A
:1027D00040F4004008600846006840F4A0500860DB
:1027E0001648091F0860081F006840F08070091F24
:1027F000086000BF0F48006800F000700028F9D0A2
:1028000040F205700E4908600A480830006820F060
:1028100003000849083108600846006840F00200DB
:10282000086000BF03480830006800F00C0008286A
:10283000F8D10CBD00380240007000400854400739
:10284000003C0240042808D14FF0E021096941F022
:1028500004014FF0E022116107E04FF0E021096927
:1028600021F004014FF0E022116170477047000031
:1028700010B51548006840F470001349086013480B
:10288000006840F001001149086000200F4908313C
:1028900008600E4800680E4908400C4908600D4861
:1028A000091D0860081F006820F48020091F0860C7
:1028B000002006490C310860FFF74EFF4FF0006022
:1028C00001498039086010BD88ED00E00038024001
:1028D000FFFFF6FE10300024F0B50C46154600212F
:1028E0000022068C4FF6FE773E400684018B028C58
:1028F0004FF60C7631407E1C06EA03162E43314318
:102900004FF6F576324044F00106324301830284EB
:10291000F0BDF0B50C461546002100220026078CBC
:102920004FF6EF7C07EA0C070784018B028C4FF609
:10293000FF7707EA041640F6FF4739404FF6FF7766
:1029400007EA033739434FF6FF7707EA052739438C
:102950004FF65F773A4046F010073A43018302840E
:10296000F0BDF0B50C461546002100220026078C6C
:102970004FF6FF6C07EA0C070784818B028C4FF639
:10298000FF7707EA04264FF60C7739404FF6FF77BA
:1029900007EA03172F4339434FF2FF573A4046F4F3
:1029A00080773A4381830284F0BDF0B50C4615462A
:1029B000002100220026078C4EF6FF7C07EA0C0758
:1029C0000784818B028C4FF6FF7707EA043640F6C6
:1029D000FF4739404FF6FF7707EA052739434FF69F
:1029E000FF7707EA0337394345F6FF773A4046F465
:1029F00080573A4381830284F0BD000030B58BB02C
:102A000004460D4601210846FFF76CFD0121102008
:102A1000FFF748FD012208213D48FFF7C5FC0122D0
:102A200009213B48FFF7C0FC01220A213848FFF783
:102A3000BBFC01220B213648FFF7B6FC01220C211A
:102A40003348FFF7B1FC01220D213148FFF7ACFC00
:102A50004FF47C50099002208DF8280000208DF85A
:102A60002A008DF82B0003208DF8290009A9284899
:102A7000FFF752FCA8B2ADF818000020ADF81A001C
:102A80000794ADF820008DF8220006A9214800F037
:102A90005DFC6020ADF804000120ADF806000420C4
:102AA000ADF80800601C400803900020ADF810004D
:102AB000ADF812004FF48070ADF814000020ADF8AE
:102AC000160001A9134800F0B7FA01A9114800F057
:102AD00003FB01A90F4800F05FFB08210D4800F03F
:102AE000F2FA08210B4800F049FB0821094800F0E0
:102AF000A3FB0121074800F01DFA0121054800F061
:102B00002BFA0121034800F033FA0BB030BD00006E
:102B1000001002400000014010B501215E4800F0A5
:102B200039FAF8B15D48007800F08000D0B15B4818
:102B3000007820F01000594908700846007800F02D
:102B40000F0020B90846007840F040000870534854
:102B5000007800F00F000E2805DA50480078401C7D
:102B60004E4908700AE04D48007820F080004B493B
:102B700008700846007800F0F0000870022146480E
:102B800000F008FA002810D04548006870B1022112
:102B9000414800F08FFA00213F4800F0A8FB3F4871
:102BA000007840F010003D49087070E03A4800F0AD
:102BB000EEF93C4908800021374800F07BFA37489D
:102BC000007800F0100000285BD03448007800F056
:102BD0008000E8B333480088B0F5967F0DDD3148BA
:102BE0000088B0F5487F08DA2F48006840002E4979
:102BF000086008460068086043E02A480088B0F58D
:102C0000AF6F0FDD27480088B0F5E16F0ADA26487C
:102C100000684000244908600846006840F0010050
:102C200008602EE01F48008840F69801884228DDA1
:102C30001C48008840F62821884222DA1B48007888
:102C4000401C1A4908701548007800F0F00000E0B8
:102C500002E01249087014E01248008841F268014D
:102C600088420EDD0F48008841F25C21884208DA74
:102C70000A48007840F080000849087000200B499D
:102C800008700648007820F01000044908700321FD
:102C9000014800F05BF910BD004401400C00002029
:102CA000188242420E000020100000201400002074
:102CB00010B53048007800F08000002854D1012180
:102CC0002D4800F067F9D0B12A48007800F04000A4
:102CD000A8B12848007800F03F003F280AD12548D5
:102CE000007840F08000234908704FF0FF302349FE
:102CF000086004E01F480078401C1E49087002214B
:102D00001D4800F047F978B31A48007800F04000F9
:102D100078B11848007840F08000164908701648CD
:102D200000F035F9154908600021134800F0C2F998
:102D30001AE000200F490870104908600D4800781B
:102D400040F040000B49087000210B4800F004F9E6
:102D50000021094800F0CBFA0221074800F0AAF947
:102D60000121054800F0F8F80321034800F0F1F8CC
:102D700010BD000004000020000C004008000020EE
:102D800010B50121094800F005F968B1084800882C
:102D900040F40040064908800121044800F0D9F8B9
:102DA0000021024800F0D8F810BD000000140040D7
:102DB0000000002030B58BB004460D4601210220F2
:102DC000FFF790FB01210846FFF76CFB0121022071
:102DD000FFF768FB01210420FFF764FB03220721B2
:102DE0005048FFF7E1FA03220E214F48FFF7DCFAC3
:102DF000032206214D48FFF7D7FA032207214B484B
:102E0000FFF7D2FA032209214848FFF7CDFA8020C4
:102E1000099002208DF8280000208DF82A008DF8F6
:102E20002B0003208DF8290009A93E48FFF774FA0A
:102E30004FF48040099002208DF8280000208DF882
:102E40002A008DF82B0003208DF8290009A93648A7
:102E5000FFF762FA4FF43070099002208DF82800D5
:102E600000208DF82A008DF82B0003208DF8290012
:102E700009A92E48FFF750FAA8B2ADF818000020B3
:102E8000ADF81A000794ADF820008DF8220006A9CD
:102E9000274800F05BFA6020ADF804000120ADF88F
:102EA00006000420ADF80800601C400803900020D4
:102EB000ADF81000ADF812004FF48070ADF81400BA
:102EC0000020ADF8160001A9194800F0B5F801A9D5
:102ED000174800F001F901A9154800F05DF901A9B2
:102EE000134800F0B3F90821114800F0ECF808216C
:102EF0000F4800F043F908210D4800F09DF9082122
:102F00000B4800F0DFF90121094800F013F8012116
:102F1000074800F021F80121054800F029F80BB01E
:102F200030BD0000000002400004024000080240E2
:102F30000004014021B1028842F08002028004E0D6
:102F400002884FF67F731A4002807047CA4302829C
:102F50007047CA430282704721B1028842F00102E1
:102F6000028004E002884FF6FE731A400280704728
:102F700031B1B0F8442042F40042A0F8442005E00A
:102F8000B0F84420C2F30E02A0F844207047014676
:102F9000486B704730B50246002000230024158A94
:102FA00005EA0103958905EA010413B10CB101207A
:102FB00000E0002030BD70B505460C46208850B9B1
:102FC0002389A28861882846FFF786FCE188284685
:102FD00000F08FF925E0208804280AD12389A288EF
:102FE00061882846FFF795FCE188284600F08AF9B9
:102FF00017E0208808280AD12389A28861882846FA
:10300000FFF7AFFCE188284600F089F909E0238941
:10301000A28861882846FFF7C8FCE188284600F0AE
:1030200087F970BD1AB183890B43838102E08389DC
:103030008B4383817047000070B500240022002379
:10304000058C4FF6FE7635400584028C8388048B10
:103050004FF68F752C40B51E2C400D882C43751EE5
:103060002A408D892A434D882A43104DA84202D018
:103070000F4DA84213D14FF6F7752A40CD892A4348
:103080004FF6FB752A408D882A434FF6FF652B408B
:103090004FF6FF552B400D8A2B434D8A2B438380DF
:1030A00004838D684563028470BD00000000014008
:1030B000000401400A460021018C4FF6FD731940BF
:1030C0001143018470470A460021018B4FF6F773C4
:1030D000194011430183704770B50024002200237A
:1030E000058C4FF6EF7635400584028C8388048B7F
:1030F00048F6FF752C404FF6FF452C400D884FF6E3
:10310000FF7606EA05252C434FF6DF752A408D89A8
:1031100006EA05152A434D8806EA05152A43154D8A
:10312000A84202D0144DA8421DD14FF67F752A4007
:10313000CD894FF6FF7606EA05152A434FF6BF758F
:103140002A408D8806EA05152A434FF6FF352B40A5
:103150004FF2FF752B400D8A06EA85052B434D8AF9
:1031600006EA85052B43838004838D68856302848A
:1031700070BD000000000140000401400A4600212B
:10318000018B4FF2FF7319404FF6FF7303EA0223DE
:10319000194301837047000070B50024002200230A
:1031A000058C4FF6FF6635400584028C8388848B3E
:1031B0004FF68F752C404FF6FC752C400D882C4334
:1031C0004FF6FF552A408D894FF6FF7606EA052512
:1031D0002A434D8806EA05252A43154DA84202D008
:1031E000144DA8421DD14FF2FF752A40CD894FF6EC
:1031F000FF7606EA05252A434FF6FF352A408D88DB
:1032000006EA05252A434EF6FF752B404DF6FF755D
:103210002B400D8A06EA05152B434D8A06EA051553
:103220002B43838084838D68C563028470BD000056
:1032300000000140000401400A460021818B4FF646
:10324000F7731940114381837047000070B5002265
:1032500000230024058C4EF6FF7635400584038C50
:103260008488828B48F6FF752A404FF6FF452A4036
:103270000D884FF6FF7606EA05252A434DF6FF75C1
:103280002B408D8906EA05352B434D8806EA053526
:103290002B430A4DA84202D0094DA84208D14BF653
:1032A000FF752C400D8A4FF6FF7606EA85152C43F4
:1032B000848082838D680564038470BD00000140B2
:1032C000000401400A460021818B4FF2FF73194030
:1032D0004FF6FF7303EA022319438183704741636A
:1032E000704781637047C1637047016470474162F2
:1032F0007047028B4FF6F3731A400283028B0A4326
:1033000002837047028B4FF2FF331A400283028B15
:103310004FF6FF7303EA01231A4302837047828B3F
:103320004FF6F3731A408283828B0A43828370477D
:10333000828B4FF2FF331A408283828B4FF6FF73EA
:1033400003EA01231A4382837047000000220288A7
:10335000184B98420ED0184B98420BD0B0F1804FCA
:1033600008D0164B984205D0154B984202D0154B09
:10337000984204D14FF68F731A404B881A43124B70
:10338000984207D0114B984204D04FF6FF431A40A1
:103390000B891A4302804B68C3620B880385054B77
:1033A000984202D0044B984201D18B7A03860123C4
:1033B0008382704700000140000401400004004087
:1033C00000080040000C00400010004000140040C5
:1033D00010B540F225511D4800F082F810B31B488B
:1033E00000F038F9C4B21A48008800F40040C8B9A7
:1033F0001748008800F4804060B10A2C03D00020F8
:103400001349088020E01248008840F40040104929
:10341000088019E00D2C06D10D48008840F480404A
:103420000B49088010E00A480088C0F30D000949E4
:103430000C5407480088401C05490880084600884D
:10344000C72801DD0020088010BD000000100140E9
:10345000200000205803002010B540F225511648E6
:1034600000F03EF800B3144800F0F4F8C4B213487A
:10347000008800F40040B8B910480088B0F5C87F53
:1034800013DA00210E48FFF732FF0C48008818B904
:1034900001210B48FFF760FD084801880088401CA7
:1034A000064A10800748445405E00448008840F468
:1034B00000400249088010BD004800400000002084
:1034C00000140040C801002021B1828942F400525A
:1034D000828104E082894DF6FF731A408281704731
:1034E00070B50246002400230025002040F66A162D
:1034F000B14200D100BFC1F3421501F01F03012604
:1035000006FA03F3012D02D19689334006E0022D1D
:1035100002D1168A334001E0968A33400C1201260C
:1035200006FA04F41688344013B10CB1012000E00F
:10353000002070BDF0B503460024002600250020C1
:1035400040F66A17B94200D100BF1846C1F34214D1
:1035500001F01F06012707FA06F5012C01D10C30F6
:1035600004E0022C01D1103000E014301AB10768D9
:103570002F43076002E00768AF430760F0BD00001B
:103580002DE9FF4705460E460024A14600BFA04690
:10359000B08900B100BF2C8A24F44054F088044361
:1035A0002C82AC8941F20C608443B0883189084395
:1035B000718908430443AC81AC8A24F44074B08917
:1035C0000443AC826846FEF79DFF2048854202D046
:1035D0001F48854202D1DDF80C9001E0DDF808902B
:1035E000A88900F4004040B109EBC90000EB0910C4
:1035F00031684900B0FBF1F707E009EBC90000EBC7
:10360000091031688900B0FBF1F76420B7FBF0F0D6
:1036100004012009642101FB1078A88900F400400E
:1036200040B1322000EBC800B0FBF1F000F0070021
:10363000044308E0322000EB08106421B0FBF1F0F5
:1036400000F00F0004432C81BDE8FF87001001400B
:103650000014014001468888C0F30800704700BF8D
:10366000FEE700000000000030B52DED048B81B0B6
:10367000B0EE408AF0EE608A6A4651EC180B00F01A
:103680009FF900989FED329B7E300090002821DC4E
:1036900053EC192B51EC180B01F01AF91AD0002138
:1036A00040F608004FF00000044651EC180B01F002
:1036B00021F808EE100A40F6080004EA00014FF075
:1036C0000000B5EEC08AF1EE10FA04BF0220FCF74C
:1036D0000CFF2DE00098FF2830DB002108464FF05A
:1036E000000000F4400553EC192B51EC180B01F0CD
:1036F0007DFA8CBF002401240220FCF7F6FE9FED2A
:10370000168A4DB1002C0CBF4FF400004FF480001E
:10371000A84218BF9FED118A042108464FF000000F
:10372000002C01BFB1EE480A01B0BDEC048B30BDE6
:10373000B0EE480A01B0BDEC048B30BD51EC180B63
:1037400000F0D8FF01B000EE100ABDEC048B30BDD4
:1037500000000000000000000000807FFFFF7F7F6E
:1037600030B583B00446FCF7BBFE9FED090B054660
:103770008DED000B002221466846FCF75DFF2846D0
:10378000FCF7B3FE9DED000B03B030BD0000000060
:10379000000000000000000030B540F2FF742DED85
:1037A000048BF0EE608A18EE901A85B0B0EE408A75
:1037B0009FED2B9B05468DED008B34EA115147D0D0
:1037C00053EC192B51EC180B01F082F840D02A462B
:1037D00051EC180B01F0DAFB41EC180B18EE900AD3
:1037E0008DED008B34EA10501CD053EC192B51ECAA
:1037F000180B01F06DF82BD10220FCF776FE00F0DB
:1038000043F810EE901A18EE900A8DED020B8DED34
:10381000008B61F31E0003909DED020B05B0BDEC23
:10382000048B30BD0220FCF760FE00F01DF810EEA6
:10383000901A18EE900A8DED020B8DED008B61F35E
:103840001E0003909DED020B05B0BDEC048B30BD56
:1038500005B0B0EE480AF0EE680ABDEC048B30BD4E
:1038600000000000000000009FED050B10B553ECB8
:10387000102B51EC100B01F0BBF841EC100B10BDFC
:1038800000000000000000709FED050B10B553EC28
:10389000102B51EC100B01F0ABF841EC100B10BDEC
:1038A000000000000000001010B5044691ED000B70
:1038B000FFF7DAFE84ED000A10BD10B5044690ED66
:1038C000000B0846FFF768FF84ED000B10BD303891
:1038D0000A2801D2012070470020704700BF7047BE
:1038E00010B504466FF00400FEF7ACFFE11704EBDF
:1038F0005171C1F3C701074A11701046007800EBFF
:103900004001C1EBC0104FF6FF7101EAC00002494F
:10391000088010BD160000201800002070B5044675
:103920004FF4077094FBF0F0C6B24FF4077094FBAD
:10393000F0F100FB114085B205E04FF4077000F094
:1039400009F8701EC6B2002EF7D115B1284600F056
:1039500001F870BD0146114A12884A434FF0E02336
:103960005A6100229A611A46126942F001021A61F4
:1039700000BF4FF0E022106900F001021AB100F41C
:103980008032002AF5D04FF0E022126922F00102C5
:103990004FF0E0231A6100229A617047180000205E
:1039A00000BF054A128802F04002002AF9D0C2B2D4
:1039B000014B9A8070470000001001400000000099
:1039C00010B582B01446CDE900010023009A2360AF
:1039D000194B21F0004098422ADA024328D0B0F572
:1039E000801FA8BF226810DA9FED150B53EC102B37
:1039F0009DED000B51EC100B00F0FAFFCDE900013A
:103A00006FF0350221F0004022600F4B6FF31E5122
:103A100003EB20501044206041F0FF5040F0005074
:103A200001909DED000B00BF02B051EC100B10BDDA
:103A30009DED000BF8E700000000F07F00000000A3
:103A4000000000000000504302FCFFFF2DED108B32
:103A50008CB04FF4A060FEF719FDA820FFF740FFDF
:103A60004FF4165000F0C4FDFEF78AF8FEF73EFB57
:103A7000FEF7BCFDFEF786FAFEF7B0FA002400253B
:103A8000A2460026A046A72140F2F310FEF7B6FF9B
:103A9000A72140F2F310FFF78DF90121FE48FEF750
:103AA000B1FC8021FD48FEF7ADFC4FF48041FB489E
:103AB000FEF7A8FC4FF48071F948FEF7A3FC402103
:103AC000F848FEF79FFC4FF48071F748FEF79AFC28
:103AD0000021F648FFF709FCFEE30A20FFF71EFF6E
:103AE0000121F348FEF783FC20B94021F048FEF79E
:103AF0007EFC18B1FA21EF48FFF7F1FB0821EA48F4
:103B0000FEF775FC20B90821E948FEF770FC18B1F2
:103B1000FA21E848FFF7E5FB0421E348FEF767FCDC
:103B200030B1012C04D1FA21E048FFF7D8FB03247F
:103B30000421DF48FEF75BFC30B1022C04D1FA21EE
:103B4000DA48FFF7CCFB04240221D748FEF74FFCEC
:103B500030B1012D04D1FA21D448FFF7C2FB03256F
:103B60000221D348FEF743FC30B1022D04D1FA21E3
:103B7000CE48FFF7B6FB0425CF48008800F400408C
:103B8000002876D0CC4800780B90CC48007861288B
:103B900016D10121C648FEF72AFC18B1C8A0FCF7CF
:103BA00077FB0DE04FF4FA71C248FFF798FB402114
:103BB000BF48FEF71CFC18B14FF4FA70FFF7AEFED9
:103BC000BE480078622803D1FA21BA48FFF787FB84
:103BD000BA480078632815D14021B548FEF707FCA4
:103BE00018B1B8A0FCF754FB0CE00021B148FFF776
:103BF00076FB0121AE48FEF7FAFB18B14FF4FA70DC
:103C0000FFF78CFEAD480078642803D1FA21A9485B
:103C1000FFF765FBA9480078652815D10821A2485F
:103C2000FEF7E5FB18B1A8A0FCF732FB0CE04FF45F
:103C3000FA71A048FFF755FB08219D48FEF7D7FB16
:103C400010B16420FFF76AFE9C480078662803D113
:103C5000FA219848FFF745FB98480078672815D166
:103C600008219348FEF7C3FB20B198A0FCF710FB96
:103C70000CE01DE300218F48FFF733FB08218A4841
:103C8000FEF7B5FB10B16420FFF748FE8B480078C3
:103C9000682803D1FA218748FFF723FB874800787B
:103CA000692804D14FF4FA718248FFF71CFB83485E
:103CB00000786A2803D1FA217E48FFF714FB7F4879
:103CC00000786B2803D100217A48FFF70CFB7B4872
:103CD00000786C2803D1FA217648FFF704FB774877
:103CE00000786D2812D104216F48FEF780FB38B1AF
:103CF000012C01D0032C03D175A0FCF7C9FA05E013
:103D00004FF4FA716948FFF7EAFA01246B4800782A
:103D10006E2811D104216648FEF769FB38B1022CE8
:103D200001D0042C03D16BA0FCF7B2FA04E000210F
:103D30005E48FFF7D4FA0224604800786F2812D159
:103D400002215948FEF753FB38B1012D01D0032D54
:103D500003D161A0FCF79CFA05E04FF4FA715348D7
:103D6000FFF7BFFA012555480078702811D10221CC
:103D70004F48FEF73CFB38B1022D01D0042D03D192
:103D800056A0FCF785FA04E000214848FFF7A9FA9D
:103D900002254A48007831280AD100214548FFF71A
:103DA000A2FA0F20FFF7BAFDFA214248FFF79BFA6B
:103DB0004248007832280AD100213E48FFF793FAA2
:103DC0001E20FFF7ABFDFA213A48FFF78CFA3B487B
:103DD000007833280AD100213648FFF784FA2D20D5
:103DE000FFF79CFDFA213348FFF77DFA334800784E
:103DF00034280BD14FF4FA712E48FFF774FA0F20D4
:103E0000FFF78CFDFA212B48FFF76DFA2B4800785D
:103E100035280BD14FF4FA712648FFF764FA1E20BB
:103E2000FFF77CFDFA212348FFF75DFA234800786D
:103E300036280BD14FF4FA711E48FFF754FA2D20A3
:103E4000FFF76CFDFA211B48FFF74DFA1B4800787D
:103E50007A287DD100200A9021A11848FCF732FB76
:103E60000A901FA10020FCF72DFB0A900A98FCF78E
:103E70001BFB00F0FF091AA10020FCF723FB0A90AE
:103E80000A98FCF711FB00F0FF0B15A10020FCF7CE
:103E900019FB0A900A9825E0000402400010024035
:103EA000000C0240001802400008024000040140DB
:103EB00000000240000001402000002058030020C4
:103EC000464C0000465200005A4C00005A52000076
:103ED000434C0000435200004C4C00004C52000088
:103EE0002D000000FFF73CFCB0EE40CAF0EE60CAC7
:103EF00051EC1C0B00F0FEFB09EE100AAFF22001A2
:103F00000020FCF7DFFA0A900A98FFF729FCB0EED0
:103F100040CAF0EE60CA51EC1C0B00F0EBFB0EEE59
:103F2000100AAFF244010020FCF7CCFA0A900A987C
:103F3000FFF716FCB0EE40CAF0EE60CA51EC1C0B65
:103F400000F0D8FB09EE900AAFF26C01002000E00F
:103F5000AAE1FCF7B7FA0A900A98FFF701FCB0EE65
:103F600040CAF0EE60CA51EC1C0B00F0C3FB0AEE35
:103F7000900AAFF294010020FCF7A4FA0A900A9884
:103F8000FFF7EEFBB0EE40CAF0EE60CA51EC1C0B3E
:103F900000F0B0FB0DEE100AAFF2BC010020FCF700
:103FA00091FA0A900A98FCF77FFAC0B208EE900ADC
:103FB000AFF2D4010020FCF785FA0A900A98FCF7CA
:103FC00073FAC0B20990AFF2E8010020FCF77AFA68
:103FD0000A900A98FCF768FAC0B20890002007908F
:103FE000069005900490B5EEC09AF1EE10FA26D135
:103FF000AFF21411FCF766FA0A900A98FCF754FA2B
:104000000790AFF224110020FCF75CFA0A900A989E
:10401000FCF74AFA0690AFF238110020FCF752FA8A
:104020000A900A98FCF740FA0590AFF24C11002074
:10403000FCF748FA0A900A98FCF736FA0490DFED8C
:10404000F7DAB5EEC09AF1EE10FA02D1F0EE4EDAE0
:1040500003E02EEE090AF0EE40DAABF1010000EECB
:10406000100AB8EEC00ACDEE800ACDED030A03981F
:1040700000F0DCFE41EC1B0B9FEDE88A19EE900A84
:1040800000F0D4FE41EC1C0B53EC1B2B00F064FB46
:1040900041EC1F0B00F02EFB0AEE100A0027B9F1CD
:1040A000000F04D100210846FDF74CFF03E000217A
:1040B0000846FDF757FFD6E0B7B9B4EEE98AF1EE4E
:1040C00010FA11DB0898FFF729FCD5A0FCF7E0F8FF
:1040D000B8EE680A3DEE000ABCEEC00A10EE101AF7
:1040E00088B2FFF71BFC7F1CB4EECA8AF1EE10FA0F
:1040F00036DBB0EE4A8A0898FFF710FCC8A0FCF740
:10410000C7F8B8EE680A3DEE000ABCEEC00A10EE31
:10411000101A88B2FFF702FC7F1C384600F014FC2E
:1041200053EC1B2BCDE900019DED000B51EC100B66
:1041300000F05EFC41EC1C0B19EE900A00F076FEDC
:1041400053EC1C2BCDE902019DED020B51EC100B41
:1041500000F002FB41EC1F0B00F0CCFA0AEE100A53
:104160005F455CD1B5EEC09AF1EE10FA08D1049823
:104170000090ACA0DDE905320799FCF789F802E070
:10418000ACA0FCF785F8B8EE680A3DEE000ABCEE7C
:10419000C00A10EE101A88B2FFF7C0FB29E0F1EE5A
:1041A000040AB0EE480A0AEEE00AB0EE408A9FED3B
:1041B000A20A28EE000AF2EE040A80EE201AB0EEFF
:1041C00041CAB9F1000F08D1BCEECC0A10EE100ABA
:1041D00081B20020FDF7B6FE07E0BCEECC0A10EE7F
:1041E000100A81B20020FDF7BDFE0998FFF796FB8B
:1041F00000BFB1EE040A2AEE800AB4EEC80AF1EE5E
:1042000010FACCD9B9F1000F04D100210846FDF70E
:1042100099FE03E000210846FDF7A4FE42E038EED7
:104220002A0AB0EE408A9FED840A28EE000AF2EED8
:10423000040AC0EE20EAB9F1000F08D1BCEEEE0A84
:1042400010EE100A81B20020FDF77CFE07E0BCEE04
:10425000EE0A10EE100A81B20020FDF783FE0998E5
:10426000FFF75CFB00BF39EEAD0A10EE101A0846EE
:1042700000F0DCFD41EC1C0B53EC1B2B00F06CFA46
:1042800041EC1F0B18EE100A00F0D0FD53EC1F2B71
:10429000CDE902019DED020B51EC100B00F06CFB1F
:1042A000FFF40AAF00BF00BF00206449088000BFD0
:1042B000FEF7FCF98246BAF1000F7DD0BAF14A0F41
:1042C0007BD013DCBAF1300F49D008DCBAF1100F03
:1042D00074D0BAF1180F00E079E13FD170E0BAF183
:1042E000380F6CD0BAF1420FF7D13CE1BAF1520F5E
:1042F0007ED0BAF15A0F7CD0BAF1680F03D0BAF170
:104300007A0FEAD1AAE0B8F1010F0AD040214C4857
:10431000FEF76DF828B14FF00108AFF25840FBF7F7
:10432000B7FF012E1AD00126FA214648FEF7D9FF21
:10433000FA214448FEF7D7FF40214148FEF757F8DD
:1043400060B900213F48FEF7CAFF01213C48FEF753
:104350004EF818B14FF4FA70FFF7E0FA2FE1B8F118
:10436000020F0AD001213648FEF741F828B14FF07C
:104370000208AFF2B440FBF78BFF022E1BD00226DF
:10438000FA213048FEF7ADFFFA212E48FEF7ABFFC9
:1043900001212B48FEF72BF868B94FF4FA71294830
:1043A000FEF79DFF40212648FEF721F818B14FF493
:1043B000FA70FFF7B3FA02E102E1F4E082E09AE07A
:1043C000B8F1030F0AD008211D48FEF710F828B1F4
:1043D0004FF00308AFF20C50FBF75AFF032E3CD00E
:1043E0000326FA211748FEF77AFFFA21154801E063
:1043F000DFE098E0FEF777FF08211148FDF7F7FFAF
:1044000058BB00210F48FEF76CFF08210E48FDF74E
:10441000EEFFD8B16420FFF781FA1AE00000000037
:104420007470000063632D25642D25642D25642D93
:10443000256400006370000000008045200000201B
:104440000000024000000140000802403220FFF757
:1044500065FA80215F48FDF7D3FFB0E0B8F1040FA3
:104460000AD008215C48FDF7C2FF28B14FF00408CC
:10447000AFF2AC50FBF70CFF042E22D00426FA2139
:104480005648FEF72CFFFA215448FEF72CFF08216E
:104490005148FDF7ACFFA0B94FF4FA714F48FEF751
:1044A00020FF08214E48FDF7A2FF18B16420FFF756
:1044B00035FA02E03220FFF731FA80214548FDF756
:1044C0009FFF7CE0052E15D00526FA214348FEF714
:1044D00006FFFA214148FEF704FF4FF4FA713F4806
:1044E000FEF701FF3220FFF719FA4FF480413948F7
:1044F000FDF786FF63E0062E14D00626FA21374822
:10450000FEF7EDFEFA213548FEF7EBFE00213348B9
:10451000FEF7E9FE3220FFF701FA4FF480412D4803
:10452000FDF76EFF4BE01CB1032C01D0042C19D118
:10453000FA212A48FEF7D3FEFA212848FEF7D1FED9
:10454000FA212648FEF7CFFE032C05D1002125488D
:10455000FEF7C5FE022405E04FF4FA712148FEF78C
:10456000BEFE01242BE01DB1032D01D0042D19D175
:10457000FA211A48FEF7B3FEFA211848FEF7B1FEF9
:10458000FA211648FEF7AFFE032D05D1002115488C
:10459000FEF7A7FE022505E04FF4FA711148FEF779
:1045A000A0FE01250BE01EB907260FA0FBF770FE49
:1045B00005E01EB908260DA0FBF76AFE00BF06E065
:1045C0002EB10026B046FA210448FEF788FEFFF718
:1045D00084BA0000001002400008024000000140C0
:1045E00000000240000401403900000038000000D3
:1045F00010B588B0044601210846FDF753FF01219C
:104600001020FDF76FFF072209212248FDF7CCFE9D
:1046100007220A211F48FDF7C7FE4FF4C06006902D
:1046200002208DF81C008DF81D0000208DF81E0062
:1046300001208DF81F0006A91648FDF76DFE0294B3
:104640000020ADF80C00ADF80E00ADF81000ADF88C
:1046500014000C20ADF8120002A90F48FEF790FFDD
:1046600001210D48FEF730FF012240F225510A4892
:10467000FEF760FF25208DF8040003208DF805006B
:104680008DF8060001208DF8070001A8FDF7C2FE95
:1046900008B010BD000002400010014010B5002914
:1046A0000AD00878002807D005487844FCF728FC91
:1046B000002801D0002010BD0248784410BD000041
:1046C000520A00004A0A000010B500290AD00878F2
:1046D000002807D005487844FCF712FC002801D0D8
:1046E000002010BD0248784410BD0000420A0000BE
:1046F0003A0A000021F00042A2F16052B2F5801F98
:1047000001F0004328BFD2F17F6C0BD95FEA001C97
:1047100043EAC20242EB507018BF704728BF20F036
:1047200001007047B2F5801FBCBF184670474FEAC2
:10473000410C1CF5001F02D2084600F0EDBB70B51D
:1047400000F000FA00000089FFF7F6BF4FF00040CC
:10475000A0F580007047000010B591EA030F48BF34
:1047600083F0004300F18082841A71EB030C05D2C0
:10477000121943EB0C03001B61EB0C01DFF824E181
:104780004FEA1154A4EB135C1EEA430F18BF9EEAD4
:10479000445F73D023EA0E03DCF1200E21EA0451BA
:1047A00043F4801332D322FA0CFE10EB0E0023FAEE
:1047B0000CFE41EB0E01CCF1200E03FA0EFE10EBC5
:1047C0000E0051F10001B1F5801FCCF1200E32D264
:1047D00001EB045112FA0EF2BDE8104058BF7047C9
:1047E000401C38BF5FEA420218BF7047002814BF60
:1047F00020F0010041F100014FEA410313F5001FD1
:1048000038BF7047A1F1C04100F0EAB9012A43EB7B
:104810000302ACF1200CDCF11F0E32BF4FF0000E92
:1048200023FA0CF310EB030041EB0451B4EB115FDE
:10483000D0D0A1EB045101F5801149085FEA3000A6
:1048400001EB04510ED350F1000038BF12FA0EFEF6
:1048500008D1BDE81040C9E7401C38BF5FEA4202FA
:10486000CAD1C3E7BDE810404FEA410313F5001F6A
:1048700038BF7047A1F1C04100F0B2B99EEA445F71
:1048800008D011EA5E0FBDE8104004BF01F00041FE
:1048900000207047BDE8104070B500F053F900BF2C
:1048A00064FBBE3E0000E0FF02494FF0000000F054
:1048B0003BBB00BF0000F87F491058BFC1F1404129
:1048C0005B1058BFC3F140438B42EFF30080704749
:1048D00051EA030C17D41CF5801F58BFBCF5801F8C
:1048E00000F10680994218BF704708BF9042704798
:1048F00007D711F5801F58BF13F5801F19D49942AF
:104900007047894270471CF5801F08D5BCF5801F91
:10491000F7D58B4218BF704708BF824270474FF4EB
:10492000001C1CEB410F38BF1CEB430F01D28B4224
:10493000704770B500F006F9922449004FF000511D
:104940004FF08053FFF7B8BF10F0004248BF40421D
:10495000B0FA80F310FA03F10AD0C3F11D0303F596
:1049600080634FEA415002EB035202EBD1217047C2
:104970004FF000007047000051EA030C17D41CF5FB
:10498000801F58BFBCF5801F00F10680994218BFF8
:10499000704708BF9042704707D711F5801F58BF76
:1049A00013F5801F19D499427047894270471CF54E
:1049B000801F08D5BCF5801FF7D58B4218BF704704
:1049C00008BF824270474FF4001C1CEB410F38BFF8
:1049D0001CEB430F01D28B42704770B500F0B2F868
:1049E000922449004FF000514FF08053FFF764BF0D
:1049F000DFF848C170B51CEA111E1EBF1CEA131572
:104A00009EEA0C0F95EA0C0F00F06F8081EA030418
:104A100023EA4C134EEAD47E21EA4C1141F4801172
:104A200043F48013AE44A1FB024CA0FB0365AEF13E
:104A30007F7E361955EB0C05A1FB034C4CF10003AE
:104A4000A0FB021C16EB0C06654153F10003094262
:104A500018BF46F0010613F4007F0BD14FEA033173
:104A60004FEA0530340341EA155140EA16506FF021
:104A700003020AE04FEAC3214FEAC520F40241EAEB
:104A8000555140EA56506FF0020202EB2E4201EB04
:104A9000025585EACE710AD05FEA440C18BF24F0B3
:104AA000004450F1000041F1000120EAD47040F2CE
:104AB000FE7C624500D270BDA84214BF4FF0804416
:104AC0004FF04044002E08BF0024BEF1806FA8BF05
:104AD000A1F1C041BDE8704080F282804FF000003B
:104AE00001F1C04101F0004170479EEA0C0F0CEA51
:104AF000131518BF95EA0C0F06D04FF0000081EA9D
:104B0000030E0EF0004170BD00F01CF88900013E5C
:104B100000F007B800F009B84FEA430C5FEA5C5CAC
:104B200008D081EA030100F05BB84FEA410C5FEA6C
:104B30005C5CF6D14FF00000014970470000FF07B0
:104B40000000F87F0EF1020E2EF0030E5EF8046BEB
:104B5000364205D4012A43EB030515F5001F12D890
:104B6000012841EB010C1CF5001F0CD80ED14FEAB7
:104B7000D17C15F5001F0CEB4C0C0CF1020C08BF9E
:104B80004CEBD37C04E04FF0080C01E04FEAD37CFF
:104B90000CEB4C0526FA05F606F00706B6F1040CF8
:104BA00006D20EEB860CBDE870404CF0010C60475D
:104BB000DFE80CF0090B02024FF000414FF000005B
:104BC000A1F5002170BD19461046012851EB0104E2
:104BD00018BFD4F5001484BF002001F0004170BD5F
:104BE0000808A0F500114FEA3101704753EA010CA3
:104BF00017D41CF5801F58BFBCF5801F00F106803C
:104C00008B4218BF704708BF8242704707D713F521
:104C1000801F58BF11F5801F19D48B4270479B42EB
:104C200070471CF5801F08D5BCF5801FF7D5994249
:104C300018BF704708BF904270474FF4001C1CEB30
:104C4000430F38BF1CEB410F01D2994270470FB49C
:104C50000CBC03BCFFF7C1BE10B591EA030F48BFFF
:104C600083F000433FF580AD841A71EB030C07D24B
:104C700012198CF0004C43EB0C03001B61EB0C0190
:104C8000DFF8A4E14FEA1154A4EB135C1EEA430FD2
:104C900018BF9EEA445F00F0B08023EA6E035242E0
:104CA00021EA0451C3EB6E0338BF5B1EDCF1200E1A
:104CB00025D322FA0CFE10EB0E0043FA0CFE41EB5A
:104CC0000E01CCF1200E03FA0EFE10EB0E0051F196
:104CD0000001CCF1200E29D412FA0EF201EB04519E
:104CE000BDE8104058BF7047401C1CBFB2F1004FD8
:104CF000704700280CBF491C20F00100704712EBE0
:104D0000020E43EB030218BF4FF0010E4EEA4202BF
:104D1000ACF1200CDCF11E0E54D943FA0CFE10EB62
:104D20000E0051F1FF31CCF11E0ED5D50EF1010E62
:104D300012FA0EFE404141EB010101EB445C5FEAD7
:104D40005C5C10D910EBDE7001EB045138BFBEF192
:104D5000004FBDE8104018BF704700280CBF491C29
:104D600020F00100704730D24FEAD42C11F5001129
:104D700024F400641BD0B1FA81F20B3AA41AA41EE9
:104D8000D2F12003914030FA03F31943904001EB34
:104D9000CC71002C01EB0451BDE81040A8BF704756
:104DA00001F1C0414FF0000001F000417047B0FA3E
:104DB00080F310FA03F100D110BDE41A173C480546
:104DC000C90AE4E701EB045110BD491001EB04519D
:104DD000BDE810404FEA300002E04FF0000170479C
:104DE0004A0008BF0042F8D0B2F5001F28BF704744
:104DF00001F000414FF0000070479EEA445F07D089
:104E000011EA5E0FBDE8104004BF0021002070478A
:104E1000BDE8104070B5FFF795FE00BF40DFF63EDD
:104E200083F00041104670470000E0FF43004FEA66
:104E3000D30C4FEA3C0C43401FBF40070CF16051BC
:104E400013F0FE4F70471CF0006F03D100200CF0F0
:104E5000004170470CF0004343EA507010B540EA3F
:104E6000CC0000F00EF800BF000000924FEA0001F5
:104E7000FFF7B6BE4FF000414FF00000A1F5002152
:104E800070470EF1020E2EF0030E5EF8044B244222
:104E900004D44FEA4102B2F17F4F11D84FEA4003E8
:104EA000B3F17F4F0CD80ED14FEAD07CB2F17F4FD7
:104EB0000CEB4C0C0CF1020C08BF4CEBD17C04E069
:104EC0004FF0080C01E04FEAD17C0CEB4C0324FAC4
:104ED00003F404F00704B4F1040C06D20EEB840CC6
:104EE000BDE810404CF0010C6047DFE80CF007080B
:104EF00002024FF00040A0F5800010BD08464200BD
:104F000018BFD2F1807288BF00F0004010BD4FF092
:104F10004070E1EE100A7047FF2141EAD050C00511
:104F200070474FF0000070470CF00F03092B08BFCB
:104F3000082000F05F800A2B0BD0082B18BF7047A9
:104F400008BF1CF0400F0AD04FF000004FF00001E6
:104F500070471CF0400F18BF4FF0004070471CF026
:104F6000100F08D020F0704300F07F4242EAD301D6
:104F70004FEA4370704700F0604021F07F4242EA00
:104F8000000201F07F4040EA727070474FF0FF0C62
:104F90004CF4E06C1CEA11531CBF9CEA030C9445D2
:104FA000C2BFDA4201EB02517047002B0DD0BCF1B9
:104FB000000F0FD0002A01F00041A4BF41F0E041F2
:104FC00041F07F614FF00000704701F000414FF069
:104FD0000000704750EA01334FF09B0C18BF4CF0B3
:104FE000806C7FF461AC7047FBF7B8BDFBF7C8BFBE
:104FF000FCF756B91CF4801F11D01CF4E02F03D02D
:105000006FEACC31490070474FF04050EFF3008217
:1050100022F0704242EA000282F3008870474FF0AB
:1050200000007047040000080000000000000002BB
:10503000000100001000000002400000000000A07D
:105040000000000005400000000000C80000000053
:105050000C4000000000409C0000000019400000CF
:105060000020BCBE0000000034400000BFC91B8E01
:1050700000000004B5400000504BCFD06607E2CFDF
:10508000010000006C4100003E8251AADFEEA7340F
:1050900001000000D9420000DCB5A0E23A301F97C1
:1050A000FFFFFFFFB4450000FD25A0C8E9A3C14FE5
:1050B000FFFFFFFFFF3F0000000000800000000036
:1050C000FF3F0000000000800000000028520008A0
:1050D0000000002038000000C401000860520008F1
:1050E00038000020480A0000E0010008000000002D
:1050F0000000F07FFFFFFFFFFFFFEF7F1C000000BD
:1051000043000000F8FFFFFF0C0000000E0000004D
:105110000F0000002E0000001001000043000000FE
:10512000F8FFFFFF004040404040404040404141C8
:10513000414141404040404040404040404040406C
:105140004040404040050202020202020202020206
:105150000202020202202020202020202020200203
:105160000202020202029090909090901010101093
:10517000101010101010101010101010101010102F
:1051800002020202020288888888888808080808C3
:10519000080808080808080808080808080808088F
:1051A00002020202400000000000000000000000B7
:1051B00000000000000000000000000000000000EF
:1051C00000000000000000000000000000000000DF
:1051D00000000000000000000000000000000000CF
:1051E00000000000000000000000000000000000BF
:1051F00000000000000000000000000000000000AF
:10520000000000000000000000000000000000009E
:10521000000000000000000000000000000000008E
:10522000000000000000000000000000000000007E
:10523000000000000000000000000000000000006E
:10524000000000000000000000000000000001025B
:10525000030401020304060708090000000000001F
:040000050800018965
:00000001FF
