:020000040800F2
:10000000800A00204D02000811240008092400087D
:100010000D240008E51E0008E7300008000000007D
:10002000000000000000000000000000152700088C
:100030003520000800000000A12400086D280008F9
:1000400067020008670200086702000867020008EC
:100050006702000867020008372000084D200008EA
:1000600063200008792000088F200008670200083C
:1000700067020008670200086702000867020008BC
:1000800067020008670200086702000867020008AC
:10009000670200086702000867020008A520000840
:1000A00067020008FD2900086702000867020008CF
:1000B000670200086702000867020008670200087C
:1000C000670200086702000867020008670200086C
:1000D00067020008592E000867020008E12E000898
:1000E000670200086702000867020008670200084C
:1000F000670200086702000867020008670200083C
:100100006702000867020008952B000867020008D4
:10011000670200086702000867020008652C0008F3
:10012000670200086702000867020008670200080B
:1001300067020008670200086702000867020008FB
:1001400067020008670200086702000867020008EB
:1001500067020008670200086702000867020008DB
:1001600067020008670200086702000867020008CB
:1001700067020008670200086702000867020008BB
:10018000670200086702000800F002F800F04FF86C
:100190000AA090E8000C82448344AAF10107DA45E2
:1001A00001D100F044F8AFF2090EBAE80F0013F0E5
:1001B000010F18BFFB1A43F001031847284B00003A
:1001C000484B0000103A24BF78C878C1FAD85207CB
:1001D00024BF30C830C144BF04680C6070470000C1
:1001E0000023002400250026103A28BF78C1FBD840
:1001F000520728BF30C148BF0B607047642900F028
:100200005380002070471FB504F08DFC00F06EFB9A
:1002100004000020002104F063F8401C606000200E
:10022000002104F047F8E0601FBD10B510BD00F0DC
:1002300037FB1146FFF7E7FF03F04CF900F056FEDD
:1002400003B4FFF7F2FF03BC03F08CF809488047C2
:1002500009480047FEE7FEE7FEE7FEE7FEE7FEE7A8
:10026000FEE7FEE7FEE7FEE704480549054A064BC0
:1002700070470000712800088901000880040020F0
:10028000800A0020800600208006002070470000C1
:100290000FB4044910B503AA029800F09DF910BCF0
:1002A0005DF814FB1C0000202DE9F04106460024F7
:1002B00010687529314616A510D0AFF300800028CC
:1002C00002DA404213A507E031688A0701D512A57A
:1002D00002E0490704D511A5012401E0AFF3008035
:1002E00000210A2206F1240709E0B0FBF2FCB0FB72
:1002F000F2F302FB1C00303078541846491C0028E9
:10030000F3D123462A463046BDE8F04100F0F3B869
:10031000000000002D0000002B0000002000000065
:100320002DE9F05F894604464FF0000ADFF874B10A
:10033000FB44C0F820A02046E1688847002874D01C
:10034000252806D0D4E901219047206A401C20626C
:10035000F1E700265F462046E168884720280546E9
:1003600007DB312D05D2781910F8200C08B10643AF
:10037000F1E7B00701D526F00406C4F81CA0002759
:10038000C4F818A02A2D09D0284602F0E4FF38B39B
:1003900004EB8708303DC8F8185019E059F8041BE1
:1003A000204604EB87029161E1688847012F0546EA
:1003B00018D1E069002820DA26F020061DE0D8F8E0
:1003C000180000EB800005EB40003038C8F818003A
:1003D0002046E1688847054602F0BDFF0028EED1BF
:1003E000012F0AD02E2D08D12046E16888477F1CB6
:1003F0000546022F46F02006C4DBA069002803DA78
:10040000404246F00106A061F00701D026F0100638
:100410006C2D0BD0682D09D04C2D39D06A2D35D0DC
:10042000742D35D07A2D33D016E038E0E1682F46B0
:1004300020468847B842054609D16C2F26D04FF494
:100440008060E168064320468847054604E06C2F3B
:100450001AD04FF4807006430DB3A5F1410019285E
:1004600002D8203546F400664A46294620462660D2
:100470004E46FFF7C3FE80B101280BD0F61D26F0D3
:10048000070000F1080956E74020E4E78020D8E79C
:100490000020D6E706F104094DE7284652E7206A16
:1004A000BDE8F09F0849000070B5064600F014F85A
:1004B0000468054630460A22002100F0F1F82C605D
:1004C00070BD0000014A00F023B900003400002094
:1004D00070477047704770470048704720040020FD
:1004E00010B5FFF7F9FF006810BD10B50446FFF71F
:1004F000F3FF046010BD2DE9F0470D469946924682
:10050000044600F124080168880604D5E06921F05A
:100510001001216000E00120A84201DD471B00E03E
:100520000027A1697A1902EB0900081AA061207856
:10053000C00602D42046AFF30080002608E0D4E9CC
:1005400001211AF806009047206A401C761C2062A0
:100550004E45F4DB2078C0060AD52046AFF3008074
:1005600006E0D4E9012130209047206A401C206237
:10057000381EA7F10107F4DC07E0D4E9012118F8DF
:1005800005009047206A401C2062281EA5F1010545
:10059000F3DC2046AFF300802078000602D502206D
:1005A000BDE8F0870120FBE701694A1C0261087879
:1005B000704700B58FB0CDE90131002105910549A3
:1005C0007944CDE9031011466846FFF7A9FE0FB044
:1005D00000BD0000E5FFFFFF074B70B50D467B44F3
:1005E000FFF7E7FF0446284600F038F910B14FF056
:1005F000FF3070BD204670BD472E00000FB40023B1
:1006000000B589B00CA900910B99CB60214B7B44BC
:100610000693214B7B44079304236FF00042CDE9FE
:1006200001321E4A7A446B4608920246002004F0CA
:10063000E7FA09B05DF814FB70B506464FF0FF30DD
:1006400015460C46324686B00091CDE90101694657
:100650000020049004A8FFF7D1FF02460498211857
:1006600025B108B1084600E020462860049800281B
:100670000DD0002A02DD0098884208D03246081BBF
:1006800069460094CDE9010404A8FFF7B7FF06B05E
:1006900070BD00006D0100008501000045010000F3
:1006A0002DE9F04791460F4680460446002614F88F
:1006B000015B2DB100F052F80068405DC007F6D133
:1006C0002B2D02D02D2D18D0641E4A4639462046C7
:1006D00000F075F827B13968A14201D1C7F8008050
:1006E0004FF0020471050BD54042002803DDFFF7EF
:1006F000F3FE0460A007BDE8F08746F48066E4E7F7
:100700000028F8DAFFF7E8FE04606FF00040F2E737
:100710002DE9F04115460E46040002D12C6804B9BB
:100720000BA4204600F0AEF80444207870B12746B0
:100730003146384600F096F80444207810B1002085
:1007400004F8010B38462C60BDE8F0810027F9E77A
:1007500000000000004870472004002010B500F0A1
:10076000C5F8001D10BD00BF793B000010B5044660
:10077000FFF7F4FF0068005D00F0010010BD426863
:1007800042B1016811F8013B23B1521EC0E90012C9
:10079000184670470121C160881E704742685AB1EF
:1007A000C368016843B983688B4205D0491E521C57
:1007B000C0E90012002070474FF0FF3070472DE96C
:1007C000F05F824615468B4600270AF10104B946C0
:1007D0000078302801D09DB113E014F8010B0127F7
:1007E000782803D0582801D045B10AE00DB1102D6A
:1007F00007D1002714F8010B102502E0082500E0BE
:100800000A250026B0460EE005FB080005FB06F1B0
:1008100001271FFA80F801EB1046B6F5803F00D3A0
:10082000B94614F8010B294600F064F80028EBDA09
:10083000BBF1000F05D00FB1641E00E05446CBF8A9
:100840000040B9F1000F06D0FFF746FE022101601B
:10085000C81EBDE8F09F48EA0640FAE7007B00F0BA
:100860008000704730B503461D781DB10A4603E08D
:10087000AC4201D1181A30BD12F8014B002CF7D14F
:100880005B1CF1E730B503461D783DB10A4612F80E
:10089000014B1CB1AC42FAD15B1CF5E7181A30BD14
:1008A0007546FFF757FFAE4605006946534620F0F0
:1008B0000700854618B020B5FFF7D6FCBDE82040FC
:1008C0004FF000064FF000074FF000084FF0000B0C
:1008D00021F00701AC46ACE8C009ACE8C009ACE8BF
:1008E000C009ACE8C0098D46704700000048704759
:1008F000400400203A2800D2303820F02002412A5B
:1009000001D3A2F13700884201D34FF0FF30704786
:100910002DE9FF4F06468BB00878FF2806D0491C0A
:100920002D2805D000244FF0000908E000200CE03D
:100930000124F8E709EB8903491C00EB4309087817
:10094000FF28F7D114B1C9F10000814610780025C5
:100950002C46AA4629462D2801D02B2804D1521C0A
:100960002D2813D0002082468B461078FF280FD008
:100970004FF0000C0A21521CA5FB017804FB0181F9
:1009800005FB0C11C5194BEB0104EEE70120EAE76A
:10099000002108464FF00000BAF1000F02D000EB32
:1009A00080004008C0F38157012F01DD4FF0FF3771
:1009B0000E9955EA040009EB01080BD04FF002092B
:1009C00018F5FA7F16DA4FEACA70002F706008DD5A
:1009D000012007E04FEACA70C6E900B00FB0BDE8D9
:1009E000F08F00203060FFF777FDC0F800901821ED
:1009F000084616E0B8F5FA7F18DD002F02DAF7484E
:100A0000784401E0F6487844D0E90010C6E90010C7
:100A100040EACA707060FFF75FFDC0F800901421D3
:100A200008460FB0BDE8F04F04F087B80021084633
:100A30004FF00000B8F10001099002DAC7F100029E
:100A400000E03A4601DAC8F1000106A800F0DCF93E
:100A500006AB93E8070003AB83E8070044F23E00CF
:100A60005BEA04010090584604D144F21E012C4672
:100A70005D460091210C0904014306D1009924042C
:100A800044EA15442D041039009104F07F410143DC
:100A900006D10099240244EA15642D020839009118
:100AA00004F07041014306D10099240144EA157411
:100AB0002D01091F009104F04041014306D1009926
:100AC000A40044EA9574AD00891E009104F0004131
:100AD000084304D100986D196441401E00904FF006
:100AE00001033A466846B8F1000FCDE9014503A974
:100AF00002DD00F00EFF01E000F0E1FEBAF1000FB0
:100B000004460D4601D084F00044002108464FF011
:100B10000000099940F2FF77484010F00C0F07D110
:100B200024F00040284303D0C4F30A50B84212D145
:100B3000FFF7D2FCC0F80090C4F30A50B8420AD1C3
:100B4000A8487844D0E90010C6E9001004F000413C
:100B50000843706042E7C6E900543FE72DE9FF4FC4
:100B60001F464FF0000A4FF0FF38454691B0D7E9D5
:100B70000146CDF83CA0FFF7B9FEC0680168405CB3
:100B80001090B96912986D1C8847396A8146884768
:100B90000028F6D1B9F1FF3F0AD0002E24F4D0642A
:100BA00011DDB9F12B0F08D0B9F12D0F0BD102E0F7
:100BB000404615B013E744F48064B96912986D1C7F
:100BC0008847761E8146600504A901D52D2000E0E6
:100BD0002B20002E01F1010B0DF130088DF81000D3
:100BE0003FDDB9F1690F08D0B9F1490F05D0B9F16E
:100BF0006E0F02D0B9F14E0F1CD13B4601A80095F3
:100C000080E85002DDE912126FF0020003F0FCFFF1
:100C1000C11CCED10EE0B96912986D1C884781467F
:100C20001398761E44F4007405600F98401C002E43
:100C30000F9016DDB9F1300FEDD0B9F1780F02D079
:100C4000B9F1580F0DD10F9801280AD13B46CDE9D3
:100C50000054DDE91212001F029603F0D3FFC11CFD
:100C6000A7D1109989453ED144F0800406E013993C
:100C7000681CAAF1010A44F400740860B9696D1C8B
:100C80001298761E884730288146F0D02BE01099C4
:100C9000894505D1200603D4761E44F0800418E06F
:100CA000484602F058FB08B3761E0DF123018B4530
:100CB00044F4007408D2A9F130000BF8010B2006AF
:100CC00007D5AAF1010003E0200602D40AF10100D1
:100CD0008246A00502D51399681C0860B96912986C
:100CE0006D1C88478146002ED1DC53E0002E51DD7B
:100CF000B9F1650F02D0B9F1450F4BD1A00549D527
:100D0000B9696D1C1298761E24F440748847002E31
:100D100081460CDD2B2804D0B9F12D0F07D144F406
:100D20008074B96912986D1C8847761E8146E0056B
:100D300001D52D2100E02B2108F8011BCDF8008002
:100D400021E0761E0DF13901884544F400740CD27F
:100D5000A9F1300010F0FF0088F8000002D10099DE
:100D6000884509D908F1010806E0E00501D51E48CB
:100D700001E042F20F708246B96912986D1C8847F3
:100D8000814613980560002E04DD484602F0E3FA20
:100D90000028D6D1F96912988847FF2053468BF86E
:100DA000000088F8000000200A900B9004AA0CA90B
:100DB0000AA8FFF7ADFDA00502D46FF00100F8E628
:100DC00014F0240F12D0E0071CD13868DDE90A12B4
:100DD000031D3B600068C0E9001213E008430000F7
:100DE000FA420000BE410000F1D8FFFF0AA96846A0
:100DF00002F09EFAE00705D13868009A011D3960BB
:100E0000006802602846D4E62DE9F0478146164680
:100E10008AB0354878440DC88DE80D0032487844D2
:100E2000801C03AC0DC884E80D0041F69B300844DB
:100E3000372190FBF1F290FBF1F5A5F1800501FB64
:100E400012041B3C02D56442012000E00020DFF8C0
:100E500098A080460027FA44AAF1BE0A0EE0E007F7
:100E60000AD03246684607EB470101230AEB8101AD
:100E700000F03AFD8DE8070064107F1C002CEED1D5
:100E8000194F7F44AE3F19E0E80715D007EB041077
:100E90000DF1180A90E80E008AE80E00C068F042D2
:100EA00001D1981908903246012306A903A800F041
:100EB0001BFD03AB83E807006D10641C002DE3D11C
:100EC0004FF0010332466946B8F1000F03A802D083
:100ED00000F0E0FC01E000F007FDC9E90001C9F8FD
:100EE00008200AB0BDE8F087B43E000010B5044603
:100EF000AFF300802046BDE81040FFF7A1B9000025
:100F00004FF0013C50F8042B51F8043B9A4221D198
:100F1000A2EB0C03934313EACC1317D150F8042B24
:100F200051F8043B9A4215D1A2EB0C03934313EA08
:100F3000CC130BD150F8042B51F8043B9A4209D141
:100F4000A2EB0C03934313EACC13DBD04FF0000069
:100F5000704700BFD01A01BAB1FA81F101F018014F
:100F600022FA01F0CB40C1F12001DBB2C0B2C01ABD
:100F70002CFA01F3D11A914311EAC311E6D170475B
:100F80002DE9FF4F1F464FF03C0987B04FF000425C
:100F9000DDE9141001F10108DDF858A002EA405023
:100FA0000390002005908346054604460490B969E5
:100FB000461E08988847AAF1010A0290BAF1000F6C
:100FC0003BDD02982E2815D01021FFF793FC002856
:100FD0002EDB4FF0010B0599014317D0B9F1000F3B
:100FE0000BDB4A46C11700F0F5F905430C43A9F1A4
:100FF000040905E0012004900BE008B145F001056B
:1010000001200590049820B9361D02E0049800B133
:10101000361FB969089808F101088847BBF1000F2D
:10102000AAF1010A0290C9D00999C1F80080C5E768
:101030000298702808D0502806D0F9690898884787
:10104000BBF1000F14D04FE0002002900120BBF153
:10105000000F049009D0B969089808F10108884781
:10106000AAF10109B9F1000F07DCF969089888476E
:101070006FF001000BB0BDE8F08F2B2804D02D28B5
:101080000CD14FF0FF300490B969089808F10108BD
:101090008847A9F10109B9F1000FE6DD411CE4D050
:1010A0000A21FFF727FC0028DFDB029908F101087D
:1010B00001EB810100EB41000290B9690898884773
:1010C0000A21FFF717FC099AA9F10109B9F1000FEC
:1010D000C2F8008001DD0028E7DAF969089888473E
:1010E0000499029800FB016655EA040004D004F05C
:1010F0004041090002D006E0039898E0A40044EAC9
:101100009574AD00B61E04F00041080002D16D19BF
:101110006441761E159810F0240F03D04FF00B0990
:101120005C4803E04FF028096FF07D008246564589
:1011300007DAAAEB06018944B9F1410F01DD4FF04E
:10114000410901200021A9F1010200F043F9024602
:1011500028400B462140084301D0012100E0002136
:10116000501E029143F1FF3128402140084301D035
:10117000012000E000200299834651EA0B014FD084
:10118000002108464FF00000039900F4400039B1F7
:1011900000EB80004FF4400100EBD07001EA6000EA
:1011A0008015012802DD4FF0FF3000E013D0401C15
:1011B00036D0029860B3BBF1000F0CD14A46012033
:1011C000002100F007F928402140084301D0012008
:1011D00000E00020E0B101204A46002100F0FAF8CA
:1011E000034640190A4661412D1A8C4111D3B9F1C9
:1011F000400F09DD159810F0240F02D0AAF1340633
:1012000003E0AAF1170600E0761C00254FF0004429
:1012100006E05B1E42F1FF3220EA030521EA0204E8
:10122000CAF10100B04206DA1B4903980843019055
:10123000002000900EE0039AC4F3D321E80A0A4389
:10124000164940EA44500A433146CDE90002684657
:1012500002F077F8159810F0240F0BD01598C007FE
:1012600015D13868DDE90012031D3B600068C0E954
:1012700000120CE002A8694602F05AF81598C0075F
:1012800005D13868029A011D396000680260404645
:10129000F0E6000002FCFFFF0000F07F0000F03FDE
:1012A0002DE9FF4F92461D4685B04FF00041DDE924
:1012B000124BDDE914727F1E01EA4B50414940F0A8
:1012C000FF4940EA0108002122F02000492804914A
:1012D00002D04E2828D04CE03BA0012607C88DE85C
:1012E0000700A9690698641C88477F1E014606D43A
:1012F0001DF8060018B121F0200181420BD0E969E8
:1013000006988847032E34D0082E32D06FF00100A3
:1013100009B0BDE8F08F761C032E01D0082EE0D175
:10132000601CCAF80000DCE7A9690698641C8847BD
:101330007F1E2AD420F02000412826D1A9690698D2
:10134000641C88477F1E20D420F020004E281CD12A
:10135000A9690698641C88477F1E48F4002849F450
:101360008009CAF8004001D4282806D0E969069807
:1013700088475FEACB7012D022E0A9690698641C06
:1013800088477F1E01D4002803DAE9690698884758
:10139000BCE72928F1D1641CCAF80040E9E71BF03A
:1013A000240F07D028680499031D2B600068C0E94A
:1013B000001805E02868021D2A600068C0F8009047
:1013C0002046A5E70000F07F494E46494E49545952
:1013D00000000000B2F120030AD5C2F1200301FA97
:1013E00002F120FA03F300FA02F041EA0301704728
:1013F00000FA03F14FF00000704720F07F4C80EAC4
:10140000030023F07F47ACEB070303F57C5300F0A8
:10141000004003F1FF032DE980494FEA154B09B461
:101420004FEA144325EA0B4E24EA03480FF2042640
:1014300006EB132749083E785FEA320203FB066792
:10144000C7F5000707FB06F64FEA54374FEAD646C2
:1014500006F1020607FB066CCCF1005C4FEA1C4764
:101460002CEA074C07FB06F40CFB06F504EB1546CB
:101470004FEA961634BF00204FF000404FEAD137B4
:1014800006FB07FC4FEA1C4C0CFB0BF7D21B03FBC3
:101490000CF761EB07010CFB0EF7B0EB074072EBAA
:1014A00017420CFB08F734BFA2EB0742B2EB07422E
:1014B00061EB17414FEA0C444FEA910706FB07FC2A
:1014C0004FEA1C4C0CFB0BF7B0EBC74072EB5732EA
:1014D00003FB0CF734BFA2EBC742B2EBC74261EB90
:1014E00057310CFB0EF7B0EBC70072EB57720CFBD9
:1014F00008F734BFA2EBC702B2EBC70261EB57712A
:10150000039F4FEA816141EA921104EBCC044FEA58
:10151000D1374FEA826206FB07FC42EA90124FEA9B
:1015200080604FEA1C4C0CFB0BF7D21B03FB0CF743
:1015300061EB07010CFB0EF7B0EB074072EB1742B3
:101540000CFB08F734BFA2EB0742B2EB074261EB9A
:1015500017414FEA8C554FEA910704EB9C2406FB98
:1015600007FC4FEA1C4C0CFB0BF7B0EBC74072EBCF
:10157000573203FB0CF734BFA2EBC742B2EBC742B2
:1015800061EB57310CFB0EF7B0EBC70072EB5772F3
:101590000CFB08F734BFA2EBC702B2EBC70261EB4A
:1015A000577115EB4C254FEA816141EA92114FEAE0
:1015B00082624FEAD13742EA901206FB07FC44F1FF
:1015C00000044FEA80604FEA1C4C0CFB0BF7D21B67
:1015D00003FB0CF761EB07010CFB0EF7B0EB0740C8
:1015E00072EB17420CFB08F734BFA2EB0742B2EBD9
:1015F000074261EB174115EB1C154FEA813141EAB7
:1016000092414FEA823242EA90424FEA80304FEAFA
:101610000C7644F1000448EA03434EEA0B484FF0CD
:10162000000EB2EB080C71EB030724BF624639468B
:101630004EEB0E0E4FF0000B0018524149414BEBA0
:101640000B0BB2EB080C71EB03077BF1000B24BF13
:10165000624639464EEB0E0E4FF0000B0018524119
:1016600049414BEB0B0BB2EB080C71EB03077BF121
:10167000000B24BF624639464EEB0E0E51EA0207BC
:1016800018BF46F0010616EB0E7655F1000254F134
:10169000000103D5BDE88901BDE80088BDE88901E6
:1016A000BDE80048B619524141EB0101A3F1010325
:1016B000704780807F7E7D7C7B7A797877767675BF
:1016C0007473727171706F6E6E6D6C6C6B6A6A6937
:1016D0006868676666656464636362616160605FD1
:1016E0005F5E5E5D5D5C5C5B5B5A5A59595858574A
:1016F00057565655555554545353525252515150B2
:1017000050504F4F4F4E4E4D4D4D4C4C4C4B4B4B04
:101710004A4A4A494949484848474747474646464A
:101720004545454444444443434343424242424185
:101730004141000046EA0646A3F570534FEA1646BB
:1017400046EA42564FEAD22242EA415210B54FEAE7
:10175000D121A3F1010300F02FF820F0004000F1A7
:10176000020C00F0004701EB00501146BCF5006F81
:1017700040EA070000D210BDBAF1000F0AD01CB534
:1017800003B44FF004004FF004014FF000000FBC11
:10179000BDE810404FF00001BBF1010FB9BF044894
:1017A0004FF0FF310348002140EA070010BD00BFA1
:1017B000FFFFEF7F0000F07F002B9C4630D47700C6
:1017C0002BD01CB54FEA370703B44FF010004FF091
:1017D0001001BAF1000F06D0BCF1000FDCBF40F0E1
:1017E000080040F008014FF000000FBCBDE81040B9
:1017F0000BF1010BBBF1010F08BF5FEA170722BF16
:1018000012F1010211F101014FF0004143F1000317
:1018100000F0004043EA00007047F9D35708D0E7D2
:1018200046EA064613F1400F4FEA16461FDD13F154
:10183000200FDFBF16430A46002120335B42BED093
:10184000C3F1200746EA064602FA07F74FEA1646B2
:1018500046EA0706C3F1200722FA03F201FA07F766
:1018600021FA03F14FF0000342EA0702A7E746EA34
:10187000020646EA06464FEA164646EA0106BCBF9D
:1018800046EA0646360C4FF000034FF000024FF0D8
:10189000000194E72DE9804C9A46934670B491E894
:1018A000380007C831EA400C48BF34EA430C03D57E
:1018B000FFF7A3FDFFF780FFF0BCBDE8008C2DE92A
:1018C000804C9A46934670B491E8380007C831EAD4
:1018D000400C48BF34EA430C03D5FFF78EFDFFF7F9
:1018E00029FFF0BCBDE8008C2DE9804C9A46934658
:1018F00070B491E8380007C810F0804F08BF13F0AB
:10190000804F03D100F01AF8FFF756FFF0BCBDE896
:10191000008C2DE9804C9A46934670B491E83800CB
:1019200007C810F0804F08BF13F0804F03D100F0BC
:1019300005F8FFF7FFFEF0BCBDE8008C20F07F4704
:1019400080EA030023F07F4C07EB0C03A3F57C53E4
:1019500000F00040A3F1FE0392F0000F00F0B3800E
:1019600095F0000F00F077802DE901494FEA114012
:101970004FEA144621EA004800FB06FC24EA064729
:1019800008FB06F607FB08F800FB07F718EB06480C
:101990004CEB164C4FEA124B18EB07484FEA154632
:1019A0004CEB174022EA0B4E0BFB06FC25EA0647E0
:1019B0000EFB06F607FB0EFE0BFB07F71EEB064EB3
:1019C0004CEB164C4FF000061EEB074E4CEB174B42
:1019D00018EB0B0840F1000018EB0E0B58EB000859
:1019E00040F100008F1A4FF000013CBFC943661B55
:1019F00014BFB5EB040C00213CBFC943F61B4FEAF2
:101A000017444EEA8E0E27EA04454FEA1C4704FBB2
:101A100007622CEA074C05FB07F70CFB05F604FBF5
:101A20000CFC16EB074642EB174216EB0C4642EB5A
:101A30001C421BEB060658EB0202414146EA9E0699
:101A400001D5BDE80189B619524141EB0101A3F16D
:101A50000103BDE801894FEA14454FEA114724EA22
:101A6000054621EA074C05FB07F406FB07F70CFBCC
:101A700006F105FB0CFC11EB074144EB17444FEA60
:101A8000124711EB0C4144EB1C4422EA074C05FBC6
:101A900007F206FB07F70CFB06F605FB0CFC16EB42
:101AA000074642EB174216EB0C4642EB1C456A1800
:101AB00054F1000148BF7047B619524141EB010192
:101AC000A3F10103704795F0000F37D04FEA1142A0
:101AD0004FEA144721EA024624EA074C02FB07F1C9
:101AE00006FB07F70CFB06F402FB0CFC14EB0744A7
:101AF00041EB17414FEA154714EB0C4441EB1C41F5
:101B000025EA074C02FB07F506FB07F70CFB06F678
:101B100002FB0CFC16EB074645EB174516EB0C4693
:101B200045EB1C42121951F1000148BF7047B6192C
:101B3000524141EB0101A3F1010370474FEA144503
:101B40004FEA114724EA054621EA074C05FB07F155
:101B500006FB07F70CFB06F24FF0000605FB0CFC3A
:101B600012EB074241EB174112EB0C4251EB1C41C7
:101B700048BF7047921841EB0101A3F10103704780
:101B80001CB50121084600F08DFC0121022000F067
:101B900089FC0121042000F085FC0121082000F0CF
:101BA00081FC0121102000F07DFC0121402000F08B
:101BB00079FC012000908DF8040000208DF80600CB
:101BC00003208DF8050002208DF807006946BF4804
:101BD00000F0A2FB0121BD4800F012FC4FF4807020
:101BE000009001208DF8040000208DF806000320ED
:101BF0008DF8050002208DF807006946B44800F012
:101C00008BFB4FF48071B24800F0FAFB4FF4007088
:101C1000009001208DF8040000208DF806000320BC
:101C20008DF8050002208DF807006946A84800F0ED
:101C300073FB4FF40071A64800F0E2FB8020009097
:101C400001208DF8040000208DF8060003208DF897
:101C5000050002208DF8070069469D4800F05CFBF6
:101C600080219B4800F0CCFB4FF480600090012065
:101C70008DF8040000208DF8060003208DF8050083
:101C800002208DF807006946914800F045FB4FF4AB
:101C900080618F4800F0B4FB4FF400600090012099
:101CA0008DF8040000208DF8060003208DF8050053
:101CB00002208DF807006946854800F02DFB4FF49F
:101CC0000061834800F09CFB4FF4804000900120AD
:101CD0008DF8040000208DF8060003208DF8050023
:101CE00002208DF807006946794800F015FB4FF493
:101CF0008041774800F084FB4FF4005000900120B1
:101D00008DF8040000208DF8060003208DF80500F2
:101D100002208DF8070069466D4800F0FDFA4FF487
:101D200000516B4800F06CFB4FF480500090012094
:101D30008DF8040000208DF8060003208DF80500C2
:101D400002208DF807006946614800F0E5FA4FF47B
:101D500080515F4800F054FB4FF4807000900120E8
:101D60008DF8040000208DF8060003208DF8050092
:101D700002208DF807006946564800F0CDFA4FF46E
:101D80008071544800F03CFB8020009001208DF8C9
:101D9000040000208DF8060003208DF805000220C5
:101DA0008DF8070069464C4800F0B6FA80214A4891
:101DB00000F026FB4020009001208DF80400002058
:101DC0008DF8060003208DF8050002208DF807002D
:101DD0006946424800F0A0FA4021404800F010FB5C
:101DE0004020009001208DF8040000208DF80600AE
:101DF00003208DF8050002208DF807006946384859
:101E000000F08AFA4021364800F0FAFA4FF4804098
:101E1000009001208DF8040000208DF806000320BA
:101E20008DF8050002208DF807006946274800F06C
:101E300073FA4FF48041254800F0E2FA80200090C8
:101E400001208DF8040000208DF8060003208DF895
:101E5000050002208DF807006946204800F05CFA72
:101E600080211E4800F0CCFA4FF4807000900120D1
:101E70008DF8040000208DF8060003208DF8050081
:101E800002208DF807006946144800F045FA4FF427
:101E90008071124800F0B4FA4FF4007000900120F5
:101EA0008DF8040000208DF8060003208DF8050051
:101EB00002208DF807006946084800F02DFA4FF41B
:101EC0000071064800F09CFA1CBD000000040240AE
:101ED00000100240000C02400000024000080240D6
:101EE0000018024000BFFEE739B1084A126801231A
:101EF00083401A43054B1A6006E0044A1268012326
:101F000083409A43014B1A60704700000074004000
:101F100030B5002200230A4C226840F6FE7484404B
:101F2000A243D1E900452C438D682C43CD6844EA97
:101F3000050303FA00F42243014C226030BD000087
:101F40000074004008B500220092054A009200F19A
:101F50000802009B1A440092009A116008BD00001C
:101F60000074004008B500220092054A009200F17A
:101F70001402009B1A440092009A116008BD0000F0
:101F80000074004000B587B00121084600F08AFACD
:101F90000121480700F096FA1020059003208DF8E3
:101FA000180002208DF81B0005A90B4800F0B4F9B9
:101FB00000200190029003900220049001A90020CB
:101FC000FFF7A6FF01210020FFF78EFF0021084642
:101FD000FFF7B8FF07B000BD0000024000B587B0B2
:101FE0000121084600F05EFA0121480700F06AFA74
:101FF0002020059003208DF8180002208DF81B008A
:1020000005A90B4800F088F9002001900290039088
:102010000220049001A91020FFF77AFF012110206F
:10202000FFF762FF00210846FFF79CFF07B000BDE5
:1020300000000240704710B50A2001F0B3F90120FA
:1020400000F014F9012000F00BF910BD10B50A20C2
:1020500001F0A8F9022000F009F9022000F000F9CF
:1020600010BD10B50A2001F09DF9042000F0FEF823
:10207000042000F0F5F810BD10B50A2001F092F927
:10208000082000F0F3F8082000F0EAF810BD10B5C1
:102090000A2001F087F9102000F0E8F8102000F085
:1020A000DFF810BD10B5202000F0E0F8012805D1C0
:1020B0000A2001F077F9202000F0D2F8402000F04B
:1020C000D5F8012805D10A2001F06CF9402000F074
:1020D000C7F8802000F0CAF8012805D10A2001F0D5
:1020E00061F9802000F0BCF810BD000000B585B09B
:1020F0000121084600F0D6F90121042000F0D2F9B0
:102100004F20039000208DF8100003208DF811005F
:1021100001208DF8130003A94F4800F0FDF80E20B0
:10212000039000208DF8100003208DF8110001208D
:102130008DF8130003A9494800F0EEF80121880347
:1021400000F0D0F90021032000F0E6FA012103207D
:1021500000F0E2FA0221032000F0DEFA0321084633
:1021600000F0DAFA0421032000F0D6FA052103205A
:1021700000F0D2FA0621032000F0CEFA0721032056
:1021800000F0CAFAFF20019000208DF808000C2012
:102190008DF8090001208DF80A0001A800F072F8FE
:1021A00006208DF8000000208DF8010002208DF837
:1021B000020001208DF80300684600F02BF907208B
:1021C0008DF8000001208DF8010002208DF802003A
:1021D00001208DF80300684600F01CF908208DF8F6
:1021E000000002208DF801008DF8020001208DF81A
:1021F0000300684600F00EF909208DF80000032066
:102200008DF8010002208DF8020001208DF80300F6
:10221000684600F0FFF80A208DF8000004208DF8D1
:10222000010002208DF8020001208DF803006846AD
:1022300000F0F0F817208DF8000005208DF801005F
:1022400002208DF8020001208DF80300684600F09E
:10225000E1F805B000BD00000000024000080240A7
:102260000149086070470000143C0140014600200D
:10227000034A12680A400AB1012000E000207047BA
:10228000143C0140002123498279002A3AD00A46B1
:10229000126803689A430B461A600A1D12680368A5
:1022A0009A430B1D1A60027911440A6803681A43A5
:1022B0000A60184A0832126803689A43154B0833BB
:1022C0001A601A1D126803689A43124B0C331A6085
:1022D0004279102A0ED11A1F126803681A430D4B57
:1022E00008331A601A1D126803681A43094B0C332D
:1022F0001A600DE00749427911440A6803681A43DD
:102300000A6005E0027911440A6803689A430A608A
:1023100070470000003C0140F0B50A460021002350
:10232000002400BF3DE0012505FA01F3156805EA28
:1023300003049C4234D105684F000326BE40B543D8
:10234000056015794E00B54006683543056015797E
:10235000012D02D01579022D16D185684F00032674
:10236000BE40B543856055794E00B540866835431B
:102370008560456801268E40B5434560456896797D
:102380008E40B6B235434560C5684F000326BE4057
:10239000B543C560D5794E00B540C6683543C560C4
:1023A000491C1029BFD3F0BDF0B5002300244D0710
:1023B000ED0E02FA05F3CE1000F1200555F8265077
:1023C0004E07F70E0F26BE40B543CF1000F1200692
:1023D00046F82750CE1000F1200555F8265045EA62
:1023E0000304CE1000F1200545F82640F0BD02465A
:1023F000002013690B400BB1012000E00020704762
:10240000418370470183704700BFFEE700BFFEE7CE
:102410007047000070B5002100230F22C4781CB360
:10242000174C246804F4E064C4F5E064C4F30721A5
:10243000C1F10404E3B20A4144789C40E1B28478DB
:10244000144021430C07210E0E4C05786155047889
:1024500004F01F050124AC4005786D11AD0005F1B5
:10246000E025C5F8004109E0047804F01F050124C7
:10247000AC40054D0678761145F8264070BD000049
:102480000CED00E000E400E080E100E002490143DF
:10249000024A1160704700000000FA050CED00E0F0
:1024A0007047000029B1064A12680243044B1A60C3
:1024B00004E0034A12688243014B1A60704700002F
:1024C0003038024029B1064A12680243044B1A60B0
:1024D00004E0034A12688243014B1A60704700000F
:1024E0004038024029B1064A12680243044B1A6080
:1024F00004E0034A12688243014B1A6070470000EF
:1025000044380240F0B500210022002402250026B4
:102510000223324F3F6807F00C0121B1042905D096
:10252000082937D105E02E4F076036E02D4F0760B0
:1025300033E02A4F3F1F3F68C7F38056274F3F1FA6
:102540003F6807F03F036EB1264FB7FBF3F7DFF8A4
:102550008CC0ACF1040CDCF800C0CCF3881C07FB89
:102560000CF40CE01E4FB7FBF3F7DFF870C0ACF1D2
:10257000040CDCF800C0CCF3881C07FB0CF4174FEC
:102580003F1F3F68C7F301477F1C7D00B4FBF5F791
:10259000076002E0124F076000BF00BF0F4F3F68A7
:1025A00007F0F0010909104F7A5C0768D7404760CF
:1025B0000A4F3F6807F4E051890A0B4F7A5C47687D
:1025C000D7408760054F3F6807F46041490B064FCD
:1025D0007A5C4768D740C760F0BD00000838024009
:1025E0000024F40000127A002200002000B589B017
:1025F00001212020FFF756FF01214804FFF772FF59
:102600004020079002208DF8200000208DF8220045
:1026100003208DF8210002208DF8230007A921480E
:10262000FFF77AFE032206211E48FFF7BDFEA72012
:10263000ADF80C000020ADF80E00401E0490002004
:10264000ADF8140003A9184800F0C4FB0020ADF851
:102650000000ADF802000120ADF804000020ADF844
:1026600006000320ADF8080069460F4800F03AFB69
:10267000012203210C4800F06CFB01210A4800F004
:1026800011FB19208DF8180001208DF81900032086
:102690008DF81A0001208DF81B0006A8FFF7BAFE7E
:1026A00009B000BD001402400044014010B50020F4
:1026B000154B1B7803F040032BB3144B1B68190E0A
:1026C000124B1B68C3F30742D343DBB28B420BD1DF
:1026D00051B90E4B1B88C3F307210C4B1A78D34317
:1026E000DBB28B4200D1084620B1074B1B7803F0C8
:1026F000800343B9044B1B7823F04003024C237042
:102700000023034C237010BD0C000020100000209B
:10271000140000207047000030B500228B071C0F0A
:102720000F2303FA04F20B4B8C1053F8243093431D
:10273000084C8D1044F8253023468C1053F8243073
:102740008C07240F00FA04F42343024C8D1044F844
:10275000253030BD083801400CB5002001900090B4
:102760003448006840F480303249086000BF314886
:10277000006800F4003000900198401C019000981F
:1027800018B90198B0F5A04FF1D12A48006800F4BB
:10279000003010B10120009001E00020009000986E
:1027A000012846D123484030006840F0805021493C
:1027B000403108602048006840F440401E490860ED
:1027C0001C48083000681B4908310860084600684A
:1027D00040F4004008600846006840F4A0500860DB
:1027E0001648091F0860081F006840F08070091F24
:1027F000086000BF0F48006800F000700028F9D0A2
:1028000040F205700E4908600A480830006820F060
:1028100003000849083108600846006840F00200DB
:10282000086000BF03480830006800F00C0008286A
:10283000F8D10CBD00380240007000400854400739
:10284000003C0240042808D14FF0E021096941F022
:1028500004014FF0E022116107E04FF0E021096927
:1028600021F004014FF0E022116170477047000031
:1028700010B51548006840F470001349086013480B
:10288000006840F001001149086000200F4908313C
:1028900008600E4800680E4908400C4908600D4861
:1028A000091D0860081F006820F48020091F0860C7
:1028B000002006490C310860FFF74EFF4FF0006022
:1028C00001498039086010BD88ED00E00038024001
:1028D000FFFFF6FE10300024F0B50C46154600212F
:1028E0000022068C4FF6FE773E400684018B028C58
:1028F0004FF60C7631407E1C06EA03162E43314318
:102900004FF6F576324044F00106324301830284EB
:10291000F0BDF0B50C461546002100220026078CBC
:102920004FF6EF7C07EA0C070784018B028C4FF609
:10293000FF7707EA041640F6FF4739404FF6FF7766
:1029400007EA033739434FF6FF7707EA052739438C
:102950004FF65F773A4046F010073A43018302840E
:10296000F0BDF0B50C461546002100220026078C6C
:102970004FF6FF6C07EA0C070784818B028C4FF639
:10298000FF7707EA04264FF60C7739404FF6FF77BA
:1029900007EA03172F4339434FF2FF573A4046F4F3
:1029A00080773A4381830284F0BDF0B50C4615462A
:1029B000002100220026078C4EF6FF7C07EA0C0758
:1029C0000784818B028C4FF6FF7707EA043640F6C6
:1029D000FF4739404FF6FF7707EA052739434FF69F
:1029E000FF7707EA0337394345F6FF773A4046F465
:1029F00080573A4381830284F0BD000010B5012165
:102A00005E4800F05EF9F8B15D48007800F08000A3
:102A1000D0B15B48007820F0100059490870084692
:102A2000007800F00F0020B90846007840F0400020
:102A300008705348007800F00F000E2805DA50485F
:102A40000078401C4E4908700AE04D48007820F09C
:102A500080004B4908700846007800F0F0000870CC
:102A60000221464800F02DF9002810D045480068A2
:102A700070B10221414800F075F900213F4800F093
:102A80007AF93F48007840F010003D49087070E046
:102A90003A4800F013F93C4908800021374800F01B
:102AA00061F93748007800F0100000285BD0344806
:102AB000007800F08000E8B333480088B0F5967FD6
:102AC0000DDD31480088B0F5487F08DA2F480068EE
:102AD00040002E49086008460068086043E02A4824
:102AE0000088B0F5AF6F0FDD27480088B0F5E16FC3
:102AF0000ADA264800684000244908600846006851
:102B000040F0010008602EE01F48008840F6980160
:102B1000884228DD1C48008840F62821884222DAB5
:102B20001B480078401C1A4908701548007800F0CE
:102B3000F00000E002E01249087014E0124800883A
:102B400041F2680188420EDD0F48008841F25C21A5
:102B5000884208DA0A48007840F080000849087086
:102B600000200B4908700648007820F01000044946
:102B700008700321014800F08FF810BD00440140A7
:102B80000C000020188242420E000020100000209D
:102B90001400002010B53048007800F080000028B4
:102BA00054D101212D4800F08CF8D0B12A4800788A
:102BB00000F04000A8B12848007800F03F003F280E
:102BC0000AD12548007840F08000234908704FF072
:102BD000FF302349086004E01F480078401C1E496C
:102BE000087002211D4800F06CF878B31A4800788C
:102BF00000F0400078B11848007840F08000164995
:102C00000870164800F05AF815490860002113486A
:102C100000F0A8F81AE000200F4908701049086079
:102C20000D48007840F040000B49087000210B4827
:102C300000F038F80021094800F09DF8022107480B
:102C400000F090F80121054800F02CF8032103481A
:102C500000F025F810BD000004000020000C00402A
:102C60000800002010B50121094800F02AF868B1D9
:102C70000848008840F400400649088001210448C3
:102C800000F00DF80021024800F00CF810BD000023
:102C90000014004000000020CA4302827047CA436B
:102CA0000282704721B1028842F00102028004E0F2
:102CB00002884FF6FE731A40028070470146486B47
:102CC000704730B50246002000230024158A05EA2B
:102CD0000103958905EA010413B10CB1012000E05C
:102CE000002030BD70B505460C46208850B92389B8
:102CF000A28861882846FFF7EFFDE188284600F0AA
:102D00003CF825E0208804280AD12389A28861881C
:102D10002846FFF7FEFDE188284600F037F817E067
:102D2000208808280AD12389A28861882846FFF7CD
:102D300018FEE188284600F036F809E02389A288C9
:102D400061882846FFF731FEE188284600F034F814
:102D500070BD1AB183890B43838102E083898B4361
:102D6000838170470A460021018C4FF6FD7319409C
:102D700011430184704741627047028B4FF6F37331
:102D80001A400283028B0A4302837047028B4FF280
:102D9000FF331A400283028B4FF6FF7303EA0123CD
:102DA0001A4302837047828B4FF6F3731A40828373
:102DB000828B0A4382837047828B4FF2FF331A4023
:102DC0008283828B4FF6FF7303EA01231A438283C7
:102DD0007047000000220288184B98420ED0184B12
:102DE00098420BD0B0F1804F08D0164B984205D0D6
:102DF000154B984202D0154B984204D14FF68F7371
:102E00001A404B881A43124B984207D0114B9842F4
:102E100004D04FF6FF431A400B891A4302804B68D7
:102E2000C3620B880385054B984202D0044B98423D
:102E300001D18B7A03860123838270470000014011
:102E4000000401400004004000080040000C004065
:102E5000001000400014004010B540F225511D48FC
:102E600000F082F810B31B4800F038F9C4B21A48D9
:102E7000008800F40040C8B91748008800F480407A
:102E800060B10A2C03D000201349088020E01248CA
:102E9000008840F400401049088019E00D2C06D14C
:102EA0000D48008840F480400B49088010E00A4833
:102EB0000088C0F30D0009490C5407480088401CE5
:102EC0000549088008460088C72801DD00200880E1
:102ED00010BD000000100140200000205803002019
:102EE00010B540F22551164800F03EF800B31448E2
:102EF00000F0F4F8C4B21348008800F40040B8B9F8
:102F000010480088B0F5C87F13DA00210E48FFF79B
:102F100032FF0C48008818B901210B48FFF7C2FEA8
:102F2000084801880088401C064A1080074844541D
:102F300005E00448008840F400400249088010BDC4
:102F4000004800400000002000140040C80100209C
:102F500021B1828942F40052828104E082894DF6D7
:102F6000FF731A408281704770B502460024002327
:102F70000025002040F66A16B14200D100BFC1F31F
:102F8000421501F01F03012606FA03F3012D02D1B9
:102F90009689334006E0022D02D1168A334001E0C3
:102FA000968A33400C12012606FA04F4168834403F
:102FB00013B10CB1012000E0002070BDF0B5034654
:102FC000002400260025002040F66A17B94200D1EF
:102FD00000BF1846C1F3421401F01F06012707FA8B
:102FE00006F5012C01D10C3004E0022C01D1103087
:102FF00000E014301AB107682F43076002E0076849
:10300000AF430760F0BD00002DE9FF4705460E46BF
:103010000024A14600BFA046B08900B100BF2C8AA1
:1030200024F44054F08804432C82AC8941F20C60B3
:103030008443B08831890843718908430443AC81D3
:10304000AC8A24F44074B0890443AC826846FFF72C
:1030500059FA2048854202D01F48854202D1DDF846
:103060000C9001E0DDF80890A88900F4004040B120
:1030700009EBC90000EB091031684900B0FBF1F71A
:1030800007E009EBC90000EB091031688900B0FBCB
:10309000F1F76420B7FBF0F004012009642101FB83
:1030A0001078A88900F4004040B1322000EBC8003D
:1030B000B0FBF1F000F00700044308E0322000EB21
:1030C00008106421B0FBF1F000F00F0004432C81E4
:1030D000BDE8FF87001001400014014001468888C8
:1030E000C0F30800704700BFFEE7000000000000CA
:1030F00030B52DED048B81B0B0EE408AF0EE608AE1
:103100006A4651EC180B00F09FF900989FED329B36
:103110007E300090002821DC53EC192B51EC180B69
:1031200001F0E2F91AD0002140F608004FF000004B
:10313000044651EC180B01F0E9F808EE100A40F6CD
:10314000080004EA00014FF00000B5EEC08AF1EE7D
:1031500010FA04BF0220FDF7C8F92DE00098FF28FF
:1031600030DB002108464FF0000000F4400553EC2E
:10317000192B51EC180B01F045FB8CBF00240124E6
:103180000220FDF7B2F99FED168A4DB1002C0CBF5D
:103190004FF400004FF48000A84218BF9FED118A41
:1031A000042108464FF00000002C01BFB1EE480A90
:1031B00001B0BDEC048B30BDB0EE480A01B0BDECEF
:1031C000048B30BD51EC180B01F0A0F801B000EEFB
:1031D000100ABDEC048B30BD0000000000000000B0
:1031E0000000807FFFFF7F7F30B583B00446FDF78E
:1031F00077F99FED090B05468DED000B0022214666
:103200006846FDF719FA2846FDF76FF99DED000BAA
:1032100003B030BD0000000000000000000000000E
:1032200030B540F2FF742DED048BF0EE608A18EE9D
:10323000901A85B0B0EE408A9FED2B9B05468DED30
:10324000008B34EA115147D053EC192B51EC180B79
:1032500001F04AF940D02A4651EC180B01F0A2FCCB
:1032600041EC180B18EE900A8DED008B34EA1050EB
:103270001CD053EC192B51EC180B01F035F92BD164
:103280000220FDF732F900F043F810EE901A18EE24
:10329000900A8DED020B8DED008B61F31E00039003
:1032A0009DED020B05B0BDEC048B30BD0220FDF797
:1032B0001CF900F01DF810EE901A18EE900A8DED32
:1032C000020B8DED008B61F31E0003909DED020B50
:1032D00005B0BDEC048B30BD05B0B0EE480AF0EE91
:1032E000680ABDEC048B30BD000000000000000047
:1032F0009FED050B10B553EC102B51EC100B01F0AA
:1033000083F941EC100B10BD0000000000000070BC
:103310009FED050B10B553EC102B51EC100B01F089
:1033200073F941EC100B10BD00000000000000100C
:1033300010B5044691ED000BFFF7DAFE84ED000AAC
:1033400010BD10B5044690ED000B0846FFF768FF6E
:1033500084ED000B10BD30380A2801D201207047DF
:103360000020704700BF704710B504466FF004009E
:10337000FFF768FAE11704EB5171C1F3C701074A7F
:1033800011701046007800EB4001C1EBC0104FF601
:10339000FF7101EAC0000249088010BD160000203C
:1033A0001800002070B504464FF4077094FBF0F04D
:1033B000C6B24FF4077094FBF0F100FB114085B2E8
:1033C00005E04FF4077000F009F8701EC6B2002E39
:1033D000F7D115B1284600F001F870BD0146114A39
:1033E00012884A434FF0E0235A6100229A611A463C
:1033F000126942F001021A6100BF4FF0E022106929
:1034000000F001021AB100F48032002AF5D04FF02A
:10341000E022126922F001024FF0E0231A6100223B
:103420009A6170471800002000BF054A128802F018
:103430004002002AF9D0C2B2014B9A8070470000C6
:10344000001001400000000010B582B01446CDE924
:1034500000010023009A2360194B21F0004098429C
:103460002ADA024328D0B0F5801FA8BF226810DAFC
:103470009FED150B53EC102B9DED000B51EC100B39
:1034800001F0C2F8CDE900016FF0350221F00040F3
:1034900022600F4B6FF31E5103EB2050104420604D
:1034A00041F0FF5040F0005001909DED000B00BF37
:1034B00002B051EC100B10BD9DED000BF8E70000C1
:1034C0000000F07F000000000000000000005043FA
:1034D00002FCFFFF2DED108B8CB04FF4A060FEF7C7
:1034E000D5FFA820FFF740FF4FF4165000F08CFEE8
:1034F000FEF746FBFEF7FAFDFFF778F8FEF742FD10
:10350000FEF76CFD00240025A2460026A046F6E347
:103510000A20FFF747FF0121FE48FEF768FF20B9A8
:103520004021FC48FEF763FF18B10121FA48FEF77D
:1035300067FF0821F948FEF75AFF20B90821F5482E
:10354000FEF755FF18B18021F548FEF759FF042119
:10355000F248FEF74CFF30B1012C04D12102F148B2
:10356000FEF74EFF03240421EA48FEF740FF30B186
:10357000022C04D1E101EB48FEF742FF04240221B2
:10358000E648FEF734FF30B1012D04D14021E64872
:10359000FEF736FF03250221DE48FEF728FF30B193
:1035A000022D04D14021E048FEF72AFF0425DF4820
:1035B000008800F4004000287ED0DC4800780B90A2
:1035C000DB48007861281FD10121D248FEF70FFFA8
:1035D00018B1D8A0FCF75CFE16E00121CE48FEF73A
:1035E00011FF4FF48071CE48FEF70AFF4FF40071CF
:1035F000CB48FEF707FF4021C648FEF7F8FE18B19A
:103600004FF4FA70FFF7CEFEC9480078622803D164
:103610000121C148FEF7F4FEC548007863281FD198
:103620004021BC48FEF7E3FE18B1C3A0FCF730FE12
:1036300016E00121B848FEF7E5FE4FF48071B84866
:10364000FEF7E0FE4FF40071B548FEF7D9FE012108
:10365000B048FEF7CCFE18B14FF4FA70FFF7A2FEA7
:10366000B3480078642803D10121AB48FEF7C8FEB7
:10367000AF48007865281ED10821A848FEF7B7FE9C
:1036800018B1AEA0FCF704FE15E08021A448FEF7B7
:10369000B9FE4FF48061A248FEF7B2FE4FF400611C
:1036A0009F48FEF7AFFE08219A48FEF7A0FE10B132
:1036B0006420FFF777FE00E0C2E39D4800786628AB
:1036C00003D180219648FEF79BFE99480078672831
:1036D0001ED108218F48FEF78AFE18B198A0FCF78A
:1036E000D7FD15E080218E48FEF78CFE4FF48061F7
:1036F0008B48FEF787FE4FF400618948FEF780FE95
:1037000008218648FEF773FE10B16420FFF74AFED9
:1037100087480078682803D180218148FEF770FE31
:103720008348007869280ED14FF480417C48FEF729
:1037300069FE4FF400517A48FEF762FE4FF4805163
:103740007748FEF75FFE7A4800786A2804D14FF484
:1037500080417348FEF754FE754800786B280ED1FF
:103760004FF480416E48FEF74DFE4FF400516C4817
:10377000FEF748FE4FF480516948FEF741FE6C4861
:1037800000786C2804D14FF480416548FEF738FE7C
:10379000674800786D281AD104216048FEF727FE9B
:1037A00038B1012C01D0032C03D166A0FCF770FDC9
:1037B0000DE04FF480715B48FEF724FE80215548F0
:1037C000FEF71EFE40215548FEF71CFE0124584816
:1037D00000786E281AD104214E48FEF708FE38B151
:1037E000022C01D0042C03D157A0FCF751FD0DE0B1
:1037F0004FF480714B48FEF705FE80214548FEF7E7
:1038000001FE40214548FEF7FBFD022448480078B0
:103810006F281AD102214148FEF7E9FD38B1012D88
:1038200001D0032D03D149A0FCF732FD0DE040216A
:103830003D48FEF7E7FD4FF480413748FEF7E0FDD5
:1038400080213648FEF7DEFD0125394800787028D2
:103850001AD102212F48FEF7CAFD38B1022D01D03E
:10386000042D03D13AA0FCF713FD0DE040212E48B2
:10387000FEF7C8FD4FF480412748FEF7C3FD8021C5
:103880002648FEF7BDFD022529480078312816D1CB
:103890004FF400512248FEF7B5FD4FF48051204807
:1038A000FEF7AEFD4FF480411D48FEF7ABFD0F2043
:1038B000FFF778FD4FF480411948FEF7A1FD1C4841
:1038C0000078322816D14FF400511548FEF79AFDC2
:1038D0004FF480511248FEF793FD4FF48041104899
:1038E000FEF790FD1E20FFF75DFD4FF480410C4870
:1038F000FEF786FD0E480078332838D14FF400518A
:103900000748FEF77FFD4FF480510548FEF778FD2C
:1039100020E00000000002400004024000080240D5
:1039200000100240000C024000180240200000205D
:1039300058030020464C0000465200005A4C00003C
:103940005A520000434C0000435200004C4C00000F
:103950004C5200004FF48041F848FEF753FD2D20F3
:10396000FFF720FD4FF48041F448FEF749FDF4488D
:103970000078342816D14FF40051F048FEF740FD8E
:103980004FF48051ED48FEF73DFD4FF48041EB4888
:10399000FEF738FD0F20FFF705FD4FF48041E748A3
:1039A000FEF72EFDE6480078352816D14FF4005179
:1039B000E248FEF725FD4FF48051E048FEF722FD76
:1039C0004FF48041DD48FEF71DFD1E20FFF7EAFCA5
:1039D0004FF48041D948FEF713FDD94800783628C6
:1039E00016D14FF40051D548FEF70AFD4FF480512F
:1039F000D248FEF707FD4FF48041D048FEF702FDA4
:103A00002D20FFF7CFFC4FF48041CC48FEF7F8FCA7
:103A1000CB4800787A287DD100200A90C9A1C848F7
:103A2000FCF750FD0A90C7A10020FCF74BFD0A905F
:103A30000A98FCF739FD00F0FF09C2A10020FCF74D
:103A400041FD0A900A98FCF72FFD00F0FF0BBDA185
:103A50000020FCF737FD0A900A98FFF7C5FBB0EE8F
:103A600040CAF0EE60CA51EC1C0B00F04FFC09EEAE
:103A7000100AB4A10020FCF725FD0A900A98FFF770
:103A8000B3FBB0EE40CAF0EE60CA51EC1C0B00F084
:103A90003DFC0EEE100AABA10020FCF713FD0A90CE
:103AA0000A98FFF7A1FBB0EE40CAF0EE60CA51ECF5
:103AB0001C0B00F02BFC09EE900AA2A10020FCF7E1
:103AC00001FD0A900A98FFF78FFBB0EE40CAF0EEB6
:103AD00060CA51EC1C0B00F019FC0AEE900A99A187
:103AE0000020FCF7EFFC0A900A98FFF77DFBB0EE90
:103AF00040CAF0EE60CA51EC1C0B00F007FC0DEE62
:103B0000100A90A10020FCF7DDFC0A900A98FCF74F
:103B1000CBFC00E090E1C0B208EE900A89A1002041
:103B2000FCF7D0FC0A900A98FCF7BEFCC0B20990E2
:103B300084A10020FCF7C6FC0A900A98FCF7B4FCAC
:103B4000C0B2089000200790069005900490B5EE52
:103B5000C09AF1EE10FA22D17AA1FCF7B3FC0A90D8
:103B60000A98FCF7A1FC079076A10020FCF7AAFCBC
:103B70000A900A98FCF798FC069072A10020FCF7C6
:103B8000A1FC0A900A98FCF78FFC05906DA100201B
:103B9000FCF798FC0A900A98FCF786FC0490DFED8D
:103BA0006ADAB5EEC09AF1EE10FA02D1F0EE4EDA12
:103BB00003E02EEE090AF0EE40DAABF1010000EE70
:103BC000100AB8EEC00ACDEE800ACDED030A0398C4
:103BD00000F038FF41EC1B0B9FED5B8A19EE900A59
:103BE00000F030FF41EC1C0B53EC1B2B00F0C0FB32
:103BF00041EC1F0B00F08AFB0AEE100A0027B9F116
:103C0000000F04D100210846FEF79CF903E00021D3
:103C10000846FEF7A7F9EEE0B7B9B4EEE98AF1EE8F
:103C200010FA11DB0898FFF7BDFB48A0FCF730FB4A
:103C3000B8EE680A3DEE000ABCEEC00A10EE101A9B
:103C400088B2FFF7AFFB7F1CB4EECA8AF1EE10FA20
:103C500036DBB0EE4A8A0898FFF7A4FB3BA0FCF7DE
:103C600017FBB8EE680A3DEE000ABCEEC00A10EE83
:103C7000101A88B2FFF796FB7F1C384600F070FCE4
:103C800053EC1B2BCDE900019DED000B51EC100B0B
:103C900000F0BAFC41EC1C0B19EE900A00F0D2FEC9
:103CA00053EC1C2BCDE902019DED020B51EC100BE6
:103CB00000F05EFB41EC1F0B00F028FB0AEE100A3F
:103CC0005F4574D1B5EEC09AF1EE10FA08D10498B0
:103CD00000901FA0DDE905320799FCF7D9FA02E050
:103CE0001FA0FCF7D5FAB8EE680A3DEE000ABCEE5C
:103CF000C00A10EE101A88B2FFF754FB40E066E2EB
:103D0000F1EE040AB0EE480A0AEEE00AB0EE408A8C
:103D10009FED140A28EE000AF2EE040A80EE201A43
:103D2000B0EE41CAB9F1000F1ED1BCEECC0A10EEC4
:103D3000100A81B20020FEF705F91DE000100240D4
:103D4000580300202D0000000000000074700000E7
:103D500063632D25642D25642D25642D25640000C5
:103D60006370000000008045BCEECC0A10EE100A23
:103D700081B20020FEF7F6F80998FFF713FB00BFA9
:103D8000B1EE040A2AEE800AB4EEC80AF1EE10FA87
:103D9000B6D9B9F1000F05D100210846FEF7D2F8D7
:103DA00004E004E000210846FEF7DCF842E038EECB
:103DB0002A0AB0EE408A1FED150A28EE000AF2EE3C
:103DC000040AC0EE20EAB9F1000F08D1BCEEEE0AF9
:103DD00010EE100A81B20020FEF7B4F807E0BCEE46
:103DE000EE0A10EE100A81B20020FEF7BBF8099827
:103DF000FFF7D8FA00BF39EEAD0A10EE101A0846E8
:103E000000F020FE41EC1C0B53EC1B2B00F0B0FA31
:103E100041EC1F0B18EE100A00F014FE53EC1F2BA0
:103E2000CDE902019DED020B51EC100B00F0B0FB4F
:103E3000FFF4F2AE00BF00BF0020EA49088000BFD7
:103E4000FEF734FC8246BAF1000F7DD0BAF14A0F7A
:103E50007BD011DCBAF1300F4FD006DCBAF1100F75
:103E600074D0BAF1180F47D182E0BAF1380F6ED092
:103E7000BAF1420FF7D16CE1BAF1520F68D0BAF142
:103E80005A0F66D0BAF1680F03D0BAF17A0FEAD1AF
:103E9000ACE0B8F1010F0AD04021D348FEF7A7FAF1
:103EA00028B14FF00108AFF27050FCF7F1F9012E84
:103EB00022D001268021CD48FEF7A2FAB103CB48DB
:103EC000FEF79EFA4021C848FEF791FAA0B90121F9
:103ED000C748FEF797FA3102C448FEF793FA710219
:103EE000C248FEF78DFA0121BF48FEF780FA18B1EB
:103EF0004FF4FA70FFF756FA69E1B8F1020F0AD0F1
:103F00000121B948FEF773FA28B14FF00208AFF269
:103F1000DC50FCF7BDF9022E29D002268021B348DF
:103F2000FEF76EFA7103B148FEF76AFA0121AE4856
:103F3000FEF75DFAD8B90121AD48FEF763FAF10149
:103F4000AA48FEF75DFA05E042E134E189E0ABE022
:103F500037E1CCE03102A548FEF754FA4021A248EF
:103F6000FEF745FA18B14FF4FA70FFF71BFA2EE18D
:103F7000B8F1030F0AD008219B48FEF738FA28B1A0
:103F80004FF00308AFF24860FCF782F9032E2CD003
:103F9000032601219648FEF733FA4FF480419348F7
:103FA000FEF72EFA08219048FEF721FAE8B98021A1
:103FB0008E48FEF727FA4FF480618C48FEF722FA0C
:103FC0004FF400618948FEF71BFA08218948FEF783
:103FD0000EFA18B16420FFF7E5F902E03220FFF78E
:103FE000E1F980218148FEF70BFAF0E0B8F1040F07
:103FF0000AD008217F48FEF7FAF928B14FF00408EB
:10400000AFF2C860FCF744F9042E29D00426012140
:104010007748FEF7F5F931037448FEF7F1F9082106
:104020007448FEF7E4F9D8B980217048FEF7EAF940
:1040300031026E48FEF7E4F971026C48FEF7E2F9CE
:1040400008216948FEF7D3F918B16420FFF7AAF9EF
:1040500002E03220FFF7A6F980216448FEF7D0F98C
:10406000B5E0052E1FD0052601216148FEF7C8F9ED
:1040700080215E48FEF7C4F94FF480415B48FEF7AB
:10408000C1F94FF400515948FEF7BAF94FF4805185
:104090005648FEF7B7F93220FFF784F94FF4804114
:1040A0005248FEF7ADF992E0062E1FD006260121F8
:1040B0004F48FEF7A5F980214C48FEF7A1F94FF4CF
:1040C00080414A48FEF79EF94FF400514748FEF7F9
:1040D00099F94FF480514548FEF792F93220FFF7E5
:1040E00061F94FF480414148FEF78AF96FE01CB155
:1040F000032C01D0042C2BD101213D48FEF780F97F
:1041000080213A48FEF77CF94FF480413748FEF7AA
:1041100077F9032C0ED14FF480713748FEF772F90E
:1041200080213148FEF76EF940213248FEF768F9E8
:1041300002240DE04FF480712F48FEF763F98021CF
:104140002948FEF75DF940212A48FEF75BF9012472
:104150003DE01DB1032D01D0042D2BD101212448B8
:10416000FEF74EF980212148FEF74AF94FF48041CD
:104170001E48FEF745F9032D0ED140211F48FEF7DA
:1041800041F94FF480411A48FEF73CF98021194863
:10419000FEF736F902250DE040211848FEF732F906
:1041A0004FF480411248FEF72BF980211148FEF7A9
:1041B00029F901250BE01EB9072611A0FCF768F8C4
:1041C00005E01EB908260FA0FCF762F800BF06E064
:1041D0002EB10026B04601210548FEF711F9FFF780
:1041E00097B90000200000200000024000100240AB
:1041F0000004024000080240000C02400018024087
:10420000390000003800000010B588B004460121D4
:104210000846FEF747F901211020FEF763F907224F
:1042200009212248FEF7C0F807220A211F48FEF79D
:10423000BBF84FF4C060069002208DF81C008DF88A
:104240001D0000208DF81E0001208DF81F0006A91A
:104250001648FEF761F802940020ADF80C00ADF8A6
:104260000E00ADF81000ADF814000C20ADF81200EF
:1042700002A90F48FEF7C8FE01210D48FEF768FEAF
:10428000012240F225510A48FEF798FE25208DF8BC
:10429000040003208DF805008DF8060001208DF83C
:1042A000070001A8FEF7B6F808B010BD00000240F4
:1042B0000010014010B500290AD00878002807D066
:1042C00005487844FCF71CFE002801D0002010BDF2
:1042D0000248784410BD0000520A00004A0A00005B
:1042E00010B500290AD00878002807D0054878447E
:1042F000FCF706FE002801D0002010BD02487844DB
:1043000010BD0000420A00003A0A000021F00042FD
:10431000A2F16052B2F5801F01F0004328BFD2F134
:104320007F6C0BD95FEA001C43EAC20242EB50707B
:1043300018BF704728BF20F001007047B2F5801FFA
:10434000BCBF184670474FEA410C1CF5001F02D253
:10435000084600F0EDBB70B500F000FA00000089DF
:10436000FFF7F6BF4FF00040A0F580007047000057
:1043700010B591EA030F48BF83F0004300F180823B
:10438000841A71EB030C05D2121943EB0C03001BCA
:1043900061EB0C01DFF824E14FEA1154A4EB135C4C
:1043A0001EEA430F18BF9EEA445F73D023EA0E0350
:1043B000DCF1200E21EA045143F4801332D322FAB7
:1043C0000CFE10EB0E0023FA0CFE41EB0E01CCF1BB
:1043D000200E03FA0EFE10EB0E0051F10001B1F5B4
:1043E000801FCCF1200E32D201EB045112FA0EF2F2
:1043F000BDE8104058BF7047401C38BF5FEA42021A
:1044000018BF7047002814BF20F0010041F10001DF
:104410004FEA410313F5001F38BF7047A1F1C041B7
:1044200000F0EAB9012A43EB0302ACF1200CDCF105
:104430001F0E32BF4FF0000E23FA0CF310EB0300F7
:1044400041EB0451B4EB115FD0D0A1EB045101F565
:10445000801149085FEA300001EB04510ED350F19E
:10446000000038BF12FA0EFE08D1BDE81040C9E7BF
:10447000401C38BF5FEA4202CAD1C3E7BDE8104022
:104480004FEA410313F5001F38BF7047A1F1C04147
:1044900000F0B2B99EEA445F08D011EA5E0FBDE8B1
:1044A000104004BF01F0004100207047BDE81040FB
:1044B00070B500F053F900BF64FBBE3E0000E0FFA2
:1044C00002494FF0000000F03BBB00BF0000F87F46
:1044D000491058BFC1F140415B1058BFC3F1404380
:1044E0008B42EFF30080704751EA030C17D41CF5A0
:1044F000801F58BFBCF5801F00F10680994218BF8D
:10450000704708BF9042704707D711F5801F58BF0A
:1045100013F5801F19D499427047894270471CF5E2
:10452000801F08D5BCF5801FF7D58B4218BF704798
:1045300008BF824270474FF4001C1CEB410F38BF8C
:104540001CEB430F01D28B42704770B500F006F9A7
:10455000922449004FF000514FF08053FFF7B8BF4D
:1045600010F0004248BF4042B0FA80F310FA03F165
:104570000AD0C3F11D0303F580634FEA415002EBFB
:10458000035202EBD12170474FF00000704700004A
:1045900051EA030C17D41CF5801F58BFBCF5801FCF
:1045A00000F10680994218BF704708BF90427047DB
:1045B00007D711F5801F58BF13F5801F19D49942F2
:1045C0007047894270471CF5801F08D5BCF5801FD5
:1045D000F7D58B4218BF704708BF824270474FF42F
:1045E000001C1CEB410F38BF1CEB430F01D28B4268
:1045F000704770B500F0B2F8922449004FF00051B6
:104600004FF08053FFF764BFDFF848C170B51CEA74
:10461000111E1EBF1CEA13159EEA0C0F95EA0C0F23
:1046200000F06F8081EA030423EA4C134EEAD47E43
:1046300021EA4C1141F4801143F48013AE44A1FBF4
:10464000024CA0FB0365AEF17F7E361955EB0C05DD
:10465000A1FB034C4CF10003A0FB021C16EB0C0663
:10466000654153F10003094218BF46F0010613F4F7
:10467000007F0BD14FEA03314FEA0530340341EAA2
:10468000155140EA16506FF003020AE04FEAC321C9
:104690004FEAC520F40241EA555140EA56506FF006
:1046A000020202EB2E4201EB025585EACE710AD0DE
:1046B0005FEA440C18BF24F0004450F1000041F1BF
:1046C000000120EAD47040F2FE7C624500D270BD49
:1046D000A84214BF4FF080444FF04044002E08BF62
:1046E0000024BEF1806FA8BFA1F1C041BDE87040B9
:1046F00080F282804FF0000001F1C04101F00041E2
:1047000070479EEA0C0F0CEA131518BF95EA0C0FC0
:1047100006D04FF0000081EA030E0EF0004170BD9C
:1047200000F01CF88900013E00F007B800F009B85D
:104730004FEA430C5FEA5C5C08D081EA030100F0B9
:104740005BB84FEA410C5FEA5C5CF6D14FF00000C9
:10475000014970470000FF070000F87F0EF1020ECC
:104760002EF0030E5EF8046B364205D4012A43EBAB
:10477000030515F5001F12D8012841EB010C1CF5AB
:10478000001F0CD80ED14FEAD17C15F5001F0CEBA1
:104790004C0C0CF1020C08BF4CEBD37C04E04FF046
:1047A000080C01E04FEAD37C0CEB4C0526FA05F629
:1047B00006F00706B6F1040C06D20EEB860CBDE837
:1047C00070404CF0010C6047DFE80CF0090B02026E
:1047D0004FF000414FF00000A1F5002170BD1946D7
:1047E0001046012851EB010418BFD4F5001484BF12
:1047F000002001F0004170BD0808A0F500114FEA4B
:104800003101704753EA010C17D41CF5801F58BFC3
:10481000BCF5801F00F106808B4218BF704708BFAF
:104820008242704707D713F5801F58BF11F5801FCC
:1048300019D48B4270479B4270471CF5801F08D5E6
:10484000BCF5801FF7D5994218BF704708BF90424A
:1048500070474FF4001C1CEB430F38BF1CEB410F9B
:1048600001D2994270470FB40CBC03BCFFF7C1BE24
:1048700010B591EA030F48BF83F000433FF580ADC8
:10488000841A71EB030C07D212198CF0004C43EB25
:104890000C03001B61EB0C01DFF8A4E14FEA11549B
:1048A000A4EB135C1EEA430F18BF9EEA445F00F0BE
:1048B000B08023EA6E03524221EA0451C3EB6E0337
:1048C00038BF5B1EDCF1200E25D322FA0CFE10EB64
:1048D0000E0043FA0CFE41EB0E01CCF1200E03FA60
:1048E0000EFE10EB0E0051F10001CCF1200E29D488
:1048F00012FA0EF201EB0451BDE8104058BF7047A8
:10490000401C1CBFB2F1004F704700280CBF491C6F
:1049100020F00100704712EB020E43EB030218BFB8
:104920004FF0010E4EEA4202ACF1200CDCF11E0EFB
:1049300054D943FA0CFE10EB0E0051F1FF31CCF1CB
:104940001E0ED5D50EF1010E12FA0EFE404141EBBE
:10495000010101EB445C5FEA5C5C10D910EBDE7096
:1049600001EB045138BFBEF1004FBDE8104018BF45
:10497000704700280CBF491C20F00100704730D25E
:104980004FEAD42C11F5001124F400641BD0B1FAC5
:1049900081F20B3AA41AA41ED2F12003914030FAFE
:1049A00003F31943904001EBCC71002C01EB04514F
:1049B000BDE81040A8BF704701F1C0414FF00000B2
:1049C00001F000417047B0FA80F310FA03F100D112
:1049D00010BDE41A173C4805C90AE4E701EB04518D
:1049E00010BD491001EB0451BDE810404FEA300002
:1049F00002E04FF0000170474A0008BF0042F8D0C3
:104A0000B2F5001F28BF704701F000414FF00000D1
:104A100070479EEA445F07D011EA5E0FBDE8104080
:104A200004BF002100207047BDE8104070B5FFF7BB
:104A300095FE00BF40DFF63E83F000411046704710
:104A40000000E0FF43004FEAD30C4FEA3C0C434028
:104A50001FBF40070CF1605113F0FE4F70471CF070
:104A6000006F03D100200CF0004170470CF00043B0
:104A700043EA507010B540EACC0000F00EF800BFD9
:104A8000000000924FEA0001FFF7B6BE4FF0004170
:104A90004FF00000A1F5002170470EF1020E2EF03C
:104AA000030E5EF8044B244204D44FEA4102B2F1F3
:104AB0007F4F11D84FEA4003B3F17F4F0CD80ED18E
:104AC0004FEAD07CB2F17F4F0CEB4C0C0CF1020C96
:104AD00008BF4CEBD17C04E04FF0080C01E04FEA3A
:104AE000D17C0CEB4C0324FA03F404F00704B4F17A
:104AF000040C06D20EEB840CBDE810404CF0010C07
:104B00006047DFE80CF0070802024FF00040A0F514
:104B1000800010BD0846420018BFD2F1807288BFE5
:104B200000F0004010BD4FF04070E1EE100A7047F9
:104B3000FF2141EAD050C00570474FF00000704798
:104B40000CF00F03092B08BF082000F05F800A2B30
:104B50000BD0082B18BF704708BF1CF0400F0AD0BD
:104B60004FF000004FF0000170471CF0400F18BFDD
:104B70004FF0004070471CF0100F08D020F0704339
:104B800000F07F4242EAD3014FEA4370704700F0E1
:104B9000604021F07F4242EA000201F07F4040EA9B
:104BA000727070474FF0FF0C4CF4E06C1CEA11532C
:104BB0001CBF9CEA030C9445C2BFDA4201EB0251D0
:104BC0007047002B0DD0BCF1000F0FD0002A01F070
:104BD0000041A4BF41F0E04141F07F614FF000008F
:104BE000704701F000414FF00000704750EA013378
:104BF0004FF09B0C18BF4CF0806C7FF461AC704799
:104C0000FBF7ACBFFCF7BCB9FCF74ABB1CF4801F38
:104C100011D01CF4E02F03D06FEACC31490070476B
:104C20004FF04050EFF3008222F0704242EA00025F
:104C300082F3008870474FF00000704704000008BE
:104C40000000000000000002000100001000000051
:104C500002400000000000A000000000054000002D
:104C6000000000C8000000000C4000000000409C54
:104C700000000000194000000020BCBE0000000041
:104C800034400000BFC91B8E00000004B540000086
:104C9000504BCFD06607E2CF010000006C4100000E
:104CA0003E8251AADFEEA73401000000D942000085
:104CB000DCB5A0E23A301F97FFFFFFFFB4450000CC
:104CC000FD25A0C8E9A3C14FFFFFFFFFFF3F000084
:104CD0000000008000000000FF3F00000000008096
:104CE00000000000404E00080000002038000000D6
:104CF000C4010008784E000838000020480A00006F
:104D0000E0010008000000000000F07FFFFFFFFF4F
:104D1000FFFFEF7F1C00000043000000F8FFFFFFD3
:104D20000C0000000E0000000F0000002E0000002C
:104D30001001000043000000F8FFFFFF004040406A
:104D4000404040404040414141414140404040405E
:104D5000404040404040404040404040400502020A
:104D600002020202020202020202020202202020C9
:104D70002020202020202002020202020202909025
:104D80009090909010101010101010101010101023
:104D90001010101010101010020202020202888877
:104DA0008888888808080808080808080808080883
:104DB000080808080808080802020202400000006B
:104DC00000000000000000000000000000000000E3
:104DD00000000000000000000000000000000000D3
:104DE00000000000000000000000000000000000C3
:104DF00000000000000000000000000000000000B3
:104E000000000000000000000000000000000000A2
:104E10000000000000000000000000000000000092
:104E20000000000000000000000000000000000082
:104E30000000000000000000000000000000000072
:104E40000000000000000000000000000000000062
:104E50000000000000000000000000000000000052
:104E60000000000000000102030401020304060721
:084E7000080900000000000029
:040000050800018965
:00000001FF
