:020000040800F2
:10000000800A0020D50200089D23000895230008DF
:1000100099230008491F00080B2F0008000000006A
:10002000000000000000000000000000B9250008EA
:100030004D1F0008000000002D24000811270008B3
:10004000EF020008EF020008EF020008EF020008CC
:10005000EF020008EF0200084F1F0008651F0008AC
:100060007B1F0008911F0008A71F0008EF0200086F
:10007000EF020008EF020008EF020008EF0200089C
:10008000EF020008EF020008EF020008EF0200088C
:10009000EF020008EF020008EF020008BD1F000891
:1000A000EF0200087D270008EF020008EF020008B9
:1000B000EF020008EF020008EF020008EF0200085C
:1000C000EF020008EF020008EF020008EF0200084C
:1000D000EF0200086D2B0008EF020008F52B000866
:1000E000EF020008EF020008EF020008EF0200082C
:1000F000EF020008EF020008EF020008EF0200081C
:10010000EF020008EF02000815290008EF020008BE
:10011000EF020008EF020008EF020008E5290008DE
:10012000EF020008EF020008EF020008EF020008EB
:10013000EF020008EF020008EF020008EF020008DB
:10014000EF020008EF020008EF020008EF020008CB
:10015000EF020008EF020008EF020008EF020008BB
:10016000EF020008EF020008EF020008EF020008AB
:10017000EF020008EF020008EF020008EF0200089B
:10018000EF020008EF02000800F002F800F092F819
:100190000AA090E8000C82448344AAF10107DA45E2
:1001A00001D100F087F8AFF2090EBAE80F0013F0A2
:1001B000010F18BFFB1A43F0010318474C3A000027
:1001C0006C3A0000103A24BF78C878C1FAD85207B8
:1001D00024BF30C830C144BF04680C6070470000C1
:1001E0000023002400250026103A28BF78C1FBD840
:1001F000520728BF30C148BF0B6070476E2900F01E
:100200006B81702900F0BF82662903F07A8465292A
:1002100003F07784672903F07484612903F0738401
:1002200003681B0A28BF41F08001692900F018818A
:10023000642900F01581752900F012816F2900F002
:100240004D82782900F08B82E92900F0E781E429CA
:1002500000F0E481F52900F0E181EF2900F04A8205
:10026000F82900F08A820368DB0928BF41F0800189
:10027000632900F08B87732900F09087E32900F051
:100280009B87F32900F0A087002070471FB503F07B
:1002900033FC00F0EFFF04000020002103F016FC07
:1002A000401C60600020002103F0FAFBE0601FBDED
:1002B00010B510BD00F0B0FF1146FFF7E7FF02F0E8
:1002C000B5FE01F089F803B4FFF7F2FF03BC02F0BA
:1002D0003DFE00000948804709480047FEE7FEE769
:1002E000FEE7FEE7FEE7FEE7FEE7FEE7FEE7FEE7E6
:1002F00004480549054A064B7047000015270008C9
:100300008901000880040020800A00208006002067
:1003100080060020704700001CB50C46064B7B444D
:1003200069460090204600F0F0F804460020694637
:1003300000F0FEF820461CBD0F0200000FB4044977
:1003400010B503AA029800F0F9F810BC5DF814FB90
:100350001C00002010B5431C02E010F8011B71B115
:100360008107FAD14FF0013202C88C1A8C4314EA8B
:10037000C211F9D0C01A0A0603D0C01E10BDC01A9F
:1003800010BD0A0401D0801E10BD0902FCD0401E21
:1003900010BD704770477047704770B50446856957
:1003A0000068C10601D5302600E02026C00707D02E
:1003B00070BDD4E9012130469047206A401C20627C
:1003C0006D1EF6D570BD70B5044685690078C0070E
:1003D00007D170BDD4E9012120209047206A401C3C
:1003E00020626D1EF6D570BD09684A0501D540B280
:1003F0007047C905FCD500B2704709684A0501D5A8
:10040000C0B27047C905FCD580B2704770B50C46C4
:100410000546012A05D02878800600D5EA69002320
:1004200002E0012305E05B1C934202D2E05C00285D
:10043000F9D1A869E618C01AA861286A1844286288
:100440002846FFF7AAFF04E0D5E9012114F8010BC3
:100450009047B442F8D32846FFF7B5FF70BD0000BF
:100460002DE9F0410646002410687529314616A58D
:1004700010D0FFF7B9FF002802DA404213A507E0C9
:1004800031688A0701D512A502E0490704D511A5F4
:10049000012401E0FFF7B1FF00210A2206F1240741
:1004A00009E0B0FBF2FCB0FBF2F302FB1C003030C1
:1004B00078541846491C0028F3D123462A46304672
:1004C000BDE8F04100F073BA000000002D0000000C
:1004D0002B0000002000000011680268006A53052C
:1004E00001D508700AE0D30501D5088006E013069F
:1004F00003D5C217C1E9000200E00860012070477F
:1005000001694A1C02610878704700B58FB0CDE9D7
:1005100001310021059105497944CDE903101146C7
:10052000684600F03BF90FB000BD0000E5FFFFFF9B
:100530000A6802F8010B0A6070470000074B70B5AB
:100540000D467B44FFF7E1FF0446284600F040FEDD
:1005500010B14FF0FF3070BD204670BDCB2A0000B7
:100560002DE9FF5F15468A460446DFF8AC80F84463
:100570000027D8E900103E46CDE9001010E03AF817
:1005800016106A4602A800F027FE411C07D0217809
:10059000890603D5E269391891420DD80744761CC3
:1005A0002078800602D5E069B84205DDAE42E6DB80
:1005B0003AF816000028E2D1A069C01BA0612046CD
:1005C000FFF7EBFED8E90010CDE90010002017E09E
:1005D0003AF818106A4602A800F0FEFDB0F1FF3F9D
:1005E00081460BD000250DF1080B05E0D4E901216F
:1005F0001BF8050090476D1C4D45F7D308F101002D
:10060000B0428046E4DB206A384420622046FFF78F
:10061000DAFEBDE8FF9F00009A3500002DE9F041A9
:100620008046D21D22F007020025D2E90002F529FA
:1006300015A614D0011E72F1000106DA0023D0EBDA
:10064000030063EB020211A608E0D8F800108B0744
:1006500001D50FA602E0490701D50EA601251146D6
:10066000002408F1240704E000F05CF930323A5528
:10067000641C50EA0102F7D12B463246214640461F
:10068000BDE8F04100F093B9000000002D0000002B
:100690002B0000002000000030B4002100F12404F1
:1006A00008E002F00705D208303542EA4372DB0861
:1006B0006554491C52EA0305F3D10468002310A2D3
:1006C000250708D504F020040C4304D0C469012395
:1006D0000CA2641EC46130BC00F069B910B50446B8
:1006E00021461068FFF789FE02462046BDE810400B
:1006F0000023D1E7D21D22F00701D1E90023CBE787
:100700000000000030000000F0B40D46018809052B
:1007100002D5214C7C4402E01F4C7C440E34002165
:1007200000F1240608E002F00F071209E75D42EA33
:1007300003721B097754491C52EA0307F3D102786C
:100740000023120704D5702D06D009B102231134FD
:100750002246F0BC00F02BB901231034F8E770B545
:1007600004460D4621461068FFF747FE024629461B
:100770002046BDE870400023C6E7D21D22F00703E3
:10078000D3E90023C0E70368126843F02003036045
:100790000823C3610023B7E7FC3300002DE9F05FB5
:1007A000894604464FF0000ADFF874B1FB44C0F8F4
:1007B00020A02046E1688847002874D0252806D06C
:1007C000D4E901219047206A401C2062F1E700260D
:1007D0005F462046E16888472028054607DB312D23
:1007E00005D2781910F8200C08B10643F1E7B007DC
:1007F00001D526F00406C4F81CA00027C4F818A0F0
:100800002A2D09D0284602F09AFB38B304EB87085A
:10081000303DC8F8185019E059F8041B204604EB85
:1008200087029161E1688847012F054618D1E06988
:10083000002820DA26F020061DE0D8F8180000EB8A
:10084000800005EB40003038C8F818002046E16809
:100850008847054602F073FB0028EED1012F0AD02D
:100860002E2D08D12046E16888477F1C0546022FBF
:1008700046F02006C4DBA069002803DA404246F0B7
:100880000106A061F00701D026F010066C2D0BD0F8
:10089000682D09D04C2D39D06A2D35D0742D35D026
:1008A0007A2D33D016E038E0E1682F46204688479D
:1008B000B842054609D16C2F26D04FF48060E1681C
:1008C000064320468847054604E06C2F1AD04FF4B3
:1008D000807006430DB3A5F14100192802D82035D8
:1008E00046F400664A462946204626604E46FFF7F3
:1008F00085FC80B101280BD0F61D26F0070000F121
:10090000080956E74020E4E78020D8E70020D6E732
:1009100006F104094DE7284652E7206ABDE8F09F3A
:100920008C33000030B5B0F10A024FEA900E71F13D
:1009300000034EEA817EB0EB0E0061EB91014FEABD
:10094000101E4EEA017E10EB0E0041EB11114FEA32
:10095000102E4EEA016E10EB0E0041EB11214FEA12
:10096000104E4EEA014E10EB0E0041EB11414018C3
:1009700041F100014FEAD00040EA41704FEAD10155
:1009800010EB80054FEA810444EA907444EB0104C3
:100990006D1944EB0404521BA3414FF0000348BF00
:1009A0000A3200D530BD401C41F1000130BD2DE9B7
:1009B000F0470D4699469246044600F12408016826
:1009C000880604D5E06921F01001216000E00120D3
:1009D000A84201DD471B00E00027A1697A1902EB5C
:1009E0000900081AA0612078C00602D42046FFF74B
:1009F000D4FC002608E0D4E901211AF8060090474B
:100A0000206A401C761C20624E45F4DB2078C0062C
:100A10000AD52046FFF7C1FC06E0D4E901213020C9
:100A20009047206A401C2062381EA7F10107F4DCC1
:100A300007E0D4E9012118F805009047206A401C1E
:100A40002062281EA5F10105F3DC2046FFF7BBFC60
:100A50002078000602D50220BDE8F0870120FBE7E0
:100A600070472DE9FF4F0C461E464FF0FF378BB005
:100A7000D2E90001DDF860800A908A46C1F30A5588
:100A800005B93D46002108464FF00000BAF1000FBD
:100A900000F4400005DA00EB80004FF4400101EA69
:100AA00050004FEA9059B9F1010F00DDB9460A989C
:100AB00050EA4A000ED044F61050A5F2FF354543E7
:100AC0002F14B8F1000F1ED07542291E1EDDC9F18A
:100AD00000021CE0B8F1010F4FF0000001D03021FE
:100AE00003E0F24305E02154401CB042FBDB3046FA
:100AF0000022002121540B99C1F80880C1E900208F
:100B00000FB0BDE8F08FBD1B6D1CDEE74A4600DA72
:100B1000694206A800F0F2FB06AB93E8070003ABBE
:100B200083E8070050460A9900F0A0FC8DE8070012
:100B3000A0F500501F3800900398002D09DD42F207
:100B40001F014A46084403A90390684600F0FFFECF
:100B500008E0A0F500504A461F3803A903906846F4
:100B600000F009FF8DE807000004000C03D04FF0EF
:100B7000FF30410800E01046B8F1000F03D000221A
:100B8000009215461EE0751E05D4FFF7CBFE3032ED
:100B900062556D1EF9D5B3460122084302D00022EA
:100BA0007F1C04E02078302801D100227F1E002A1B
:100BB000099786D01DE0112D07DAFFF7B3FE30321A
:100BC00062556D1C50EA0102F5D1084302D000982D
:100BD000C8B10EE00021681E05E0235C625C63542E
:100BE0002254401E491C8142F7DBAB46A81B401E25
:100BF0000990002004F80B000B98099AC0F80880AF
:100C0000C0E9002B7CE711264FF0000859E72DE9D9
:100C1000F04F88460446D21D22F0070191B0D1E979
:100C20000001CDE90A0102F072F902460B98C00FEB
:100C300001D02D2007E02068810701D52B2002E09C
:100C4000202101EAC000032A099001D0072A05DB10
:100C500003464146204600F011FB0BE12078800658
:100C600001D5E06900E00620B8F1650F814606D0A5
:100C7000B8F1660F18D0B8F1670F70D131E00020DD
:100C8000B9F1110F009001DB112301E009F101031B
:100C90000AAA01A90CA8FFF7E4FEDDE90C70002602
:100CA00009F10105834647E001204B4600904FF0D3
:100CB00000470AAA01A90CA8FFF7D3FEDDE90DB091
:100CC0000C995D46002610B909F101000D18B9EB29
:100CD000050003D4C0F1FF3609F10105A5EB0900B9
:100CE0002BE0B9F1010F01DA4FF001090020B9F151
:100CF000110F0090484601DD112300E003460AAAC7
:100D000001A90CA8FFF7ADFEDDE90C704D460026E9
:100D10008346207800070AD4AB4500DA5D4601A877
:100D2000012D04DD411911F8011C302907D04F4570
:100D300002DA17F1040F04DA012082460FE06D1E7B
:100D4000EEE7002F02DCED1B3E4403E0781CA842D6
:100D500000DD7D1CB81B00F1010A4FF00047207830
:100D6000000703D4AA4501DB4FF0FF3A0021B7F199
:100D7000004F0DF143088DF8431024D002202B239F
:100D8000002F01DA7F422D230A21021EA0F101006B
:100D900000DC5FB197FBF1FC97FBF1F201FB1C7CDF
:100DA00017460CF1300C08F801CDEEE7A8F1010070
:100DB00003702188090501D5452100E06521A0F1D6
:100DC000010800F8011C09980FA9A1EB0807FF1DF5
:100DD00000B10120411901EBEA70A1693844081AF9
:100DE000401EA0612078C00602D42046FFF7D5FA45
:100DF000099828B1D4E901219047206A401C20625B
:100E00002078C00622D52046FFF7C7FA1EE0002E44
:100E100004DBB34502DD01A8805D00E03020D4E9A9
:100E200001219047206A401C2062761CAAF1010033
:100E30005FEA000A0AD100F01DFAC0680168405C50
:100E4000D4E901219047206A401C2062281EA5F1A8
:100E50000105DCDC07E0D4E9012118F8010B90471B
:100E6000206A401C2062381EA7F10107F3DC2046EF
:100E7000FFF7A9FA032011B043E600002DE9F04F77
:100E800004460D46D21D22F0070089B0D0E9009239
:100E900048461746394602F03AF80246F80F01D0A4
:100EA0002D2307E02068810701D52B2302E02021B4
:100EB00001EAC0038DF820300BB1012000E00020D2
:100EC000032A824601D0072A04DB2946204600F087
:100ED000D5F93DE12078800601D40D2500E0E569D3
:100EE000C7F30A560D2D49DA00214FEA175B084671
:100EF0004FF00000002F00F4400007DA00EB800004
:100F00004FF4400100EBD07001EA60008115012927
:100F100001DD4FF0FF3100224FEA850CBCF1180FC4
:100F200006D31346ACF118004FF08052C24003E0E4
:100F30004FF4801323FA0CF30CF10C0CBCF1200FCE
:100F400004D3ACF1200C09FA0CF001E007FA0CF024
:100F500000294FF0004801DD18B90FE00ED14045DF
:100F60000CD319EB02095F4121B9404502D19F43DF
:100F700029EA0209BBEB175F00D0761C2088000528
:100F800002D57B48784402E079487844193808AAA9
:100F9000302302F80A30037C0AF10101002E0AF125
:100FA000020A53546A4602DC4FF0300101E04FF070
:100FB00031014FF001088DF8001002D0A6F2FF3683
:100FC00003E059EA470100D06A4E002D02DC217887
:100FD000090704D54FF002082E218DF80110C446F0
:100FE00000210BE0C7F303433F01C35C491C6D1EA6
:100FF00002F80830052908F1010801DA002DF1DCBA
:1010000000210CE000EB1973491C1B786D1E0829A8
:1010100002F808304FEA091908F1010801DA002D39
:10102000F0DC2178890602D514E0A8F10108E0453A
:1010300005DD02EB080111F8011C3029F5D0B8F1EB
:10104000000F07DD02EB080111F8011C2E2901D168
:10105000A8F10108002D05DD3E2102F808106D1EE3
:1010600008F10108407C002E02F8080008F1010890
:1010700004DA2D20764202F8080002E02B2002F864
:1010800008000A214FF47A70864208F101080BDB50
:1010900096FBF0F3303302F8083096FBF0F308F1DA
:1010A000010800FB136601E0642E0CDB642096FB54
:1010B000F0F3303302F8083096FBF0F308F1010842
:1010C00000FB136601E00A2E06DB96FBF1F03030E0
:1010D00002F8080008F1010896FBF1F001FB10602E
:1010E000303002F80800A16908F1010808EB050298
:1010F00002EB0A00081AA0612078C00602D420463C
:10110000FFF74BF9216A08AE01EB0A00206204E008
:10111000D4E9012116F8010B9047BAF1010AF7D280
:101120002078C00602D52046FFF737F96E4609E061
:1011300016F8010B3E280FD0D4E901219047206A10
:10114000401C2062B8F10108F2D22046FFF73BF9BB
:1011500009B00320BDE8F08F206A2844206203E034
:10116000D4E90121302090476D1EEBD3F8E7000051
:10117000D82B000002FCFFFF10B5436913B1AFF399
:10118000008001E0FFF742F9012010BD127800F164
:1011900024010A7000224A700122EDE711684FF025
:1011A000FF32E9E710B5436913B1AFF3008001E006
:1011B000FFF7D6F9012010BD128800F124018284C6
:1011C0000022C2840122EDE711684FF0FF32E9E707
:1011D000007B00F08000704770B516460C4605464F
:1011E00000F040F8036893F80101012806D0FF2CB5
:1011F0000FD8185D68B101202C7070BDD3F80701BD
:101200003246214603F2071303442846BDE87040E6
:1012100018474FF0FF3070BD754600F0E3F8AE465A
:1012200005006946534620F00700854618B020B5F2
:10123000FFF75EF8BDE820404FF000064FF00007D2
:101240004FF000084FF0000B21F00701AC46ACE86E
:10125000C009ACE8C009ACE8C009ACE8C0098D46DB
:101260007047000010B500F005F8001D10BD00BF6C
:101270005D28000000487047400400202DE9F0413F
:101280001F46044603260168072A01F4006004DBB8
:1012900008B116A505E016A503E008B115A500E004
:1012A00015A521F010002060A069C01EA0610FB13B
:1012B000401EA0612046FFF770F84FB1D4E901212C
:1012C00038469047206A401C2062C01C206206E01D
:1012D000206AFAE7D4E9012115F8010B9047761E40
:1012E000F8D22046FFF76FF8BDE8F0814E414E007E
:1012F0006E616E00494E4600696E66002DE9F0474A
:10130000814616468AB0334878440DC88DE80D00F2
:1013100030487844801C03AC0DC884E80D0041F6C9
:101320009B300844372190FBF1F290FBF1F5A5F1D9
:10133000800501FB12041B3C02D56442012000E041
:101340000020DFF890A080460027FA44AAF1BE0AE8
:101350000DE0E00709D03246684607EB47010AEB8B
:10136000810100F008FB8DE8070064107F1C002C51
:10137000EFD1184F7F44AC3F18E0E80714D007EBDB
:1013800004100DF1180A90E80E008AE80E00C068FB
:10139000F04201D198190890324606A903A800F03E
:1013A000EAFA03AB83E807006D10641C002DE4D15A
:1013B00032466946B8F1000F03A802D000F0C7FA20
:1013C00001E000F0D8FAC9E90001C9F808200AB024
:1013D000BDE8F087E42800000446AFF30080204613
:1013E000FEF771FF00487047200400204FF0013CD9
:1013F00050F8042B51F8043B9A4221D1A2EB0C0384
:10140000934313EACC1317D150F8042B51F8043B43
:101410009A4215D1A2EB0C03934313EACC130BD1E0
:1014200050F8042B51F8043B9A4209D1A2EB0C036B
:10143000934313EACC13DBD04FF00000704700BF9A
:10144000D01A01BAB1FA81F101F0180122FA01F0C3
:10145000CB40C1F12001DBB2C0B2C01A2CFA01F3BB
:10146000D11A914311EAC311E6D170475FEA400CEB
:1014700008BF91F0000F4FEA8C234FEAC12243EAE4
:1014800051514FEA1C5018BF00F5F0404FEA3000B0
:1014900018BF41F000415FEA6C5C00F02980BCF1AC
:1014A000FF3F08BF40F080407047130C06BF120496
:1014B0004FF0100C4FF0000C130E04BF12020CF191
:1014C000080C130F04BF12010CF1040C930F04BF9E
:1014D00092000CF1020CD30F04BF52000CF1010C6E
:1014E00011464FF00002A0F11F00A0EB0C00704766
:1014F00011F0004F08BF704731F000413FF4D5AF05
:101500000B0C06BF09044FF0100C4FF0000C0B0E33
:1015100004BF09020CF1080C0B0F04BF09010CF108
:10152000040C8B0F04BF89000CF1020CCB0F04BF1D
:1015300049000CF1010CCCF12003A0EB0C0022FAC5
:1015400003F302FA0CF241EA030100F101007047D3
:1015500020F07F4C80EA030023F07F47ACEB0703C9
:1015600003F57C5300F0004003F1FF032DE98049AF
:101570004FEA154B09B44FEA144325EA0B4E24EA0F
:1015800003480FF2042606EB132749083E785FEA6A
:10159000320203FB0667C7F5000707FB06F64FEAB2
:1015A00054374FEAD64606F1020607FB066CCCF12B
:1015B000005C4FEA1C472CEA074C07FB06F40CFBC7
:1015C00006F504EB15464FEA961634BF00204FF09F
:1015D00000404FEAD13706FB07FC4FEA1C4C0CFBDE
:1015E0000BF7D21B03FB0CF761EB07010CFB0EF7AB
:1015F000B0EB074072EB17420CFB08F734BFA2EBCD
:101600000742B2EB074261EB17414FEA0C444FEA45
:10161000910706FB07FC4FEA1C4C0CFB0BF7B0EBE9
:10162000C74072EB573203FB0CF734BFA2EBC74243
:10163000B2EBC74261EB57310CFB0EF7B0EBC700C2
:1016400072EB57720CFB08F734BFA2EBC702B2EB88
:10165000C70261EB5771039F4FEA816141EA921122
:1016600004EBCC044FEAD1374FEA826206FB07FC59
:1016700042EA90124FEA80604FEA1C4C0CFB0BF7D9
:10168000D21B03FB0CF761EB07010CFB0EF7B0EB71
:10169000074072EB17420CFB08F734BFA2EB07427E
:1016A000B2EB074261EB17414FEA8C554FEA9107C5
:1016B00004EB9C2406FB07FC4FEA1C4C0CFB0BF7CD
:1016C000B0EBC74072EB573203FB0CF734BFA2EB11
:1016D000C742B2EBC74261EB57310CFB0EF7B0EBE0
:1016E000C70072EB57720CFB08F734BFA2EBC702BE
:1016F000B2EBC70261EB577115EB4C254FEA8161E4
:1017000041EA92114FEA82624FEAD13742EA9012DF
:1017100006FB07FC44F100044FEA80604FEA1C4CD2
:101720000CFB0BF7D21B03FB0CF761EB07010CFB67
:101730000EF7B0EB074072EB17420CFB08F734BF13
:10174000A2EB0742B2EB074261EB174115EB1C1508
:101750004FEA813141EA92414FEA823242EA9042B5
:101760004FEA80304FEA0C7644F1000448EA034324
:101770004EEA0B484FF0000EB2EB080C71EB03077A
:1017800024BF624639464EEB0E0E4FF0000B001898
:10179000524149414BEB0B0BB2EB080C71EB0307C9
:1017A0007BF1000B24BF624639464EEB0E0E4FF024
:1017B000000B0018524149414BEB0B0BB2EB080CEC
:1017C00071EB03077BF1000B24BF624639464EEBF9
:1017D0000E0E51EA020718BF46F0010616EB0E7610
:1017E00055F1000254F1000103D5BDE88901BDE8BF
:1017F0000088BDE88901BDE80048B619524141EBB7
:101800000101A3F10103704780807F7E7D7C7B7A9C
:101810007978777676757473727171706F6E6E6D9C
:101820006C6C6B6A6A696868676666656464636342
:1018300062616160605F5F5E5E5D5D5C5C5B5B5AC8
:101840005A59595858575756565555555454535335
:1018500052525251515050504F4F4F4E4E4D4D4D90
:101860004C4C4C4B4B4B4A4A4A49494948484847DB
:101870004747474646464545454444444443434319
:101880004342424242414141002B26D4770021D0BD
:101890001CB54FEA370703B44FF010004FF01001AA
:1018A0004FF000000FBCBDE810400BF1010BBBF185
:1018B000010F08BF5FEA170722BF12F1010211F101
:1018C00001014FF0004143F1000300F0004043EA02
:1018D00000007047F9D35708DAE746EA064613F1E5
:1018E000400F4FEA16461FDD13F1200FDFBF1643EE
:1018F0000A46002120335B42C8D0C3F1200746EAE4
:10190000064602FA07F74FEA164646EA0706C3F10B
:10191000200722FA03F201FA07F721FA03F14FF048
:10192000000342EA0702B1E746EA020646EA064633
:101930004FEA164646EA0106BCBF46EA0646360CA2
:101940004FF000034FF000024FF000019EE72DE939
:10195000C048934630B491E8380007C831EA400CDB
:1019600048BF34EA430C03D5FFF7F2FDFFF78CFFC5
:10197000F0BCBDE800882DE9C048934630B491E83A
:10198000380007C810F0804F08BF13F0804F03D114
:1019900000F005F8FFF778FFF0BCBDE8008820F004
:1019A0007F4780EA030023F07F4C07EB0C03A3F58D
:1019B0007C5300F00040A3F1FE0392F0000F00F012
:1019C000B38095F0000F00F077802DE901494FEAD0
:1019D00011404FEA144621EA004800FB06FC24EAC5
:1019E000064708FB06F607FB08F800FB07F718EBAD
:1019F00006484CEB164C4FEA124B18EB07484FEADF
:101A000015464CEB174022EA0B4E0BFB06FC25EA71
:101A100006470EFB06F607FB0EFE0BFB07F71EEB59
:101A2000064E4CEB164C4FF000061EEB074E4CEBEF
:101A3000174B18EB0B0840F1000018EB0E0B58EB9E
:101A4000000840F100008F1A4FF000013CBFC9436D
:101A5000661B14BFB5EB040C00213CBFC943F61B49
:101A60004FEA17444EEA8E0E27EA04454FEA1C4718
:101A700004FB07622CEA074C05FB07F70CFB05F695
:101A800004FB0CFC16EB074642EB174216EB0C4628
:101A900042EB1C421BEB060658EB0202414146EAB0
:101AA0009E0601D5BDE80189B619524141EB0101FD
:101AB000A3F10103BDE801894FEA14454FEA11473C
:101AC00024EA054621EA074C05FB07F406FB07F765
:101AD0000CFB06F105FB0CFC11EB074144EB174432
:101AE0004FEA124711EB0C4144EB1C4422EA074C2D
:101AF00005FB07F206FB07F70CFB06F605FB0CFCE3
:101B000016EB074642EB174216EB0C4642EB1C4520
:101B10006A1854F1000148BF7047B619524141EBB1
:101B20000101A3F10103704795F0000F37D04FEA90
:101B300011424FEA144721EA024624EA074C02FB0D
:101B400007F106FB07F70CFB06F402FB0CFC14EB99
:101B5000074441EB17414FEA154714EB0C4441EBA6
:101B60001C4125EA074C02FB07F506FB07F70CFBB7
:101B700006F602FB0CFC16EB074645EB174516EB89
:101B80000C4645EB1C42121951F1000148BF704749
:101B9000B619524141EB0101A3F1010370474FEA2D
:101BA00014454FEA114724EA054621EA074C05FB94
:101BB00007F106FB07F70CFB06F24FF0000605FBEA
:101BC0000CFC12EB074241EB174112EB0C4251EBBC
:101BD0001C4148BF7047921841EB0101A3F101037A
:101BE000704700001CB50121084600F021FC0121CE
:101BF000022000F01DFC0121042000F019FC01214D
:101C0000082000F015FC0121102000F011FC01213A
:101C1000402000F00DFC012000908DF80400002011
:101C20008DF8060003208DF8050002208DF80700CE
:101C30006946BF4800F0FCFA0121BD4800F06CFB8A
:101C40004FF48070009001208DF8040000208DF882
:101C5000060003208DF8050002208DF80700694674
:101C6000B44800F0E5FA4FF48071B24800F054FB3C
:101C70004FF40070009001208DF8040000208DF8D2
:101C8000060003208DF8050002208DF80700694644
:101C9000A84800F0CDFA4FF40071A64800F03CFBD4
:101CA0008020009001208DF8040000208DF80600AF
:101CB00003208DF8050002208DF8070069469D4835
:101CC00000F0B6FA80219B4800F026FB4FF48060BC
:101CD000009001208DF8040000208DF806000320FC
:101CE0008DF8050002208DF807006946914800F044
:101CF0009FFA4FF480618F4800F00EFB4FF40060B4
:101D0000009001208DF8040000208DF806000320CB
:101D10008DF8050002208DF807006946854800F01F
:101D200087FA4FF40061834800F0F6FA4FF48040E0
:101D3000009001208DF8040000208DF8060003209B
:101D40008DF8050002208DF807006946794800F0FB
:101D50006FFA4FF48041774800F0DEFA4FF40050FC
:101D6000009001208DF8040000208DF8060003206B
:101D70008DF8050002208DF8070069466D4800F0D7
:101D800057FA4FF400516B4800F0C6FA4FF48050F8
:101D9000009001208DF8040000208DF8060003203B
:101DA0008DF8050002208DF807006946614800F0B3
:101DB0003FFA4FF480515F4800F0AEFA4FF4807064
:101DC000009001208DF8040000208DF8060003200B
:101DD0008DF8050002208DF807006946564800F08E
:101DE00027FA4FF48071544800F096FA8020009052
:101DF00001208DF8040000208DF8060003208DF8E6
:101E0000050002208DF8070069464C4800F010FAE2
:101E100080214A4800F080FA4020009001208DF88F
:101E2000040000208DF8060003208DF80500022034
:101E30008DF807006946424800F0FAF94021404811
:101E400000F06AFA4020009001208DF80400002084
:101E50008DF8060003208DF8050002208DF807009C
:101E60006946384800F0E4F94021364800F054FA59
:101E70004FF48040009001208DF8040000208DF880
:101E8000060003208DF8050002208DF80700694642
:101E9000274800F0CDF94FF48041254800F03CFA86
:101EA0008020009001208DF8040000208DF80600AD
:101EB00003208DF8050002208DF8070069462048B0
:101EC00000F0B6F980211E4800F026FA4FF4807029
:101ED000009001208DF8040000208DF806000320FA
:101EE0008DF8050002208DF807006946144800F0BF
:101EF0009FF94FF48071124800F00EFA4FF4007011
:101F0000009001208DF8040000208DF806000320C9
:101F10008DF8050002208DF807006946084800F09A
:101F200087F94FF40071064800F0F6F91CBD000077
:101F30000004024000100240000C02400000024079
:101F4000000802400018024000BFFEE7704710B5CD
:101F50000A2001F01BF8012000F014F9012000F024
:101F60000BF910BD10B50A2001F010F8022000F0A6
:101F700009F9022000F000F910BD10B50A2001F0A7
:101F800005F8042000F0FEF8042000F0F5F810BD7C
:101F900010B50A2000F0FAFF082000F0F3F808203E
:101FA00000F0EAF810BD10B50A2000F0EFFF102095
:101FB00000F0E8F8102000F0DFF810BD10B5202088
:101FC00000F0E0F8012805D10A2000F0DFFF202012
:101FD00000F0D2F8402000F0D5F8012805D10A2001
:101FE00000F0D4FF402000F0C7F8802000F0CAF8CD
:101FF000012805D10A2000F0C9FF802000F0BCF8BC
:1020000010BD000000B585B00121084600F010FAAF
:102010000121042000F00CFA4F20039000208DF8DD
:10202000100003208DF8110001208DF8130003A982
:102030004F4800F0FDF80E20039000208DF81000AE
:1020400003208DF8110001208DF8130003A94948E1
:1020500000F0EEF80121880300F01AFA00210320B5
:1020600000F0ACFA0121032000F0A8FA02210320BD
:1020700000F0A4FA0321084600F0A0FA042103208E
:1020800000F09CFA0521032000F098FA06210320B5
:1020900000F094FA0721032000F090FAFF2001904D
:1020A00000208DF808000C208DF8090001208DF823
:1020B0000A0001A800F072F806208DF80000002048
:1020C0008DF8010002208DF8020001208DF8030038
:1020D000684600F065F907208DF8000001208DF8B2
:1020E000010002208DF8020001208DF803006846EF
:1020F00000F056F908208DF8000002208DF801004C
:102100008DF8020001208DF80300684600F048F9C0
:1021100009208DF8000003208DF8010002208DF8C1
:10212000020001208DF80300684600F039F90A200A
:102130008DF8000004208DF8010002208DF80200C7
:1021400001208DF80300684600F02AF917208DF869
:10215000000005208DF8010002208DF8020001200A
:102160008DF80300684600F01BF905B000BD0000C3
:10217000000002400008024001490860704700006A
:10218000143C014001460020034A12680A400AB18B
:10219000012000E000207047143C01400021234949
:1021A0008279002A3AD00A46126803689A430B469D
:1021B0001A600A1D126803689A430B1D1A6002799F
:1021C00011440A6803681A430A60184A0832126800
:1021D00003689A43154B08331A601A1D1268036886
:1021E0009A43124B0C331A604279102A0ED11A1FEF
:1021F000126803681A430D4B08331A601A1D1268DF
:1022000003681A43094B0C331A600DE00749427901
:1022100011440A6803681A430A6005E00279114410
:102220000A6803689A430A6070470000003C014056
:10223000F0B50A4600210023002400BF3DE001253F
:1022400005FA01F3156805EA03049C4234D10568D8
:102250004F000326BE40B543056015794E00B540DA
:102260000668354305601579012D02D01579022DD8
:1022700016D185684F000326BE40B5438560557969
:102280004E00B540866835438560456801268E401E
:10229000B5434560456896798E40B6B23543456092
:1022A000C5684F000326BE40B543C560D5794E00D2
:1022B000B540C6683543C560491C1029BFD3F0BD81
:1022C000F0B5002300244D07ED0E02FA05F3CE1001
:1022D00000F1200555F826504E07F70E0F26BE4098
:1022E000B543CF1000F1200646F82750CE1000F17C
:1022F000200555F8265045EA0304CE1000F12005CC
:1023000045F82640F0BD0246002013690B400BB192
:10231000012000E00020704741837047018370472F
:102320007CB50A2401250121242000F081F8012038
:10233000009000208DF8040003208DF80500012096
:102340008DF8070069461048FFF772FF40200090A3
:1023500001208DF8040000208DF8060003208DF880
:10236000050001208DF8070069460848FFF760FF67
:1023700040210648FFF7D2FF4FF4165001F020FB32
:102380000020034908607CBD0008024000140240A0
:102390009882424200BFFEE700BFFEE770470000A0
:1023A00070B5002100230F22C4781CB3174C246899
:1023B00004F4E064C4F5E064C4F30721C1F104044B
:1023C000E3B20A4144789C40E1B28478144021434E
:1023D0000C07210E0E4C05786155047804F01F059A
:1023E0000124AC4005786D11AD0005F1E025C5F87C
:1023F000004109E0047804F01F050124AC40054DBC
:102400000678761145F8264070BD00000CED00E01E
:1024100000E400E080E100E002490143024A11606B
:10242000704700000000FA050CED00E07047000066
:1024300029B1064A12680243044B1A6004E0034AB9
:1024400012688243014B1A60704700003038024026
:1024500029B1064A12680243044B1A6004E0034A99
:1024600012688243014B1A607047000040380240F6
:1024700029B1064A12680243044B1A6004E0034A79
:1024800012688243014B1A607047000020380240F6
:1024900029B1064A12680243044B1A6004E0034A59
:1024A00012688243014B1A607047000044380240B2
:1024B00029B1064A12680243044B1A6004E0034A39
:1024C00012688243014B1A607047000024380240B2
:1024D000F0B5002100220024022500260223324FFD
:1024E0003F6807F00C0121B1042905D0082937D134
:1024F00005E02E4F076036E02D4F076033E02A4F8E
:102500003F1F3F68C7F38056274F3F1F3F6807F0C4
:102510003F036EB1264FB7FBF3F7DFF88CC0ACF189
:10252000040CDCF800C0CCF3881C07FB0CF40CE0B6
:102530001E4FB7FBF3F7DFF870C0ACF1040CDCF80A
:1025400000C0CCF3881C07FB0CF4174F3F1F3F68FB
:10255000C7F301477F1C7D00B4FBF5F7076002E07D
:10256000124F076000BF00BF0F4F3F6807F0F00138
:102570000909104F7A5C0768D74047600A4F3F68E7
:1025800007F4E051890A0B4F7A5C4768D7408760AF
:10259000054F3F6807F46041490B064F7A5C476876
:1025A000D740C760F0BD0000083802400024F400A6
:1025B00000127A00220000207047000030B500228F
:1025C0008B071C0F0F2303FA04F20B4B8C1053F8EC
:1025D00024309343084C8D1044F8253023468C104A
:1025E00053F824308C07240F00FA04F42343024CE0
:1025F0008D1044F8253030BD083801400CB500205E
:10260000019000903448006840F4803032490860FE
:1026100000BF3148006800F4003000900198401C71
:102620000190009818B90198B0F5A04FF1D12A484F
:10263000006800F4003010B10120009001E000209B
:1026400000900098012846D123484030006840F0AF
:1026500080502149403108602048006840F44040E3
:102660001E4908601C48083000681B490831086092
:102670000846006840F4004008600846006840F4DE
:10268000A05008601648091F0860081F006840F045
:102690008070091F086000BF0F48006800F00070DC
:1026A0000028F9D040F205700E4908600A48083049
:1026B000006820F0030008490831086008460068F7
:1026C00040F00200086000BF03480830006800F0D6
:1026D0000C000828F8D10CBD003802400070004002
:1026E00008544007003C0240042808D14FF0E02184
:1026F000096941F004014FF0E022116107E04FF059
:10270000E021096921F004014FF0E02211617047D6
:102710007047000010B51548006840F47000134978
:1027200008601348006840F001001149086000206B
:102730000F49083108600E4800680E4908400C49EE
:1027400008600D48091D0860081F006820F48020FB
:10275000091F0860002006490C310860FFF74EFF92
:102760004FF0006001498039086010BD88ED00E03D
:1027700000380240FFFFF6FE1030002410B50121A2
:102780005E4800F08CF9F8B15D48007800F08000F8
:10279000D0B15B48007820F0100059490870084615
:1027A000007800F00F0020B90846007840F04000A3
:1027B00008705348007800F00F000E2805DA5048E2
:1027C0000078401C4E4908700AE04D48007820F01F
:1027D00080004B4908700846007800F0F00008704F
:1027E0000221464800F05BF9002810D045480068F7
:1027F00070B10221414800F06CF900213F4800F01F
:1028000071F93F48007840F010003D49087070E0D1
:102810003A4800F041F93C4908800021374800F06F
:1028200058F93748007800F0100000285BD0344891
:10283000007800F08000E8B333480088B0F5967F58
:102840000DDD31480088B0F5487F08DA2F48006870
:1028500040002E49086008460068086043E02A48A6
:102860000088B0F5AF6F0FDD27480088B0F5E16F45
:102870000ADA2648006840002449086008460068D3
:1028800040F0010008602EE01F48008840F69801E3
:10289000884228DD1C48008840F62821884222DA38
:1028A0001B480078401C1A4908701548007800F051
:1028B000F00000E002E01249087014E012480088BD
:1028C00041F2680188420EDD0F48008841F25C2128
:1028D000884208DA0A48007840F080000849087009
:1028E00000200B4908700648007820F010000449C9
:1028F00008700321014800F0BDF810BD00440140FC
:102900000C000020188242420E000020100000201F
:102910001400002010B53048007800F08000002836
:1029200054D101212D4800F0BAF8D0B12A480078DE
:1029300000F04000A8B12848007800F03F003F2890
:102940000AD12548007840F08000234908704FF0F4
:10295000FF302349086004E01F480078401C1E49EE
:10296000087002211D4800F09AF878B31A480078E0
:1029700000F0400078B11848007840F08000164917
:102980000870164800F088F81549086000211348BF
:1029900000F09FF81AE000200F4908701049086005
:1029A0000D48007840F040000B49087000210B48AA
:1029B00000F066F80021094800F094F80221074869
:1029C00000F087F80121054800F05AF80321034878
:1029D00000F053F810BD000004000020000C00407F
:1029E0000800002010B50121094800F058F868B12E
:1029F0000848008840F40040064908800121044846
:102A000000F03BF80021024800F03AF810BD000049
:102A100000140040000000207FB505460C4601214F
:102A20002020FFF715FD0195ADF800400020ADF81E
:102A30000800ADF8020069460D4800F055F8012283
:102A400011460B4800F03CF80121094800F018F845
:102A500037208DF80C0000208DF80D0001208DF836
:102A60000E008DF80F0003A8FFF79AFC7FBD000051
:102A700000140040CA4302827047CA430282704772
:102A800021B1028842F00102028004E002884FF680
:102A9000FE731A40028070470146486B704730B59C
:102AA0000246002000230024158A05EA01039589C7
:102AB00005EA010413B10CB1012000E0002030BD93
:102AC0001AB183890B43838102E083898B4383811D
:102AD00070470A460021018C4FF6FD7319401143DF
:102AE000018470474162704700220288184B984267
:102AF0000ED0184B98420BD0B0F1804F08D0164B37
:102B0000984205D0154B984202D0154B984204D1FB
:102B10004FF68F731A404B881A43124B984207D0D6
:102B2000114B984204D04FF6FF431A400B891A43C9
:102B300002804B68C3620B880385054B984202D024
:102B4000044B984201D18B7A03860123838270471C
:102B50000000014000040140000400400008004063
:102B6000000C0040001000400014004010B540F27E
:102B700025511D4800F007F910B31B4800F0BCF9BF
:102B8000C4B21A48008800F40040C8B91748008849
:102B900000F4804060B10A2C03D000201349088063
:102BA00020E01248008840F400401049088019E0F5
:102BB0000D2C06D10D48008840F480400B49088058
:102BC00010E00A480088C0F30D0009490C5407487A
:102BD0000088401C0549088008460088C72801DD98
:102BE0000020088010BD00000010014020000020DF
:102BF0005803002010B540F22551164800F0C3F8E4
:102C000000B3144800F078F9C4B21348008800F407
:102C10000040B8B910480088B0F5C87F13DA002129
:102C20000E48FFF75FFF0C48008818B901210B48D8
:102C3000FFF726FF084801880088401C064A1080DC
:102C40000748445405E00448008840F40040024925
:102C5000088010BD00480040000000200014004023
:102C6000C801002021B1828942F40052828104E02F
:102C700082894DF6FF731A408281704710B5044671
:102C80003248844208D101211020FFF711FC0021B5
:102C90001020FFF70DFC57E02D48844209D1012197
:102CA0004804FFF7E5FB00214FF40030FFF7E0FB9D
:102CB0004AE02848844209D101218804FFF7D8FB63
:102CC00000214FF48020FFF7D3FB3DE022488442EF
:102CD00009D10121C804FFF7CBFB00214FF40020EC
:102CE000FFF7C6FB30E01D48844209D101210805E9
:102CF000FFF7BEFB00214FF48010FFF7B9FB23E084
:102D00001748844208D101212020FFF7D1FB002180
:102D10002020FFF7CDFB17E01248844209D10121A2
:102D20008807FFF7A5FB00214FF08040FFF7A0FBCD
:102D30000AE00D48844207D101214005FFF798FBC6
:102D400000216005FFF794FB10BD0000001001405A
:102D50000044004000480040004C0040005000404B
:102D60000014014000780040007C00400246002032
:102D7000B1F5007F00D100BF13880B400BB10120DB
:102D800000E00020704770B50246002400230025B3
:102D9000002040F66A16B14200D100BFC1F34215CF
:102DA00001F01F03012606FA03F3012D02D19689D3
:102DB000334006E0022D02D1168A334001E0968AA4
:102DC00033400C12012606FA04F41688344013B17D
:102DD0000CB1012000E0002070BDF0B503460024D6
:102DE00000260025002040F66A17B94200D100BF36
:102DF0001846C1F3421401F01F06012707FA06F531
:102E0000012C01D10C3004E0022C01D1103000E083
:102E100014301AB107682F43076002E00768AF4318
:102E20000760F0BD2DE9FF4705460E460024A14688
:102E300000BFA046B08900B100BF2C8A24F44054E2
:102E4000F08804432C82AC8941F20C608443B08842
:102E500031890843718908430443AC81AC8A24F466
:102E60004074B0890443AC826846FFF731FB2048C8
:102E7000854202D01F48854202D1DDF80C9001E066
:102E8000DDF80890A88900F4004040B109EBC900C2
:102E900000EB091031684900B0FBF1F707E009EBDE
:102EA000C90000EB091031688900B0FBF1F764201C
:102EB000B7FBF0F004012009642101FB1078A88918
:102EC00000F4004040B1322000EBC800B0FBF1F04C
:102ED00000F00700044308E0322000EB08106421F2
:102EE000B0FBF1F000F00F0004432C81BDE8FF8738
:102EF000001001400014014001468888C0F308001A
:102F00007047C1F308028280704700BFFEE703B438
:102F100001984100009850EAC12018BF04204A0DD2
:102F200018BF40F0010040F2FF72B2EB515F08BFE2
:102F300040F00200012808BF052002B07047303879
:102F40000A2801D2012070470020704700BF704757
:102F500010B504466FF00400FFF7C6FBE11704EB61
:102F60005171C1F3C701074A11701046007800EB98
:102F70004001C1EBC0104FF6FF7101EAC0000249E9
:102F8000088010BD160000201800002070B504460F
:102F90004FF4077094FBF0F0C6B24FF4077094FB47
:102FA000F0F100FB114085B205E04FF4077000F02E
:102FB00009F8701EC6B2002EF7D115B1284600F0F0
:102FC00001F870BD0146114A12884A434FF0E023D0
:102FD0005A6100229A611A46126942F001021A618E
:102FE00000BF4FF0E022106900F001021AB100F4B6
:102FF0008032002AF5D04FF0E022126922F001025F
:103000004FF0E0231A6100229A61704718000020F7
:1030100000BF054A128802F04002002AF9D0C2B26D
:10302000014B9A8070470000001001404FF4A060EF
:10303000FFF7F2F9A820FFF78BFF4FF4165000F0CE
:1030400069FCFEF7CFFDFEF7DDFF0024002505E05B
:103050006420FFF79BFFFEA0FDF770F9FFF760F912
:103060000028F5D1F3E10A20FFF790FF0121FD4888
:10307000FFF749F920B94021FA48FFF744F918B1A0
:103080000121F948FFF748F90821F848FFF73BF913
:1030900020B90821F348FFF736F918B18021F44828
:1030A000FFF73AF90421F148FFF72DF928B1012C77
:1030B00003D12102EF48FFF72FF90421E948FFF778
:1030C00022F928B1022C03D1E101EA48FFF724F9E3
:1030D0000221E648FFF717F928B1012D03D140215D
:1030E000E548FFF719F90221DE48FFF70CF928B18E
:1030F000022D03D14021E048FFF70EF9DF48008898
:1031000000F4004000287DD0DC480678DC480078D8
:1031100061281FD10121D348FFF7F5F818B1D9A0D4
:1031200000F0D0FB16E00121CF48FFF7F7F84FF48D
:103130008071CF48FFF7F0F84FF40071CC48FFF7EB
:10314000EDF84021C748FFF7DEF818B14FF4FA70E8
:10315000FFF71CFFCA480078622803D10121C2484A
:10316000FFF7DAF8C648007863281FD14021BD4830
:10317000FFF7C9F818B1C5A000F0A4FB16E00121C3
:10318000B948FFF7CBF84FF48071B948FFF7C6F89C
:103190004FF40071B648FFF7BFF80121B148FFF7BF
:1031A000B2F818B14FF4FA70FFF7F0FEB4480078A7
:1031B000642803D10121AC48FFF7AEF8B04800788D
:1031C00065281ED10821A948FFF79DF818B1B1A0C4
:1031D00000F078FB15E08021A548FFF79FF84FF439
:1031E0008061A348FFF798F84FF40061A048FFF70B
:1031F00095F808219B48FFF786F810B16420FFF787
:10320000C5FE00E0F0E09E480078662803D18021EA
:103210009748FFF781F89A48007867281ED108215F
:103220009048FFF770F818B19CA000F04BFB15E038
:1032300080218F48FFF772F84FF480618C48FFF7C8
:103240006DF84FF400618A48FFF766F80821874857
:10325000FFF759F810B16420FFF798FE884800780E
:10326000682803D180218248FFF756F88448007807
:1032700069280ED14FF480417D48FFF74FF84FF495
:1032800000517B48FFF748F84FF480517848FFF72A
:1032900045F87B4800786A2804D14FF4804174488F
:1032A000FFF73AF8764800786B280ED14FF480414A
:1032B0006F48FFF733F84FF400516D48FFF72EF8D1
:1032C0004FF480516A48FFF727F86D4800786C2862
:1032D00004D14FF480416648FFF71EF86848007833
:1032E0006D2818D104216148FFF70DF828B1012C91
:1032F00003D16CA000F0E6FA0DE04FF480715D4858
:10330000FFF70CF880215748FFF706F8402157488F
:10331000FFF704F801245A4800786E2818D10421D8
:103320005048FEF7F0FF28B1022C03D15FA000F057
:10333000C9FA0DE04FF480714E48FEF7EFFF80218F
:103340004848FEF7EBFF40214848FEF7E5FF02241E
:103350004B4800786F2818D102214448FEF7D3FF6C
:1033600028B1012D03D153A000F0ACFA0DE04021AB
:103370004148FEF7D3FF4FF480413B48FEF7CCFFB6
:1033800080213A48FEF7CAFF01253D4800787028A1
:1033900018D102213348FEF7B6FF28B1022D03D120
:1033A00046A000F08FFA0DE040213348FEF7B6FF4B
:1033B0004FF480412C48FEF7B1FF80212B48FEF7E7
:1033C000ABFF02252E480078712802D13DA0FCF702
:1033D000B5FF2B480078722802D13BA0FCF7AEFF66
:1033E00000202649088000BF3848008800F40040CB
:1033F00000282CD0354806783548007861281FD140
:1034000001211848FEF77FFF18B132A0FCF796FFA4
:1034100016E001211448FEF781FF4FF48071144833
:10342000FEF77AFF4FF400711148FEF777FF402155
:103430000C48FEF768FF18B14FF4FA70FFF7A6FDCD
:1034400023480078622849D10121074844E019E265
:10345000C0B6D1C0B3F5CABCBBAFD6D02E2E2E0D90
:103460000A00000000000240000402400008024080
:1034700000100240000C0240001802400000002032
:10348000C8010020464C0D0A0000000046520D0AFB
:10349000000000005A4C0D0A000000005A520D0AAC
:1034A00000000000434C0D0A0000000043520D0ACA
:1034B000000000004C4C0D0A000000004C520D0AA8
:1034C000000000003800000039000000200000204B
:1034D00058030020464C0000FEF71EFFEA48007823
:1034E00063281FD14021E948FEF70DFF18B1E8A07D
:1034F000FCF724FF16E00121E648FEF70FFF4FF42A
:103500008071E548FEF70AFF4FF40071E248FEF7CC
:1035100003FF0121DD48FEF7F6FE18B14FF4FA7003
:10352000FFF734FDD8480078642803D10121D94839
:10353000FEF7F2FED448007865281ED10821D7484E
:10354000FEF7E1FE18B1D6A0FCF7F8FE15E08021E9
:10355000D148FEF7E3FE4FF48061CF48FEF7DCFE72
:103560004FF40061CC48FEF7D9FE0821C748FEF7AA
:10357000CAFE10B16420FFF709FDC3480078662831
:1035800003D18021C448FEF7C7FEBF4800786728F2
:103590001ED10821BD48FEF7B6FE18B1C1A0FCF748
:1035A000CDFE15E08021BC48FEF7B8FE4FF48061E7
:1035B000B948FEF7B3FE4FF40061B748FEF7ACFE22
:1035C0000821B648FEF79FFE10B16420FFF7DEFC2D
:1035D000AD480078682803D18021AF48FEF79CFEF3
:1035E000A948007869280ED14FF48041AA48FEF717
:1035F00095FE4FF40051A848FEF78EFE4FF480511F
:10360000A548FEF78BFEA04800786A2804D14FF445
:103610008041A148FEF780FE9B4800786B280ED1C0
:103620004FF480419C48FEF779FE4FF400519A48D0
:10363000FEF774FE4FF480519748FEF76DFE9248F6
:1036400000786C2804D14FF480419348FEF764FE63
:103650008D4800786D2818D104219048FEF753FE5C
:1036600028B1012C03D190A0FCF768FE0DE04FF4C7
:1036700080718E48FEF752FE80218448FEF74CFE92
:1036800040218648FEF74AFE01247F4800786E28D4
:1036900018D104217D48FEF736FE28B1022C03D153
:1036A00083A0FCF74BFE0DE04FF480717F48FEF7DE
:1036B00035FE80217548FEF731FE40217748FEF740
:1036C0002BFE0224704800786F2818D1022173481D
:1036D000FEF719FE28B1012D03D176A0FCF72EFECE
:1036E0000DE040217448FEF719FE4FF4804169480F
:1036F000FEF712FE80216948FEF710FE01256248A0
:103700000078702818D102216048FEF7FCFD28B12E
:10371000022D03D169A0FCF711FE0DE0402166489F
:10372000FEF7FCFD4FF480415A48FEF7F7FD80217B
:103730005A48FEF7F1FD022553480078312816D18A
:103740004FF400515448FEF7E9FD4FF480515248C0
:10375000FEF7E2FD4FF480414F48FEF7DFFD0F20FA
:10376000FFF714FC4FF480414B48FEF7D5FD464867
:103770000078322816D14FF400514748FEF7CEFDAD
:103780004FF480514448FEF7C7FD4FF48041424852
:10379000FEF7C4FD1E20FFF7F9FB4FF480413E48C1
:1037A000FEF7BAFD38480078332816D14FF400519F
:1037B0003948FEF7B3FD4FF480513748FEF7ACFDB2
:1037C0004FF480413448FEF7A9FD2D20FFF7DEFBC2
:1037D0004FF480413048FEF79FFD2B480078342895
:1037E00016D14FF400512C48FEF796FD4FF480514E
:1037F0002948FEF793FD4FF480412748FEF78EFDE0
:103800000F20FFF7C3FB4FF480412348FEF784FDF0
:103810001D480078352816D14FF400511E48FEF798
:103820007BFD4FF480511C48FEF778FD4FF480413A
:103830001948FEF773FD1E20FFF7A8FB4FF48041E7
:103840001548FEF769FD10480078362816D14FF468
:1038500000511148FEF760FD4FF480510E48FEF70D
:103860005DFD4FF480410C48FEF758FD2D20FFF719
:103870008DFB4FF480410848FEF74EFD00201049B3
:10388000088000BFFFF7EFBB580300200000024094
:1038900046520000000402400010024000080240AE
:1038A0005A4C00005A520000434C0000000C0240E9
:1038B000435200004C4C0000001802404C520000E3
:1038C000200000200FB438B505A800900F48009ADA
:1038D0000499FCF721FD002000900C48FCF73AFD0C
:1038E00085B200240DE000BF40210948FFF73EFAF1
:1038F0000028F9D00548015D0548FFF702FB601C70
:1039000084B2AC42EFDB38BC5DF814FB3800002019
:103910000048004010B588B0044601210846FEF773
:1039200087FD01211020FEF7B3FD0722092122485F
:10393000FEF7C6FC07220A211F48FEF7C1FC4FF420
:10394000C060069002208DF81C008DF81D0000203C
:103950008DF81E0001208DF81F0006A91648FEF7FD
:1039600067FC02940020ADF80C00ADF80E00ADF835
:103970001000ADF814000C20ADF8120002A90F4899
:10398000FFF750FA01210D48FFF76CF9012240F2D0
:1039900025510A48FFF721FA25208DF8040003205D
:1039A0008DF805008DF8060001208DF8070001A8AC
:1039B000FEF7F6FC08B010BD000002400010014008
:1039C00010B588B004463248FFF758F901210220AB
:1039D000FEF72EFD01218804FEF73AFD07220B2198
:1039E0002C48FEF76DFC07220A212A48FEF768FCE6
:1039F0004FF44060059002208DF818008DF81900F2
:103A000000208DF81A0001208DF81B0005A921481F
:103A1000FEF70EFC4FF440611E48FEF77FFC019458
:103A20000020ADF80800ADF80A00ADF80C00ADF8C4
:103A300010000C20ADF80E0001A91548FFF7F2F9AF
:103A4000012240F225511248FFF7C7F90121104821
:103A5000FFF708F927208DF81C0002208DF81D00C3
:103A600003208DF81E0001208DF81F0007A8FEF727
:103A700097FC42F2CF016320FEF7CEFF00210648FB
:103A8000FEF7FEFF00200549088008B010BD0000C9
:103A900000480040000402400014004000000020E4
:103AA00010B500290AD00878002807D005487844C6
:103AB000FDF79CFC002801D0002010BD024878448E
:103AC00010BD00007A0100007201000010B500294D
:103AD0000AD00878002807D005487844FDF786FC0E
:103AE000002801D0002010BD0248784410BD00001D
:103AF0006A010000620100004FF04070E1EE100A20
:103B00007047FDF784B8FDF7B9B900000000000068
:103B10000000000030313233343536373839414215
:103B2000434445464030580030313233343536371F
:103B300038396162636465664030780004000008CB
:103B400000000000000000020001000010303132CF
:103B500033343536373839616263646566787000AE
:103B600030313233343536373839414243444546B3
:103B70005850000002400000000000A000000000BB
:103B800005400000000000C8000000000C400000DC
:103B90000000409C00000000194000000020BCBE56
:103BA0000000000034400000BFC91B8E000000046C
:103BB000B5400000504BCFD06607E2CF01000000B7
:103BC0006C4100003E8251AADFEEA73401000000E4
:103BD000D9420000DCB5A0E23A301F97FFFFFFFF9B
:103BE000B4450000FD25A0C8E9A3C14FFFFFFFFFBA
:103BF000FF3F00000000008000000000FF3F0000C9
:103C00000000008000000000543D0008000000207B
:103C100034000000C4010008883D00083400002082
:103C20004C0A0000E00100081C00000043000000F6
:103C3000F8FFFFFF0C0000000E0000000F00000066
:103C40002E0000001001000043000000F8FFFFFFFD
:103C5000004040404040404040404141414141409F
:103C60004040404040404040404040404040404054
:103C700040050202020202020202020202020202E3
:103C800002202020202020202020200202020202E8
:103C90000202909090909090101010101010101040
:103CA000101010101010101010101010020202024C
:103CB0000202888888888888080808080808080890
:103CC000080808080808080808080808020202028C
:103CD00040000000000000000000000000000000A4
:103CE00000000000000000000000000000000000D4
:103CF00000000000000000000000000000000000C4
:103D000000000000000000000000000000000000B3
:103D100000000000000000000000000000000000A3
:103D20000000000000000000000000000000000093
:103D30000000000000000000000000000000000083
:103D40000000000000000000000000000000000073
:103D50000000000000000000000000000000000063
:103D60000000000000000000000000000000000053
:103D70000000000000000000000001020304010236
:083D8000030406070809000016
:040000050800018965
:00000001FF
